{"abi":[{"type":"constructor","inputs":[{"name":"router_","type":"address","internalType":"address"}],"stateMutability":"nonpayable"},{"type":"function","name":"MAX_SUPPLY","inputs":[],"outputs":[{"name":"","type":"uint256","internalType":"uint256"}],"stateMutability":"view"},{"type":"function","name":"allowance","inputs":[{"name":"owner","type":"address","internalType":"address"},{"name":"spender","type":"address","internalType":"address"}],"outputs":[{"name":"","type":"uint256","internalType":"uint256"}],"stateMutability":"view"},{"type":"function","name":"approve","inputs":[{"name":"spender","type":"address","internalType":"address"},{"name":"value","type":"uint256","internalType":"uint256"}],"outputs":[{"name":"","type":"bool","internalType":"bool"}],"stateMutability":"nonpayable"},{"type":"function","name":"balanceOf","inputs":[{"name":"account","type":"address","internalType":"address"}],"outputs":[{"name":"","type":"uint256","internalType":"uint256"}],"stateMutability":"view"},{"type":"function","name":"decimals","inputs":[],"outputs":[{"name":"","type":"uint8","internalType":"uint8"}],"stateMutability":"view"},{"type":"function","name":"mint","inputs":[{"name":"to","type":"address","internalType":"address"},{"name":"amount","type":"uint256","internalType":"uint256"}],"outputs":[],"stateMutability":"nonpayable"},{"type":"function","name":"name","inputs":[],"outputs":[{"name":"","type":"string","internalType":"string"}],"stateMutability":"view"},{"type":"function","name":"router","inputs":[],"outputs":[{"name":"","type":"address","internalType":"address"}],"stateMutability":"view"},{"type":"function","name":"symbol","inputs":[],"outputs":[{"name":"","type":"string","internalType":"string"}],"stateMutability":"view"},{"type":"function","name":"totalSupply","inputs":[],"outputs":[{"name":"","type":"uint256","internalType":"uint256"}],"stateMutability":"view"},{"type":"function","name":"transfer","inputs":[{"name":"to","type":"address","internalType":"address"},{"name":"value","type":"uint256","internalType":"uint256"}],"outputs":[{"name":"","type":"bool","internalType":"bool"}],"stateMutability":"nonpayable"},{"type":"function","name":"transferFrom","inputs":[{"name":"from","type":"address","internalType":"address"},{"name":"to","type":"address","internalType":"address"},{"name":"value","type":"uint256","internalType":"uint256"}],"outputs":[{"name":"","type":"bool","internalType":"bool"}],"stateMutability":"nonpayable"},{"type":"event","name":"Approval","inputs":[{"name":"owner","type":"address","indexed":true,"internalType":"address"},{"name":"spender","type":"address","indexed":true,"internalType":"address"},{"name":"value","type":"uint256","indexed":false,"internalType":"uint256"}],"anonymous":false},{"type":"event","name":"Transfer","inputs":[{"name":"from","type":"address","indexed":true,"internalType":"address"},{"name":"to","type":"address","indexed":true,"internalType":"address"},{"name":"value","type":"uint256","indexed":false,"internalType":"uint256"}],"anonymous":false},{"type":"error","name":"ERC20InsufficientAllowance","inputs":[{"name":"spender","type":"address","internalType":"address"},{"name":"allowance","type":"uint256","internalType":"uint256"},{"name":"needed","type":"uint256","internalType":"uint256"}]},{"type":"error","name":"ERC20InsufficientBalance","inputs":[{"name":"sender","type":"address","internalType":"address"},{"name":"balance","type":"uint256","internalType":"uint256"},{"name":"needed","type":"uint256","internalType":"uint256"}]},{"type":"error","name":"ERC20InvalidApprover","inputs":[{"name":"approver","type":"address","internalType":"address"}]},{"type":"error","name":"ERC20InvalidReceiver","inputs":[{"name":"receiver","type":"address","internalType":"address"}]},{"type":"error","name":"ERC20InvalidSender","inputs":[{"name":"sender","type":"address","internalType":"address"}]},{"type":"error","name":"ERC20InvalidSpender","inputs":[{"name":"spender","type":"address","internalType":"address"}]},{"type":"error","name":"ExceedsMaxSupply","inputs":[]},{"type":"error","name":"OnlyRouter","inputs":[]}],"bytecode":{"object":"0x60a060405234801562000010575f80fd5b506040516200151138038062001511833981810160405281019062000036919062000168565b6040518060400160405280600581526020017f57415645530000000000000000000000000000000000000000000000000000008152506040518060400160405280600581526020017f57415645530000000000000000000000000000000000000000000000000000008152508160039081620000b39190620003fc565b508060049081620000c59190620003fc565b5050508073ffffffffffffffffffffffffffffffffffffffff1660808173ffffffffffffffffffffffffffffffffffffffff168152505050620004e0565b5f80fd5b5f73ffffffffffffffffffffffffffffffffffffffff82169050919050565b5f620001328262000107565b9050919050565b620001448162000126565b81146200014f575f80fd5b50565b5f81519050620001628162000139565b92915050565b5f6020828403121562000180576200017f62000103565b5b5f6200018f8482850162000152565b91505092915050565b5f81519050919050565b7f4e487b71000000000000000000000000000000000000000000000000000000005f52604160045260245ffd5b7f4e487b71000000000000000000000000000000000000000000000000000000005f52602260045260245ffd5b5f60028204905060018216806200021457607f821691505b6020821081036200022a5762000229620001cf565b5b50919050565b5f819050815f5260205f209050919050565b5f6020601f8301049050919050565b5f82821b905092915050565b5f600883026200028e7fffffffffffffffffffffffffffffffffffffffffffffffffffffffffffffffff8262000251565b6200029a868362000251565b95508019841693508086168417925050509392505050565b5f819050919050565b5f819050919050565b5f620002e4620002de620002d884620002b2565b620002bb565b620002b2565b9050919050565b5f819050919050565b620002ff83620002c4565b620003176200030e82620002eb565b8484546200025d565b825550505050565b5f90565b6200032d6200031f565b6200033a818484620002f4565b505050565b5b818110156200036157620003555f8262000323565b60018101905062000340565b5050565b601f821115620003b0576200037a8162000230565b620003858462000242565b8101602085101562000395578190505b620003ad620003a48562000242565b8301826200033f565b50505b505050565b5f82821c905092915050565b5f620003d25f1984600802620003b5565b1980831691505092915050565b5f620003ec8383620003c1565b9150826002028217905092915050565b620004078262000198565b67ffffffffffffffff811115620004235762000422620001a2565b5b6200042f8254620001fc565b6200043c82828562000365565b5f60209050601f83116001811462000472575f84156200045d578287015190505b620004698582620003df565b865550620004d8565b601f198416620004828662000230565b5f5b82811015620004ab5784890151825560018201915060208501945060208101905062000484565b86831015620004cb5784890151620004c7601f891682620003c1565b8355505b6001600288020188555050505b505050505050565b608051611011620005005f395f818161037801526105db01526110115ff3fe608060405234801561000f575f80fd5b50600436106100b2575f3560e01c806340c10f191161006f57806340c10f191461018e57806370a08231146101aa57806395d89b41146101da578063a9059cbb146101f8578063dd62ed3e14610228578063f887ea4014610258576100b2565b806306fdde03146100b6578063095ea7b3146100d457806318160ddd1461010457806323b872dd14610122578063313ce5671461015257806332cb6b0c14610170575b5f80fd5b6100be610276565b6040516100cb9190610c8a565b60405180910390f35b6100ee60048036038101906100e99190610d3b565b610306565b6040516100fb9190610d93565b60405180910390f35b61010c610328565b6040516101199190610dbb565b60405180910390f35b61013c60048036038101906101379190610dd4565b610331565b6040516101499190610d93565b60405180910390f35b61015a61035f565b6040516101679190610e3f565b60405180910390f35b610178610367565b6040516101859190610dbb565b60405180910390f35b6101a860048036038101906101a39190610d3b565b610376565b005b6101c460048036038101906101bf9190610e58565b610460565b6040516101d19190610dbb565b60405180910390f35b6101e26104a5565b6040516101ef9190610c8a565b60405180910390f35b610212600480360381019061020d9190610d3b565b610535565b60405161021f9190610d93565b60405180910390f35b610242600480360381019061023d9190610e83565b610557565b60405161024f9190610dbb565b60405180910390f35b6102606105d9565b60405161026d9190610ed0565b60405180910390f35b60606003805461028590610f16565b80601f01602080910402602001604051908101604052809291908181526020018280546102b190610f16565b80156102fc5780601f106102d3576101008083540402835291602001916102fc565b820191905f5260205f20905b8154815290600101906020018083116102df57829003601f168201915b5050505050905090565b5f806103106105fd565b905061031d818585610604565b600191505092915050565b5f600254905090565b5f8061033b6105fd565b9050610348858285610616565b6103538585856106a9565b60019150509392505050565b5f6012905090565b6a084595161401484a00000081565b7f000000000000000000000000000000000000000000000000000000000000000073ffffffffffffffffffffffffffffffffffffffff163373ffffffffffffffffffffffffffffffffffffffff16146103fb576040517f9e41bdd700000000000000000000000000000000000000000000000000000000815260040160405180910390fd5b6a084595161401484a00000081610410610328565b61041a9190610f73565b1115610452576040517fc30436e900000000000000000000000000000000000000000000000000000000815260040160405180910390fd5b61045c8282610799565b5050565b5f805f8373ffffffffffffffffffffffffffffffffffffffff1673ffffffffffffffffffffffffffffffffffffffff1681526020019081526020015f20549050919050565b6060600480546104b490610f16565b80601f01602080910402602001604051908101604052809291908181526020018280546104e090610f16565b801561052b5780601f106105025761010080835404028352916020019161052b565b820191905f5260205f20905b81548152906001019060200180831161050e57829003601f168201915b5050505050905090565b5f8061053f6105fd565b905061054c8185856106a9565b600191505092915050565b5f60015f8473ffffffffffffffffffffffffffffffffffffffff1673ffffffffffffffffffffffffffffffffffffffff1681526020019081526020015f205f8373ffffffffffffffffffffffffffffffffffffffff1673ffffffffffffffffffffffffffffffffffffffff1681526020019081526020015f2054905092915050565b7f000000000000000000000000000000000000000000000000000000000000000081565b5f33905090565b6106118383836001610818565b505050565b5f6106218484610557565b90507fffffffffffffffffffffffffffffffffffffffffffffffffffffffffffffffff8110156106a35781811015610694578281836040517ffb8f41b200000000000000000000000000000000000000000000000000000000815260040161068b93929190610fa6565b60405180910390fd5b6106a284848484035f610818565b5b50505050565b5f73ffffffffffffffffffffffffffffffffffffffff168373ffffffffffffffffffffffffffffffffffffffff1603610719575f6040517f96c6fd1e0000000000000000000000000000000000000000000000000000000081526004016107109190610ed0565b60405180910390fd5b5f73ffffffffffffffffffffffffffffffffffffffff168273ffffffffffffffffffffffffffffffffffffffff1603610789575f6040517fec442f050000000000000000000000000000000000000000000000000000000081526004016107809190610ed0565b60405180910390fd5b6107948383836109e7565b505050565b5f73ffffffffffffffffffffffffffffffffffffffff168273ffffffffffffffffffffffffffffffffffffffff1603610809575f6040517fec442f050000000000000000000000000000000000000000000000000000000081526004016108009190610ed0565b60405180910390fd5b6108145f83836109e7565b5050565b5f73ffffffffffffffffffffffffffffffffffffffff168473ffffffffffffffffffffffffffffffffffffffff1603610888575f6040517fe602df0500000000000000000000000000000000000000000000000000000000815260040161087f9190610ed0565b60405180910390fd5b5f73ffffffffffffffffffffffffffffffffffffffff168373ffffffffffffffffffffffffffffffffffffffff16036108f8575f6040517f94280d620000000000000000000000000000000000000000000000000000000081526004016108ef9190610ed0565b60405180910390fd5b8160015f8673ffffffffffffffffffffffffffffffffffffffff1673ffffffffffffffffffffffffffffffffffffffff1681526020019081526020015f205f8573ffffffffffffffffffffffffffffffffffffffff1673ffffffffffffffffffffffffffffffffffffffff1681526020019081526020015f208190555080156109e1578273ffffffffffffffffffffffffffffffffffffffff168473ffffffffffffffffffffffffffffffffffffffff167f8c5be1e5ebec7d5bd14f71427d1e84f3dd0314c0f7b2291e5b200ac8c7c3b925846040516109d89190610dbb565b60405180910390a35b50505050565b5f73ffffffffffffffffffffffffffffffffffffffff168373ffffffffffffffffffffffffffffffffffffffff1603610a37578060025f828254610a2b9190610f73565b92505081905550610b05565b5f805f8573ffffffffffffffffffffffffffffffffffffffff1673ffffffffffffffffffffffffffffffffffffffff1681526020019081526020015f2054905081811015610ac0578381836040517fe450d38c000000000000000000000000000000000000000000000000000000008152600401610ab793929190610fa6565b60405180910390fd5b8181035f808673ffffffffffffffffffffffffffffffffffffffff1673ffffffffffffffffffffffffffffffffffffffff1681526020019081526020015f2081905550505b5f73ffffffffffffffffffffffffffffffffffffffff168273ffffffffffffffffffffffffffffffffffffffff1603610b4c578060025f8282540392505081905550610b96565b805f808473ffffffffffffffffffffffffffffffffffffffff1673ffffffffffffffffffffffffffffffffffffffff1681526020019081526020015f205f82825401925050819055505b8173ffffffffffffffffffffffffffffffffffffffff168373ffffffffffffffffffffffffffffffffffffffff167fddf252ad1be2c89b69c2b068fc378daa952ba7f163c4a11628f55a4df523b3ef83604051610bf39190610dbb565b60405180910390a3505050565b5f81519050919050565b5f82825260208201905092915050565b5f5b83811015610c37578082015181840152602081019050610c1c565b5f8484015250505050565b5f601f19601f8301169050919050565b5f610c5c82610c00565b610c668185610c0a565b9350610c76818560208601610c1a565b610c7f81610c42565b840191505092915050565b5f6020820190508181035f830152610ca28184610c52565b905092915050565b5f80fd5b5f73ffffffffffffffffffffffffffffffffffffffff82169050919050565b5f610cd782610cae565b9050919050565b610ce781610ccd565b8114610cf1575f80fd5b50565b5f81359050610d0281610cde565b92915050565b5f819050919050565b610d1a81610d08565b8114610d24575f80fd5b50565b5f81359050610d3581610d11565b92915050565b5f8060408385031215610d5157610d50610caa565b5b5f610d5e85828601610cf4565b9250506020610d6f85828601610d27565b9150509250929050565b5f8115159050919050565b610d8d81610d79565b82525050565b5f602082019050610da65f830184610d84565b92915050565b610db581610d08565b82525050565b5f602082019050610dce5f830184610dac565b92915050565b5f805f60608486031215610deb57610dea610caa565b5b5f610df886828701610cf4565b9350506020610e0986828701610cf4565b9250506040610e1a86828701610d27565b9150509250925092565b5f60ff82169050919050565b610e3981610e24565b82525050565b5f602082019050610e525f830184610e30565b92915050565b5f60208284031215610e6d57610e6c610caa565b5b5f610e7a84828501610cf4565b91505092915050565b5f8060408385031215610e9957610e98610caa565b5b5f610ea685828601610cf4565b9250506020610eb785828601610cf4565b9150509250929050565b610eca81610ccd565b82525050565b5f602082019050610ee35f830184610ec1565b92915050565b7f4e487b71000000000000000000000000000000000000000000000000000000005f52602260045260245ffd5b5f6002820490506001821680610f2d57607f821691505b602082108103610f4057610f3f610ee9565b5b50919050565b7f4e487b71000000000000000000000000000000000000000000000000000000005f52601160045260245ffd5b5f610f7d82610d08565b9150610f8883610d08565b9250828201905080821115610fa057610f9f610f46565b5b92915050565b5f606082019050610fb95f830186610ec1565b610fc66020830185610dac565b610fd36040830184610dac565b94935050505056fea2646970667358221220bca0070af4753eeb7c86ae16a33c120cbc45eefd36d1e5654a19e2f0c093e91464736f6c63430008180033","linkReferences":{}},"methodIdentifiers":{"MAX_SUPPLY()":"32cb6b0c","allowance(address,address)":"dd62ed3e","approve(address,uint256)":"095ea7b3","balanceOf(address)":"70a08231","decimals()":"313ce567","mint(address,uint256)":"40c10f19","name()":"06fdde03","router()":"f887ea40","symbol()":"95d89b41","totalSupply()":"18160ddd","transfer(address,uint256)":"a9059cbb","transferFrom(address,address,uint256)":"23b872dd"},"id":48}