{"abi":[{"type":"constructor","inputs":[{"name":"name_","type":"string","internalType":"string"},{"name":"symbol_","type":"string","internalType":"string"},{"name":"bidNFT_","type":"address","internalType":"address"},{"name":"nftTokenId_","type":"uint256","internalType":"uint256"},{"name":"totalSupply_","type":"uint256","internalType":"uint256"},{"name":"mintTo_","type":"address","internalType":"address"},{"name":"initialTopHolder_","type":"address","internalType":"address"}],"stateMutability":"nonpayable"},{"type":"function","name":"allowance","inputs":[{"name":"owner","type":"address","internalType":"address"},{"name":"spender","type":"address","internalType":"address"}],"outputs":[{"name":"","type":"uint256","internalType":"uint256"}],"stateMutability":"view"},{"type":"function","name":"approve","inputs":[{"name":"spender","type":"address","internalType":"address"},{"name":"value","type":"uint256","internalType":"uint256"}],"outputs":[{"name":"","type":"bool","internalType":"bool"}],"stateMutability":"nonpayable"},{"type":"function","name":"balanceOf","inputs":[{"name":"account","type":"address","internalType":"address"}],"outputs":[{"name":"","type":"uint256","internalType":"uint256"}],"stateMutability":"view"},{"type":"function","name":"bidNFT","inputs":[],"outputs":[{"name":"","type":"address","internalType":"address"}],"stateMutability":"view"},{"type":"function","name":"decimals","inputs":[],"outputs":[{"name":"","type":"uint8","internalType":"uint8"}],"stateMutability":"view"},{"type":"function","name":"name","inputs":[],"outputs":[{"name":"","type":"string","internalType":"string"}],"stateMutability":"view"},{"type":"function","name":"nftTokenId","inputs":[],"outputs":[{"name":"","type":"uint256","internalType":"uint256"}],"stateMutability":"view"},{"type":"function","name":"symbol","inputs":[],"outputs":[{"name":"","type":"string","internalType":"string"}],"stateMutability":"view"},{"type":"function","name":"topHolder","inputs":[],"outputs":[{"name":"","type":"address","internalType":"address"}],"stateMutability":"view"},{"type":"function","name":"totalSupply","inputs":[],"outputs":[{"name":"","type":"uint256","internalType":"uint256"}],"stateMutability":"view"},{"type":"function","name":"transfer","inputs":[{"name":"to","type":"address","internalType":"address"},{"name":"value","type":"uint256","internalType":"uint256"}],"outputs":[{"name":"","type":"bool","internalType":"bool"}],"stateMutability":"nonpayable"},{"type":"function","name":"transferFrom","inputs":[{"name":"from","type":"address","internalType":"address"},{"name":"to","type":"address","internalType":"address"},{"name":"value","type":"uint256","internalType":"uint256"}],"outputs":[{"name":"","type":"bool","internalType":"bool"}],"stateMutability":"nonpayable"},{"type":"event","name":"Approval","inputs":[{"name":"owner","type":"address","indexed":true,"internalType":"address"},{"name":"spender","type":"address","indexed":true,"internalType":"address"},{"name":"value","type":"uint256","indexed":false,"internalType":"uint256"}],"anonymous":false},{"type":"event","name":"TopHolderChanged","inputs":[{"name":"previousHolder","type":"address","indexed":true,"internalType":"address"},{"name":"newHolder","type":"address","indexed":true,"internalType":"address"},{"name":"newBalance","type":"uint256","indexed":false,"internalType":"uint256"}],"anonymous":false},{"type":"event","name":"Transfer","inputs":[{"name":"from","type":"address","indexed":true,"internalType":"address"},{"name":"to","type":"address","indexed":true,"internalType":"address"},{"name":"value","type":"uint256","indexed":false,"internalType":"uint256"}],"anonymous":false},{"type":"error","name":"ERC20InsufficientAllowance","inputs":[{"name":"spender","type":"address","internalType":"address"},{"name":"allowance","type":"uint256","internalType":"uint256"},{"name":"needed","type":"uint256","internalType":"uint256"}]},{"type":"error","name":"ERC20InsufficientBalance","inputs":[{"name":"sender","type":"address","internalType":"address"},{"name":"balance","type":"uint256","internalType":"uint256"},{"name":"needed","type":"uint256","internalType":"uint256"}]},{"type":"error","name":"ERC20InvalidApprover","inputs":[{"name":"approver","type":"address","internalType":"address"}]},{"type":"error","name":"ERC20InvalidReceiver","inputs":[{"name":"receiver","type":"address","internalType":"address"}]},{"type":"error","name":"ERC20InvalidSender","inputs":[{"name":"sender","type":"address","internalType":"address"}]},{"type":"error","name":"ERC20InvalidSpender","inputs":[{"name":"spender","type":"address","internalType":"address"}]}],"bytecode":{"object":"0x60c060405234801562000010575f80fd5b5060405162001cd638038062001cd6833981810160405281019062000036919062000783565b8686816003908162000049919062000a9d565b5080600490816200005b919062000a9d565b5050508473ffffffffffffffffffffffffffffffffffffffff1660808173ffffffffffffffffffffffffffffffffffffffff16815250508360a081815250508060055f6101000a81548173ffffffffffffffffffffffffffffffffffffffff021916908373ffffffffffffffffffffffffffffffffffffffff160217905550620000ec8284620000f960201b60201c565b5050505050505062000c7b565b5f73ffffffffffffffffffffffffffffffffffffffff168273ffffffffffffffffffffffffffffffffffffffff16036200016c575f6040517fec442f0500000000000000000000000000000000000000000000000000000000815260040162000163919062000b92565b60405180910390fd5b6200017f5f83836200018360201b60201c565b5050565b62000196838383620002fc60201b60201c565b5f73ffffffffffffffffffffffffffffffffffffffff168273ffffffffffffffffffffffffffffffffffffffff16141580156200021357506200020060055f9054906101000a900473ffffffffffffffffffffffffffffffffffffffff166200052060201b60201c565b62000211836200052060201b60201c565b115b15620002f7575f60055f9054906101000a900473ffffffffffffffffffffffffffffffffffffffff1690508260055f6101000a81548173ffffffffffffffffffffffffffffffffffffffff021916908373ffffffffffffffffffffffffffffffffffffffff1602179055508273ffffffffffffffffffffffffffffffffffffffff168173ffffffffffffffffffffffffffffffffffffffff167f46af573caa777b5b7bf92f1bbcc083c6e5372a09255e48fde9ae0b52a1521d72620002de866200052060201b60201c565b604051620002ed919062000bbe565b60405180910390a3505b505050565b5f73ffffffffffffffffffffffffffffffffffffffff168373ffffffffffffffffffffffffffffffffffffffff160362000350578060025f82825462000343919062000c06565b9250508190555062000421565b5f805f8573ffffffffffffffffffffffffffffffffffffffff1673ffffffffffffffffffffffffffffffffffffffff1681526020019081526020015f2054905081811015620003dc578381836040517fe450d38c000000000000000000000000000000000000000000000000000000008152600401620003d39392919062000c40565b60405180910390fd5b8181035f808673ffffffffffffffffffffffffffffffffffffffff1673ffffffffffffffffffffffffffffffffffffffff1681526020019081526020015f2081905550505b5f73ffffffffffffffffffffffffffffffffffffffff168273ffffffffffffffffffffffffffffffffffffffff16036200046a578060025f8282540392505081905550620004b4565b805f808473ffffffffffffffffffffffffffffffffffffffff1673ffffffffffffffffffffffffffffffffffffffff1681526020019081526020015f205f82825401925050819055505b8173ffffffffffffffffffffffffffffffffffffffff168373ffffffffffffffffffffffffffffffffffffffff167fddf252ad1be2c89b69c2b068fc378daa952ba7f163c4a11628f55a4df523b3ef8360405162000513919062000bbe565b60405180910390a3505050565b5f805f8373ffffffffffffffffffffffffffffffffffffffff1673ffffffffffffffffffffffffffffffffffffffff1681526020019081526020015f20549050919050565b5f604051905090565b5f80fd5b5f80fd5b5f80fd5b5f80fd5b5f601f19601f8301169050919050565b7f4e487b71000000000000000000000000000000000000000000000000000000005f52604160045260245ffd5b620005c6826200057e565b810181811067ffffffffffffffff82111715620005e857620005e76200058e565b5b80604052505050565b5f620005fc62000565565b90506200060a8282620005bb565b919050565b5f67ffffffffffffffff8211156200062c576200062b6200058e565b5b62000637826200057e565b9050602081019050919050565b5f5b838110156200066357808201518184015260208101905062000646565b5f8484015250505050565b5f620006846200067e846200060f565b620005f1565b905082815260208101848484011115620006a357620006a26200057a565b5b620006b084828562000644565b509392505050565b5f82601f830112620006cf57620006ce62000576565b5b8151620006e18482602086016200066e565b91505092915050565b5f73ffffffffffffffffffffffffffffffffffffffff82169050919050565b5f6200071582620006ea565b9050919050565b620007278162000709565b811462000732575f80fd5b50565b5f8151905062000745816200071c565b92915050565b5f819050919050565b6200075f816200074b565b81146200076a575f80fd5b50565b5f815190506200077d8162000754565b92915050565b5f805f805f805f60e0888a031215620007a157620007a06200056e565b5b5f88015167ffffffffffffffff811115620007c157620007c062000572565b5b620007cf8a828b01620006b8565b975050602088015167ffffffffffffffff811115620007f357620007f262000572565b5b620008018a828b01620006b8565b9650506040620008148a828b0162000735565b9550506060620008278a828b016200076d565b94505060806200083a8a828b016200076d565b93505060a06200084d8a828b0162000735565b92505060c0620008608a828b0162000735565b91505092959891949750929550565b5f81519050919050565b7f4e487b71000000000000000000000000000000000000000000000000000000005f52602260045260245ffd5b5f6002820490506001821680620008be57607f821691505b602082108103620008d457620008d362000879565b5b50919050565b5f819050815f5260205f209050919050565b5f6020601f8301049050919050565b5f82821b905092915050565b5f60088302620009387fffffffffffffffffffffffffffffffffffffffffffffffffffffffffffffffff82620008fb565b620009448683620008fb565b95508019841693508086168417925050509392505050565b5f819050919050565b5f620009856200097f62000979846200074b565b6200095c565b6200074b565b9050919050565b5f819050919050565b620009a08362000965565b620009b8620009af826200098c565b84845462000907565b825550505050565b5f90565b620009ce620009c0565b620009db81848462000995565b505050565b5b8181101562000a0257620009f65f82620009c4565b600181019050620009e1565b5050565b601f82111562000a515762000a1b81620008da565b62000a2684620008ec565b8101602085101562000a36578190505b62000a4e62000a4585620008ec565b830182620009e0565b50505b505050565b5f82821c905092915050565b5f62000a735f198460080262000a56565b1980831691505092915050565b5f62000a8d838362000a62565b9150826002028217905092915050565b62000aa8826200086f565b67ffffffffffffffff81111562000ac45762000ac36200058e565b5b62000ad08254620008a6565b62000add82828562000a06565b5f60209050601f83116001811462000b13575f841562000afe578287015190505b62000b0a858262000a80565b86555062000b79565b601f19841662000b2386620008da565b5f5b8281101562000b4c5784890151825560018201915060208501945060208101905062000b25565b8683101562000b6c578489015162000b68601f89168262000a62565b8355505b6001600288020188555050505b505050505050565b62000b8c8162000709565b82525050565b5f60208201905062000ba75f83018462000b81565b92915050565b62000bb8816200074b565b82525050565b5f60208201905062000bd35f83018462000bad565b92915050565b7f4e487b71000000000000000000000000000000000000000000000000000000005f52601160045260245ffd5b5f62000c12826200074b565b915062000c1f836200074b565b925082820190508082111562000c3a5762000c3962000bd9565b5b92915050565b5f60608201905062000c555f83018662000b81565b62000c64602083018562000bad565b62000c73604083018462000bad565b949350505050565b60805160a05161103962000c9d5f395f6103b001525f61052d01526110395ff3fe608060405234801561000f575f80fd5b50600436106100b2575f3560e01c80637e8305741161006f5780637e830574146101a05780638001dd76146101be57806395d89b41146101dc578063a9059cbb146101fa578063dd62ed3e1461022a578063f83764d71461025a576100b2565b806306fdde03146100b6578063095ea7b3146100d457806318160ddd1461010457806323b872dd14610122578063313ce5671461015257806370a0823114610170575b5f80fd5b6100be610278565b6040516100cb9190610cb2565b60405180910390f35b6100ee60048036038101906100e99190610d63565b610308565b6040516100fb9190610dbb565b60405180910390f35b61010c61032a565b6040516101199190610de3565b60405180910390f35b61013c60048036038101906101379190610dfc565b610333565b6040516101499190610dbb565b60405180910390f35b61015a610361565b6040516101679190610e67565b60405180910390f35b61018a60048036038101906101859190610e80565b610369565b6040516101979190610de3565b60405180910390f35b6101a86103ae565b6040516101b59190610de3565b60405180910390f35b6101c66103d2565b6040516101d39190610eba565b60405180910390f35b6101e46103f7565b6040516101f19190610cb2565b60405180910390f35b610214600480360381019061020f9190610d63565b610487565b6040516102219190610dbb565b60405180910390f35b610244600480360381019061023f9190610ed3565b6104a9565b6040516102519190610de3565b60405180910390f35b61026261052b565b60405161026f9190610eba565b60405180910390f35b60606003805461028790610f3e565b80601f01602080910402602001604051908101604052809291908181526020018280546102b390610f3e565b80156102fe5780601f106102d5576101008083540402835291602001916102fe565b820191905f5260205f20905b8154815290600101906020018083116102e157829003601f168201915b5050505050905090565b5f8061031261054f565b905061031f818585610556565b600191505092915050565b5f600254905090565b5f8061033d61054f565b905061034a858285610568565b6103558585856105fb565b60019150509392505050565b5f6012905090565b5f805f8373ffffffffffffffffffffffffffffffffffffffff1673ffffffffffffffffffffffffffffffffffffffff1681526020019081526020015f20549050919050565b7f000000000000000000000000000000000000000000000000000000000000000081565b60055f9054906101000a900473ffffffffffffffffffffffffffffffffffffffff1681565b60606004805461040690610f3e565b80601f016020809104026020016040519081016040528092919081815260200182805461043290610f3e565b801561047d5780601f106104545761010080835404028352916020019161047d565b820191905f5260205f20905b81548152906001019060200180831161046057829003601f168201915b5050505050905090565b5f8061049161054f565b905061049e8185856105fb565b600191505092915050565b5f60015f8473ffffffffffffffffffffffffffffffffffffffff1673ffffffffffffffffffffffffffffffffffffffff1681526020019081526020015f205f8373ffffffffffffffffffffffffffffffffffffffff1673ffffffffffffffffffffffffffffffffffffffff1681526020019081526020015f2054905092915050565b7f000000000000000000000000000000000000000000000000000000000000000081565b5f33905090565b61056383838360016106eb565b505050565b5f61057384846104a9565b90507fffffffffffffffffffffffffffffffffffffffffffffffffffffffffffffffff8110156105f557818110156105e6578281836040517ffb8f41b20000000000000000000000000000000000000000000000000000000081526004016105dd93929190610f6e565b60405180910390fd5b6105f484848484035f6106eb565b5b50505050565b5f73ffffffffffffffffffffffffffffffffffffffff168373ffffffffffffffffffffffffffffffffffffffff160361066b575f6040517f96c6fd1e0000000000000000000000000000000000000000000000000000000081526004016106629190610eba565b60405180910390fd5b5f73ffffffffffffffffffffffffffffffffffffffff168273ffffffffffffffffffffffffffffffffffffffff16036106db575f6040517fec442f050000000000000000000000000000000000000000000000000000000081526004016106d29190610eba565b60405180910390fd5b6106e68383836108ba565b505050565b5f73ffffffffffffffffffffffffffffffffffffffff168473ffffffffffffffffffffffffffffffffffffffff160361075b575f6040517fe602df050000000000000000000000000000000000000000000000000000000081526004016107529190610eba565b60405180910390fd5b5f73ffffffffffffffffffffffffffffffffffffffff168373ffffffffffffffffffffffffffffffffffffffff16036107cb575f6040517f94280d620000000000000000000000000000000000000000000000000000000081526004016107c29190610eba565b60405180910390fd5b8160015f8673ffffffffffffffffffffffffffffffffffffffff1673ffffffffffffffffffffffffffffffffffffffff1681526020019081526020015f205f8573ffffffffffffffffffffffffffffffffffffffff1673ffffffffffffffffffffffffffffffffffffffff1681526020019081526020015f208190555080156108b4578273ffffffffffffffffffffffffffffffffffffffff168473ffffffffffffffffffffffffffffffffffffffff167f8c5be1e5ebec7d5bd14f71427d1e84f3dd0314c0f7b2291e5b200ac8c7c3b925846040516108ab9190610de3565b60405180910390a35b50505050565b6108c5838383610a0f565b5f73ffffffffffffffffffffffffffffffffffffffff168273ffffffffffffffffffffffffffffffffffffffff1614158015610931575061092660055f9054906101000a900473ffffffffffffffffffffffffffffffffffffffff16610369565b61092f83610369565b115b15610a0a575f60055f9054906101000a900473ffffffffffffffffffffffffffffffffffffffff1690508260055f6101000a81548173ffffffffffffffffffffffffffffffffffffffff021916908373ffffffffffffffffffffffffffffffffffffffff1602179055508273ffffffffffffffffffffffffffffffffffffffff168173ffffffffffffffffffffffffffffffffffffffff167f46af573caa777b5b7bf92f1bbcc083c6e5372a09255e48fde9ae0b52a1521d726109f386610369565b604051610a009190610de3565b60405180910390a3505b505050565b5f73ffffffffffffffffffffffffffffffffffffffff168373ffffffffffffffffffffffffffffffffffffffff1603610a5f578060025f828254610a539190610fd0565b92505081905550610b2d565b5f805f8573ffffffffffffffffffffffffffffffffffffffff1673ffffffffffffffffffffffffffffffffffffffff1681526020019081526020015f2054905081811015610ae8578381836040517fe450d38c000000000000000000000000000000000000000000000000000000008152600401610adf93929190610f6e565b60405180910390fd5b8181035f808673ffffffffffffffffffffffffffffffffffffffff1673ffffffffffffffffffffffffffffffffffffffff1681526020019081526020015f2081905550505b5f73ffffffffffffffffffffffffffffffffffffffff168273ffffffffffffffffffffffffffffffffffffffff1603610b74578060025f8282540392505081905550610bbe565b805f808473ffffffffffffffffffffffffffffffffffffffff1673ffffffffffffffffffffffffffffffffffffffff1681526020019081526020015f205f82825401925050819055505b8173ffffffffffffffffffffffffffffffffffffffff168373ffffffffffffffffffffffffffffffffffffffff167fddf252ad1be2c89b69c2b068fc378daa952ba7f163c4a11628f55a4df523b3ef83604051610c1b9190610de3565b60405180910390a3505050565b5f81519050919050565b5f82825260208201905092915050565b5f5b83811015610c5f578082015181840152602081019050610c44565b5f8484015250505050565b5f601f19601f8301169050919050565b5f610c8482610c28565b610c8e8185610c32565b9350610c9e818560208601610c42565b610ca781610c6a565b840191505092915050565b5f6020820190508181035f830152610cca8184610c7a565b905092915050565b5f80fd5b5f73ffffffffffffffffffffffffffffffffffffffff82169050919050565b5f610cff82610cd6565b9050919050565b610d0f81610cf5565b8114610d19575f80fd5b50565b5f81359050610d2a81610d06565b92915050565b5f819050919050565b610d4281610d30565b8114610d4c575f80fd5b50565b5f81359050610d5d81610d39565b92915050565b5f8060408385031215610d7957610d78610cd2565b5b5f610d8685828601610d1c565b9250506020610d9785828601610d4f565b9150509250929050565b5f8115159050919050565b610db581610da1565b82525050565b5f602082019050610dce5f830184610dac565b92915050565b610ddd81610d30565b82525050565b5f602082019050610df65f830184610dd4565b92915050565b5f805f60608486031215610e1357610e12610cd2565b5b5f610e2086828701610d1c565b9350506020610e3186828701610d1c565b9250506040610e4286828701610d4f565b9150509250925092565b5f60ff82169050919050565b610e6181610e4c565b82525050565b5f602082019050610e7a5f830184610e58565b92915050565b5f60208284031215610e9557610e94610cd2565b5b5f610ea284828501610d1c565b91505092915050565b610eb481610cf5565b82525050565b5f602082019050610ecd5f830184610eab565b92915050565b5f8060408385031215610ee957610ee8610cd2565b5b5f610ef685828601610d1c565b9250506020610f0785828601610d1c565b9150509250929050565b7f4e487b71000000000000000000000000000000000000000000000000000000005f52602260045260245ffd5b5f6002820490506001821680610f5557607f821691505b602082108103610f6857610f67610f11565b5b50919050565b5f606082019050610f815f830186610eab565b610f8e6020830185610dd4565b610f9b6040830184610dd4565b949350505050565b7f4e487b71000000000000000000000000000000000000000000000000000000005f52601160045260245ffd5b5f610fda82610d30565b9150610fe583610d30565b9250828201905080821115610ffd57610ffc610fa3565b5b9291505056fea2646970667358221220ad82ff4b8c4bce8a1f37e6526b79c3a2f8fed429b1814fd27768b3f26672d37264736f6c63430008180033","linkReferences":{}},"methodIdentifiers":{"allowance(address,address)":"dd62ed3e","approve(address,uint256)":"095ea7b3","balanceOf(address)":"70a08231","bidNFT()":"f83764d7","decimals()":"313ce567","name()":"06fdde03","nftTokenId()":"7e830574","symbol()":"95d89b41","topHolder()":"8001dd76","totalSupply()":"18160ddd","transfer(address,uint256)":"a9059cbb","transferFrom(address,address,uint256)":"23b872dd"},"id":39}