{"abi":[{"type":"constructor","inputs":[{"name":"waves_","type":"address","internalType":"address"},{"name":"bidNFT_","type":"address","internalType":"address"},{"name":"surfSwap_","type":"address","internalType":"address"},{"name":"whirlpool_","type":"address","internalType":"address"},{"name":"weth_","type":"address","internalType":"address"},{"name":"protocol_","type":"address","internalType":"address"}],"stateMutability":"nonpayable"},{"type":"function","name":"CARD_SUPPLY","inputs":[],"outputs":[{"name":"","type":"uint256","internalType":"uint256"}],"stateMutability":"view"},{"type":"function","name":"MAX_CARDS","inputs":[],"outputs":[{"name":"","type":"uint256","internalType":"uint256"}],"stateMutability":"view"},{"type":"function","name":"MINT_FEE","inputs":[],"outputs":[{"name":"","type":"uint256","internalType":"uint256"}],"stateMutability":"view"},{"type":"function","name":"WAVES_PER_CARD","inputs":[],"outputs":[{"name":"","type":"uint256","internalType":"uint256"}],"stateMutability":"view"},{"type":"function","name":"bidNFT","inputs":[],"outputs":[{"name":"","type":"address","internalType":"contract BidNFT"}],"stateMutability":"view"},{"type":"function","name":"cardToken","inputs":[{"name":"cardId","type":"uint256","internalType":"uint256"}],"outputs":[{"name":"","type":"address","internalType":"address"}],"stateMutability":"view"},{"type":"function","name":"cardTokens","inputs":[{"name":"","type":"uint256","internalType":"uint256"}],"outputs":[{"name":"","type":"address","internalType":"address"}],"stateMutability":"view"},{"type":"function","name":"createCard","inputs":[{"name":"name","type":"string","internalType":"string"},{"name":"symbol","type":"string","internalType":"string"},{"name":"tokenURI","type":"string","internalType":"string"}],"outputs":[{"name":"cardId","type":"uint256","internalType":"uint256"}],"stateMutability":"payable"},{"type":"function","name":"protocol","inputs":[],"outputs":[{"name":"","type":"address","internalType":"address"}],"stateMutability":"view"},{"type":"function","name":"surfSwap","inputs":[],"outputs":[{"name":"","type":"address","internalType":"contract ISurfSwap"}],"stateMutability":"view"},{"type":"function","name":"totalCards","inputs":[],"outputs":[{"name":"","type":"uint256","internalType":"uint256"}],"stateMutability":"view"},{"type":"function","name":"totalCards_","inputs":[],"outputs":[{"name":"","type":"uint256","internalType":"uint256"}],"stateMutability":"view"},{"type":"function","name":"waves","inputs":[],"outputs":[{"name":"","type":"address","internalType":"contract WAVES"}],"stateMutability":"view"},{"type":"function","name":"weth","inputs":[],"outputs":[{"name":"","type":"address","internalType":"address"}],"stateMutability":"view"},{"type":"function","name":"whirlpool","inputs":[],"outputs":[{"name":"","type":"address","internalType":"contract IWhirlpool"}],"stateMutability":"view"},{"type":"event","name":"CardCreated","inputs":[{"name":"cardId","type":"uint256","indexed":true,"internalType":"uint256"},{"name":"minter","type":"address","indexed":true,"internalType":"address"},{"name":"cardToken","type":"address","indexed":false,"internalType":"address"},{"name":"wavesSeeded","type":"uint256","indexed":false,"internalType":"uint256"}],"anonymous":false},{"type":"error","name":"ReentrancyGuardReentrantCall","inputs":[]},{"type":"error","name":"SafeERC20FailedOperation","inputs":[{"name":"token","type":"address","internalType":"address"}]}],"bytecode":{"object":"0x61014060405234801562000011575f80fd5b50604051620033203803806200332083398181016040528101906200003791906200023c565b6001620000596200004d620001a560201b60201c565b620001ce60201b60201c565b5f01819055508573ffffffffffffffffffffffffffffffffffffffff1660808173ffffffffffffffffffffffffffffffffffffffff16815250508473ffffffffffffffffffffffffffffffffffffffff1660a08173ffffffffffffffffffffffffffffffffffffffff16815250508373ffffffffffffffffffffffffffffffffffffffff1660c08173ffffffffffffffffffffffffffffffffffffffff16815250508273ffffffffffffffffffffffffffffffffffffffff1660e08173ffffffffffffffffffffffffffffffffffffffff16815250508173ffffffffffffffffffffffffffffffffffffffff166101008173ffffffffffffffffffffffffffffffffffffffff16815250508073ffffffffffffffffffffffffffffffffffffffff166101208173ffffffffffffffffffffffffffffffffffffffff1681525050505050505050620002d4565b5f7f9b779b17422d0df92223018b32b4d1fa46e071723d6817e2486d003becc55f005f1b905090565b5f819050919050565b5f80fd5b5f73ffffffffffffffffffffffffffffffffffffffff82169050919050565b5f6200020682620001db565b9050919050565b6200021881620001fa565b811462000223575f80fd5b50565b5f8151905062000236816200020d565b92915050565b5f805f805f8060c08789031215620002595762000258620001d7565b5b5f6200026889828a0162000226565b96505060206200027b89828a0162000226565b95505060406200028e89828a0162000226565b9450506060620002a189828a0162000226565b9350506080620002b489828a0162000226565b92505060a0620002c789828a0162000226565b9150509295509295509295565b60805160a05160c05160e0516101005161012051612fb0620003705f395f81816107c10152610d7201525f6103f801525f818161080a01528181610aa401528181610b2901528181610c450152610dd301525f818161041c015281816108d20152818161097301526109f801525f8181610bb70152610e0a01525f8181610624015281816106b0015281816108960152610d4e0152612fb05ff3fe608060405260043610620000fd575f3560e01c8063875d50121162000096578063cbe9e7b61162000060578063cbe9e7b61462000335578063d7bf81a31462000364578063e994c15d1462000393578063f83764d714620003c257620000fd565b8063875d501214620002655780638ce744261462000294578063bff15f0e14620002c3578063c4e2c058146200030657620000fd565b80634d9c194f11620000d85780634d9c194f146200018e5780636f4fa80114620001d15780637e744a761462000207578063811ad8f3146200023657620000fd565b80630630ee7414620001015780633fc8cef3146200013057806346aa2777146200015f575b5f80fd5b3480156200010d575f80fd5b5062000118620003f1565b60405162000127919062000fec565b60405180910390f35b3480156200013c575f80fd5b5062000147620003f6565b6040516200015691906200104a565b60405180910390f35b3480156200016b575f80fd5b50620001766200041a565b604051620001859190620010cc565b60405180910390f35b3480156200019a575f80fd5b50620001b96004803603810190620001b391906200111e565b6200043e565b604051620001c891906200104a565b60405180910390f35b620001ef6004803603810190620001e99190620011b8565b62000477565b604051620001fe919062000fec565b60405180910390f35b34801562000213575f80fd5b506200021e62000d37565b6040516200022d919062000fec565b60405180910390f35b34801562000242575f80fd5b506200024d62000d3d565b6040516200025c919062000fec565b60405180910390f35b34801562000271575f80fd5b506200027c62000d4c565b6040516200028b91906200129e565b60405180910390f35b348015620002a0575f80fd5b50620002ab62000d70565b604051620002ba91906200104a565b60405180910390f35b348015620002cf575f80fd5b50620002ee6004803603810190620002e891906200111e565b62000d94565b604051620002fd91906200104a565b60405180910390f35b34801562000312575f80fd5b506200031d62000dc4565b6040516200032c919062000fec565b60405180910390f35b34801562000341575f80fd5b506200034c62000dd1565b6040516200035b9190620012dd565b60405180910390f35b34801562000370575f80fd5b506200037b62000df5565b6040516200038a919062000fec565b60405180910390f35b3480156200039f575f80fd5b50620003aa62000e00565b604051620003b9919062000fec565b60405180910390f35b348015620003ce575f80fd5b50620003d962000e08565b604051620003e891906200131c565b60405180910390f35b5f5481565b7f000000000000000000000000000000000000000000000000000000000000000081565b7f000000000000000000000000000000000000000000000000000000000000000081565b5f60015f8381526020019081526020015f205f9054906101000a900473ffffffffffffffffffffffffffffffffffffffff169050919050565b5f6200048262000e2c565b66b1a2bc2ec500003414620004ce576040517f08c379a0000000000000000000000000000000000000000000000000000000008152600401620004c59062001395565b60405180910390fd5b6113885f541062000516576040517f08c379a00000000000000000000000000000000000000000000000000000000081526004016200050d9062001403565b60405180910390fd5b5f80815480929190620005299062001450565b9190505590505f87878787306a084595161401484a0000006040516200054f9062000fc4565b6200056096959493929190620014ec565b604051809103905ff0801580156200057a573d5f803e3d5ffd5b5090505f8190508060015f8581526020019081526020015f205f6101000a81548173ffffffffffffffffffffffffffffffffffffffff021916908373ffffffffffffffffffffffffffffffffffffffff1602179055505f60646019686c6b935b8bbd400000620005eb919062001549565b620005f79190620015c0565b90505f6064604b686c6b935b8bbd40000062000614919062001549565b620006209190620015c0565b90507f000000000000000000000000000000000000000000000000000000000000000073ffffffffffffffffffffffffffffffffffffffff166340c10f1930846040518363ffffffff1660e01b81526004016200067f929190620015f7565b5f604051808303815f87803b15801562000697575f80fd5b505af1158015620006aa573d5f803e3d5ffd5b505050507f000000000000000000000000000000000000000000000000000000000000000073ffffffffffffffffffffffffffffffffffffffff166340c10f1933836040518363ffffffff1660e01b81526004016200070b929190620015f7565b5f604051808303815f87803b15801562000723575f80fd5b505af115801562000736573d5f803e3d5ffd5b505050505f6064604b6a084595161401484a00000062000757919062001549565b620007639190620015c0565b90505f606460146a084595161401484a00000062000782919062001549565b6200078e9190620015c0565b90505f606460056a084595161401484a000000620007ad919062001549565b620007b99190620015c0565b9050620008087f0000000000000000000000000000000000000000000000000000000000000000828873ffffffffffffffffffffffffffffffffffffffff1662000e549092919063ffffffff16565b7f000000000000000000000000000000000000000000000000000000000000000073ffffffffffffffffffffffffffffffffffffffff16637ac064ea89886040518363ffffffff1660e01b81526004016200086592919062001622565b5f604051808303815f87803b1580156200087d575f80fd5b505af115801562000890573d5f803e3d5ffd5b505050507f000000000000000000000000000000000000000000000000000000000000000073ffffffffffffffffffffffffffffffffffffffff1663095ea7b37f0000000000000000000000000000000000000000000000000000000000000000876040518363ffffffff1660e01b815260040162000911929190620015f7565b6020604051808303815f875af11580156200092e573d5f803e3d5ffd5b505050506040513d601f19601f8201168201806040525081019062000954919062001687565b508573ffffffffffffffffffffffffffffffffffffffff1663095ea7b37f0000000000000000000000000000000000000000000000000000000000000000856040518363ffffffff1660e01b8152600401620009b2929190620015f7565b6020604051808303815f875af1158015620009cf573d5f803e3d5ffd5b505050506040513d601f19601f82011682018060405250810190620009f5919062001687565b507f000000000000000000000000000000000000000000000000000000000000000073ffffffffffffffffffffffffffffffffffffffff166387c9a44a898888876040518563ffffffff1660e01b815260040162000a579493929190620016b7565b5f604051808303815f87803b15801562000a6f575f80fd5b505af115801562000a82573d5f803e3d5ffd5b505050508573ffffffffffffffffffffffffffffffffffffffff1663095ea7b37f0000000000000000000000000000000000000000000000000000000000000000846040518363ffffffff1660e01b815260040162000ae3929190620015f7565b6020604051808303815f875af115801562000b00573d5f803e3d5ffd5b505050506040513d601f19601f8201168201806040525081019062000b26919062001687565b507f000000000000000000000000000000000000000000000000000000000000000073ffffffffffffffffffffffffffffffffffffffff1663168f803f8933856040518463ffffffff1660e01b815260040162000b869392919062001702565b5f604051808303815f87803b15801562000b9e575f80fd5b505af115801562000bb1573d5f803e3d5ffd5b505050507f000000000000000000000000000000000000000000000000000000000000000073ffffffffffffffffffffffffffffffffffffffff166377097fc8898c8c6040518463ffffffff1660e01b815260040162000c14939291906200173d565b5f604051808303815f87803b15801562000c2c575f80fd5b505af115801562000c3f573d5f803e3d5ffd5b505050507f000000000000000000000000000000000000000000000000000000000000000073ffffffffffffffffffffffffffffffffffffffff1663ce03468066b1a2bc2ec500006040518263ffffffff1660e01b81526004015f604051808303818588803b15801562000cb1575f80fd5b505af115801562000cc4573d5f803e3d5ffd5b50505050503373ffffffffffffffffffffffffffffffffffffffff16887f796eefe019c3e861e80fc5aba66c9d77a76e8d859c4ad320d17f7921daae3b64888860405162000d14929190620015f7565b60405180910390a35050505050505062000d2d62000eac565b9695505050505050565b61138881565b6a084595161401484a00000081565b7f000000000000000000000000000000000000000000000000000000000000000081565b7f000000000000000000000000000000000000000000000000000000000000000081565b6001602052805f5260405f205f915054906101000a900473ffffffffffffffffffffffffffffffffffffffff1681565b686c6b935b8bbd40000081565b7f000000000000000000000000000000000000000000000000000000000000000081565b66b1a2bc2ec5000081565b5f8054905090565b7f000000000000000000000000000000000000000000000000000000000000000081565b62000e3662000eca565b600262000e4c62000e4662000f0e565b62000f37565b5f0181905550565b62000e63838383600162000f40565b62000ea757826040517f5274afe700000000000000000000000000000000000000000000000000000000815260040162000e9e91906200104a565b60405180910390fd5b505050565b600162000ec262000ebc62000f0e565b62000f37565b5f0181905550565b62000ed462000fa4565b1562000f0c576040517f3ee5aeb500000000000000000000000000000000000000000000000000000000815260040160405180910390fd5b565b5f7f9b779b17422d0df92223018b32b4d1fa46e071723d6817e2486d003becc55f005f1b905090565b5f819050919050565b5f8063a9059cbb60e01b9050604051815f525f1960601c86166004528460245260205f60445f808b5af1925060015f5114831662000f9657838315161562000f8a573d5f823e3d81fd5b5f873b113d1516831692505b806040525050949350505050565b5f600262000fbb62000fb562000f0e565b62000f37565b5f015414905090565b611809806200177283390190565b5f819050919050565b62000fe68162000fd2565b82525050565b5f602082019050620010015f83018462000fdb565b92915050565b5f73ffffffffffffffffffffffffffffffffffffffff82169050919050565b5f620010328262001007565b9050919050565b620010448162001026565b82525050565b5f6020820190506200105f5f83018462001039565b92915050565b5f819050919050565b5f6200108e62001088620010828462001007565b62001065565b62001007565b9050919050565b5f620010a1826200106e565b9050919050565b5f620010b48262001095565b9050919050565b620010c681620010a8565b82525050565b5f602082019050620010e15f830184620010bb565b92915050565b5f80fd5b5f80fd5b620010fa8162000fd2565b811462001105575f80fd5b50565b5f813590506200111881620010ef565b92915050565b5f60208284031215620011365762001135620010e7565b5b5f620011458482850162001108565b91505092915050565b5f80fd5b5f80fd5b5f80fd5b5f8083601f8401126200117257620011716200114e565b5b8235905067ffffffffffffffff81111562001192576200119162001152565b5b602083019150836001820283011115620011b157620011b062001156565b5b9250929050565b5f805f805f8060608789031215620011d557620011d4620010e7565b5b5f87013567ffffffffffffffff811115620011f557620011f4620010eb565b5b6200120389828a016200115a565b9650965050602087013567ffffffffffffffff811115620012295762001228620010eb565b5b6200123789828a016200115a565b9450945050604087013567ffffffffffffffff8111156200125d576200125c620010eb565b5b6200126b89828a016200115a565b92509250509295509295509295565b5f620012868262001095565b9050919050565b62001298816200127a565b82525050565b5f602082019050620012b35f8301846200128d565b92915050565b5f620012c58262001095565b9050919050565b620012d781620012b9565b82525050565b5f602082019050620012f25f830184620012cc565b92915050565b5f620013048262001095565b9050919050565b6200131681620012f8565b82525050565b5f602082019050620013315f8301846200130b565b92915050565b5f82825260208201905092915050565b7f4578616374206d696e74206665652072657175697265640000000000000000005f82015250565b5f6200137d60178362001337565b91506200138a8262001347565b602082019050919050565b5f6020820190508181035f830152620013ae816200136f565b9050919050565b7f4d617820636172647320726561636865640000000000000000000000000000005f82015250565b5f620013eb60118362001337565b9150620013f882620013b5565b602082019050919050565b5f6020820190508181035f8301526200141c81620013dd565b9050919050565b7f4e487b71000000000000000000000000000000000000000000000000000000005f52601160045260245ffd5b5f6200145c8262000fd2565b91507fffffffffffffffffffffffffffffffffffffffffffffffffffffffffffffffff820362001491576200149062001423565b5b600182019050919050565b828183375f83830152505050565b5f601f19601f8301169050919050565b5f620014c7838562001337565b9350620014d68385846200149c565b620014e183620014aa565b840190509392505050565b5f6080820190508181035f8301526200150781888a620014ba565b905081810360208301526200151e818688620014ba565b90506200152f604083018562001039565b6200153e606083018462000fdb565b979650505050505050565b5f620015558262000fd2565b9150620015628362000fd2565b9250828202620015728162000fd2565b915082820484148315176200158c576200158b62001423565b5b5092915050565b7f4e487b71000000000000000000000000000000000000000000000000000000005f52601260045260245ffd5b5f620015cc8262000fd2565b9150620015d98362000fd2565b925082620015ec57620015eb62001593565b5b828204905092915050565b5f6040820190506200160c5f83018562001039565b6200161b602083018462000fdb565b9392505050565b5f604082019050620016375f83018562000fdb565b62001646602083018462001039565b9392505050565b5f8115159050919050565b62001663816200164d565b81146200166e575f80fd5b50565b5f81519050620016818162001658565b92915050565b5f602082840312156200169f576200169e620010e7565b5b5f620016ae8482850162001671565b91505092915050565b5f608082019050620016cc5f83018762000fdb565b620016db602083018662001039565b620016ea604083018562000fdb565b620016f9606083018462000fdb565b95945050505050565b5f606082019050620017175f83018662000fdb565b62001726602083018562001039565b62001735604083018462000fdb565b949350505050565b5f604082019050620017525f83018662000fdb565b818103602083015262001767818486620014ba565b905094935050505056fe608060405234801562000010575f80fd5b506040516200180938038062001809833981810160405281019062000036919062000546565b8383816003908162000049919062000821565b5080600490816200005b919062000821565b5050506200007082826200007a60201b60201c565b50505050620009ff565b5f73ffffffffffffffffffffffffffffffffffffffff168273ffffffffffffffffffffffffffffffffffffffff1603620000ed575f6040517fec442f05000000000000000000000000000000000000000000000000000000008152600401620000e4919062000916565b60405180910390fd5b620001005f83836200010460201b60201c565b5050565b5f73ffffffffffffffffffffffffffffffffffffffff168373ffffffffffffffffffffffffffffffffffffffff160362000158578060025f8282546200014b91906200095e565b9250508190555062000229565b5f805f8573ffffffffffffffffffffffffffffffffffffffff1673ffffffffffffffffffffffffffffffffffffffff1681526020019081526020015f2054905081811015620001e4578381836040517fe450d38c000000000000000000000000000000000000000000000000000000008152600401620001db93929190620009a9565b60405180910390fd5b8181035f808673ffffffffffffffffffffffffffffffffffffffff1673ffffffffffffffffffffffffffffffffffffffff1681526020019081526020015f2081905550505b5f73ffffffffffffffffffffffffffffffffffffffff168273ffffffffffffffffffffffffffffffffffffffff160362000272578060025f8282540392505081905550620002bc565b805f808473ffffffffffffffffffffffffffffffffffffffff1673ffffffffffffffffffffffffffffffffffffffff1681526020019081526020015f205f82825401925050819055505b8173ffffffffffffffffffffffffffffffffffffffff168373ffffffffffffffffffffffffffffffffffffffff167fddf252ad1be2c89b69c2b068fc378daa952ba7f163c4a11628f55a4df523b3ef836040516200031b9190620009e4565b60405180910390a3505050565b5f604051905090565b5f80fd5b5f80fd5b5f80fd5b5f80fd5b5f601f19601f8301169050919050565b7f4e487b71000000000000000000000000000000000000000000000000000000005f52604160045260245ffd5b620003898262000341565b810181811067ffffffffffffffff82111715620003ab57620003aa62000351565b5b80604052505050565b5f620003bf62000328565b9050620003cd82826200037e565b919050565b5f67ffffffffffffffff821115620003ef57620003ee62000351565b5b620003fa8262000341565b9050602081019050919050565b5f5b838110156200042657808201518184015260208101905062000409565b5f8484015250505050565b5f620004476200044184620003d2565b620003b4565b9050828152602081018484840111156200046657620004656200033d565b5b6200047384828562000407565b509392505050565b5f82601f83011262000492576200049162000339565b5b8151620004a484826020860162000431565b91505092915050565b5f73ffffffffffffffffffffffffffffffffffffffff82169050919050565b5f620004d882620004ad565b9050919050565b620004ea81620004cc565b8114620004f5575f80fd5b50565b5f815190506200050881620004df565b92915050565b5f819050919050565b62000522816200050e565b81146200052d575f80fd5b50565b5f81519050620005408162000517565b92915050565b5f805f806080858703121562000561576200056062000331565b5b5f85015167ffffffffffffffff81111562000581576200058062000335565b5b6200058f878288016200047b565b945050602085015167ffffffffffffffff811115620005b357620005b262000335565b5b620005c1878288016200047b565b9350506040620005d487828801620004f8565b9250506060620005e78782880162000530565b91505092959194509250565b5f81519050919050565b7f4e487b71000000000000000000000000000000000000000000000000000000005f52602260045260245ffd5b5f60028204905060018216806200064257607f821691505b602082108103620006585762000657620005fd565b5b50919050565b5f819050815f5260205f209050919050565b5f6020601f8301049050919050565b5f82821b905092915050565b5f60088302620006bc7fffffffffffffffffffffffffffffffffffffffffffffffffffffffffffffffff826200067f565b620006c886836200067f565b95508019841693508086168417925050509392505050565b5f819050919050565b5f6200070962000703620006fd846200050e565b620006e0565b6200050e565b9050919050565b5f819050919050565b6200072483620006e9565b6200073c620007338262000710565b8484546200068b565b825550505050565b5f90565b6200075262000744565b6200075f81848462000719565b505050565b5b8181101562000786576200077a5f8262000748565b60018101905062000765565b5050565b601f821115620007d5576200079f816200065e565b620007aa8462000670565b81016020851015620007ba578190505b620007d2620007c98562000670565b83018262000764565b50505b505050565b5f82821c905092915050565b5f620007f75f1984600802620007da565b1980831691505092915050565b5f620008118383620007e6565b9150826002028217905092915050565b6200082c82620005f3565b67ffffffffffffffff81111562000848576200084762000351565b5b6200085482546200062a565b620008618282856200078a565b5f60209050601f83116001811462000897575f841562000882578287015190505b6200088e858262000804565b865550620008fd565b601f198416620008a7866200065e565b5f5b82811015620008d057848901518255600182019150602085019450602081019050620008a9565b86831015620008f05784890151620008ec601f891682620007e6565b8355505b6001600288020188555050505b505050505050565b6200091081620004cc565b82525050565b5f6020820190506200092b5f83018462000905565b92915050565b7f4e487b71000000000000000000000000000000000000000000000000000000005f52601160045260245ffd5b5f6200096a826200050e565b915062000977836200050e565b925082820190508082111562000992576200099162000931565b5b92915050565b620009a3816200050e565b82525050565b5f606082019050620009be5f83018662000905565b620009cd602083018562000998565b620009dc604083018462000998565b949350505050565b5f602082019050620009f95f83018462000998565b92915050565b610dfc8062000a0d5f395ff3fe608060405234801561000f575f80fd5b5060043610610091575f3560e01c8063313ce56711610064578063313ce5671461013157806370a082311461014f57806395d89b411461017f578063a9059cbb1461019d578063dd62ed3e146101cd57610091565b806306fdde0314610095578063095ea7b3146100b357806318160ddd146100e357806323b872dd14610101575b5f80fd5b61009d6101fd565b6040516100aa9190610a75565b60405180910390f35b6100cd60048036038101906100c89190610b26565b61028d565b6040516100da9190610b7e565b60405180910390f35b6100eb6102af565b6040516100f89190610ba6565b60405180910390f35b61011b60048036038101906101169190610bbf565b6102b8565b6040516101289190610b7e565b60405180910390f35b6101396102e6565b6040516101469190610c2a565b60405180910390f35b61016960048036038101906101649190610c43565b6102ee565b6040516101769190610ba6565b60405180910390f35b610187610333565b6040516101949190610a75565b60405180910390f35b6101b760048036038101906101b29190610b26565b6103c3565b6040516101c49190610b7e565b60405180910390f35b6101e760048036038101906101e29190610c6e565b6103e5565b6040516101f49190610ba6565b60405180910390f35b60606003805461020c90610cd9565b80601f016020809104026020016040519081016040528092919081815260200182805461023890610cd9565b80156102835780601f1061025a57610100808354040283529160200191610283565b820191905f5260205f20905b81548152906001019060200180831161026657829003601f168201915b5050505050905090565b5f80610297610467565b90506102a481858561046e565b600191505092915050565b5f600254905090565b5f806102c2610467565b90506102cf858285610480565b6102da858585610513565b60019150509392505050565b5f6012905090565b5f805f8373ffffffffffffffffffffffffffffffffffffffff1673ffffffffffffffffffffffffffffffffffffffff1681526020019081526020015f20549050919050565b60606004805461034290610cd9565b80601f016020809104026020016040519081016040528092919081815260200182805461036e90610cd9565b80156103b95780601f10610390576101008083540402835291602001916103b9565b820191905f5260205f20905b81548152906001019060200180831161039c57829003601f168201915b5050505050905090565b5f806103cd610467565b90506103da818585610513565b600191505092915050565b5f60015f8473ffffffffffffffffffffffffffffffffffffffff1673ffffffffffffffffffffffffffffffffffffffff1681526020019081526020015f205f8373ffffffffffffffffffffffffffffffffffffffff1673ffffffffffffffffffffffffffffffffffffffff1681526020019081526020015f2054905092915050565b5f33905090565b61047b8383836001610603565b505050565b5f61048b84846103e5565b90507fffffffffffffffffffffffffffffffffffffffffffffffffffffffffffffffff81101561050d57818110156104fe578281836040517ffb8f41b20000000000000000000000000000000000000000000000000000000081526004016104f593929190610d18565b60405180910390fd5b61050c84848484035f610603565b5b50505050565b5f73ffffffffffffffffffffffffffffffffffffffff168373ffffffffffffffffffffffffffffffffffffffff1603610583575f6040517f96c6fd1e00000000000000000000000000000000000000000000000000000000815260040161057a9190610d4d565b60405180910390fd5b5f73ffffffffffffffffffffffffffffffffffffffff168273ffffffffffffffffffffffffffffffffffffffff16036105f3575f6040517fec442f050000000000000000000000000000000000000000000000000000000081526004016105ea9190610d4d565b60405180910390fd5b6105fe8383836107d2565b505050565b5f73ffffffffffffffffffffffffffffffffffffffff168473ffffffffffffffffffffffffffffffffffffffff1603610673575f6040517fe602df0500000000000000000000000000000000000000000000000000000000815260040161066a9190610d4d565b60405180910390fd5b5f73ffffffffffffffffffffffffffffffffffffffff168373ffffffffffffffffffffffffffffffffffffffff16036106e3575f6040517f94280d620000000000000000000000000000000000000000000000000000000081526004016106da9190610d4d565b60405180910390fd5b8160015f8673ffffffffffffffffffffffffffffffffffffffff1673ffffffffffffffffffffffffffffffffffffffff1681526020019081526020015f205f8573ffffffffffffffffffffffffffffffffffffffff1673ffffffffffffffffffffffffffffffffffffffff1681526020019081526020015f208190555080156107cc578273ffffffffffffffffffffffffffffffffffffffff168473ffffffffffffffffffffffffffffffffffffffff167f8c5be1e5ebec7d5bd14f71427d1e84f3dd0314c0f7b2291e5b200ac8c7c3b925846040516107c39190610ba6565b60405180910390a35b50505050565b5f73ffffffffffffffffffffffffffffffffffffffff168373ffffffffffffffffffffffffffffffffffffffff1603610822578060025f8282546108169190610d93565b925050819055506108f0565b5f805f8573ffffffffffffffffffffffffffffffffffffffff1673ffffffffffffffffffffffffffffffffffffffff1681526020019081526020015f20549050818110156108ab578381836040517fe450d38c0000000000000000000000000000000000000000000000000000000081526004016108a293929190610d18565b60405180910390fd5b8181035f808673ffffffffffffffffffffffffffffffffffffffff1673ffffffffffffffffffffffffffffffffffffffff1681526020019081526020015f2081905550505b5f73ffffffffffffffffffffffffffffffffffffffff168273ffffffffffffffffffffffffffffffffffffffff1603610937578060025f8282540392505081905550610981565b805f808473ffffffffffffffffffffffffffffffffffffffff1673ffffffffffffffffffffffffffffffffffffffff1681526020019081526020015f205f82825401925050819055505b8173ffffffffffffffffffffffffffffffffffffffff168373ffffffffffffffffffffffffffffffffffffffff167fddf252ad1be2c89b69c2b068fc378daa952ba7f163c4a11628f55a4df523b3ef836040516109de9190610ba6565b60405180910390a3505050565b5f81519050919050565b5f82825260208201905092915050565b5f5b83811015610a22578082015181840152602081019050610a07565b5f8484015250505050565b5f601f19601f8301169050919050565b5f610a47826109eb565b610a5181856109f5565b9350610a61818560208601610a05565b610a6a81610a2d565b840191505092915050565b5f6020820190508181035f830152610a8d8184610a3d565b905092915050565b5f80fd5b5f73ffffffffffffffffffffffffffffffffffffffff82169050919050565b5f610ac282610a99565b9050919050565b610ad281610ab8565b8114610adc575f80fd5b50565b5f81359050610aed81610ac9565b92915050565b5f819050919050565b610b0581610af3565b8114610b0f575f80fd5b50565b5f81359050610b2081610afc565b92915050565b5f8060408385031215610b3c57610b3b610a95565b5b5f610b4985828601610adf565b9250506020610b5a85828601610b12565b9150509250929050565b5f8115159050919050565b610b7881610b64565b82525050565b5f602082019050610b915f830184610b6f565b92915050565b610ba081610af3565b82525050565b5f602082019050610bb95f830184610b97565b92915050565b5f805f60608486031215610bd657610bd5610a95565b5b5f610be386828701610adf565b9350506020610bf486828701610adf565b9250506040610c0586828701610b12565b9150509250925092565b5f60ff82169050919050565b610c2481610c0f565b82525050565b5f602082019050610c3d5f830184610c1b565b92915050565b5f60208284031215610c5857610c57610a95565b5b5f610c6584828501610adf565b91505092915050565b5f8060408385031215610c8457610c83610a95565b5b5f610c9185828601610adf565b9250506020610ca285828601610adf565b9150509250929050565b7f4e487b71000000000000000000000000000000000000000000000000000000005f52602260045260245ffd5b5f6002820490506001821680610cf057607f821691505b602082108103610d0357610d02610cac565b5b50919050565b610d1281610ab8565b82525050565b5f606082019050610d2b5f830186610d09565b610d386020830185610b97565b610d456040830184610b97565b949350505050565b5f602082019050610d605f830184610d09565b92915050565b7f4e487b71000000000000000000000000000000000000000000000000000000005f52601160045260245ffd5b5f610d9d82610af3565b9150610da883610af3565b9250828201905080821115610dc057610dbf610d66565b5b9291505056fea264697066735822122030dafd78eff8672a3c12bc86bf32960bc0d87711845e3d000814f236b3de015364736f6c63430008180033a2646970667358221220f0abec5264a376e45945f99423c25631e8b67211dd6d85ef6a13eb16966365b164736f6c63430008180033","linkReferences":{}},"methodIdentifiers":{"CARD_SUPPLY()":"811ad8f3","MAX_CARDS()":"7e744a76","MINT_FEE()":"d7bf81a3","WAVES_PER_CARD()":"c4e2c058","bidNFT()":"f83764d7","cardToken(uint256)":"4d9c194f","cardTokens(uint256)":"bff15f0e","createCard(string,string,string)":"6f4fa801","protocol()":"8ce74426","surfSwap()":"46aa2777","totalCards()":"e994c15d","totalCards_()":"0630ee74","waves()":"875d5012","weth()":"3fc8cef3","whirlpool()":"cbe9e7b6"},"id":50}