{"abi":[{"type":"constructor","inputs":[{"name":"waves_","type":"address","internalType":"address"},{"name":"weth_","type":"address","internalType":"address"},{"name":"whirlpool_","type":"address","internalType":"address"},{"name":"router_","type":"address","internalType":"address"}],"stateMutability":"nonpayable"},{"type":"function","name":"SWAP_FEE_BPS","inputs":[],"outputs":[{"name":"","type":"uint256","internalType":"uint256"}],"stateMutability":"view"},{"type":"function","name":"addToCardReserve","inputs":[{"name":"cardId","type":"uint256","internalType":"uint256"},{"name":"amount","type":"uint256","internalType":"uint256"}],"outputs":[],"stateMutability":"nonpayable"},{"type":"function","name":"addToWethReserve","inputs":[{"name":"amount","type":"uint256","internalType":"uint256"}],"outputs":[],"stateMutability":"nonpayable"},{"type":"function","name":"cards","inputs":[{"name":"","type":"uint256","internalType":"uint256"}],"outputs":[{"name":"token","type":"address","internalType":"address"},{"name":"wavesReserve","type":"uint256","internalType":"uint256"},{"name":"cardReserve","type":"uint256","internalType":"uint256"}],"stateMutability":"view"},{"type":"function","name":"getPrice","inputs":[{"name":"cardId","type":"uint256","internalType":"uint256"}],"outputs":[{"name":"","type":"uint256","internalType":"uint256"}],"stateMutability":"view"},{"type":"function","name":"getReserves","inputs":[{"name":"cardId","type":"uint256","internalType":"uint256"}],"outputs":[{"name":"wavesR","type":"uint256","internalType":"uint256"},{"name":"cardsR","type":"uint256","internalType":"uint256"}],"stateMutability":"view"},{"type":"function","name":"getWethReserves","inputs":[],"outputs":[{"name":"wavesR","type":"uint256","internalType":"uint256"},{"name":"wethR","type":"uint256","internalType":"uint256"}],"stateMutability":"view"},{"type":"function","name":"initializePool","inputs":[{"name":"cardId","type":"uint256","internalType":"uint256"},{"name":"token","type":"address","internalType":"address"},{"name":"wavesAmount","type":"uint256","internalType":"uint256"},{"name":"cardAmount","type":"uint256","internalType":"uint256"}],"outputs":[],"stateMutability":"nonpayable"},{"type":"function","name":"isCardToken","inputs":[{"name":"","type":"address","internalType":"address"}],"outputs":[{"name":"","type":"bool","internalType":"bool"}],"stateMutability":"view"},{"type":"function","name":"removeFromCardReserve","inputs":[{"name":"cardId","type":"uint256","internalType":"uint256"},{"name":"amount","type":"uint256","internalType":"uint256"}],"outputs":[],"stateMutability":"nonpayable"},{"type":"function","name":"removeFromWethReserve","inputs":[{"name":"amount","type":"uint256","internalType":"uint256"}],"outputs":[],"stateMutability":"nonpayable"},{"type":"function","name":"router","inputs":[],"outputs":[{"name":"","type":"address","internalType":"address"}],"stateMutability":"view"},{"type":"function","name":"swapExact","inputs":[{"name":"tokenIn","type":"address","internalType":"address"},{"name":"tokenOut","type":"address","internalType":"address"},{"name":"amountIn","type":"uint256","internalType":"uint256"},{"name":"minAmountOut","type":"uint256","internalType":"uint256"}],"outputs":[{"name":"amountOut","type":"uint256","internalType":"uint256"}],"stateMutability":"nonpayable"},{"type":"function","name":"tokenToCard","inputs":[{"name":"","type":"address","internalType":"address"}],"outputs":[{"name":"","type":"uint256","internalType":"uint256"}],"stateMutability":"view"},{"type":"function","name":"waves","inputs":[],"outputs":[{"name":"","type":"address","internalType":"address"}],"stateMutability":"view"},{"type":"function","name":"wavesWethReserve","inputs":[],"outputs":[{"name":"","type":"uint256","internalType":"uint256"}],"stateMutability":"view"},{"type":"function","name":"weth","inputs":[],"outputs":[{"name":"","type":"address","internalType":"address"}],"stateMutability":"view"},{"type":"function","name":"wethReserve","inputs":[],"outputs":[{"name":"","type":"uint256","internalType":"uint256"}],"stateMutability":"view"},{"type":"function","name":"whirlpool","inputs":[],"outputs":[{"name":"","type":"address","internalType":"address"}],"stateMutability":"view"},{"type":"event","name":"PoolInitialized","inputs":[{"name":"cardId","type":"uint256","indexed":true,"internalType":"uint256"},{"name":"token","type":"address","indexed":true,"internalType":"address"},{"name":"wavesAmount","type":"uint256","indexed":false,"internalType":"uint256"},{"name":"cardAmount","type":"uint256","indexed":false,"internalType":"uint256"}],"anonymous":false},{"type":"event","name":"Swap","inputs":[{"name":"tokenIn","type":"address","indexed":true,"internalType":"address"},{"name":"tokenOut","type":"address","indexed":true,"internalType":"address"},{"name":"user","type":"address","indexed":true,"internalType":"address"},{"name":"amountIn","type":"uint256","indexed":false,"internalType":"uint256"},{"name":"amountOut","type":"uint256","indexed":false,"internalType":"uint256"}],"anonymous":false},{"type":"error","name":"ReentrancyGuardReentrantCall","inputs":[]},{"type":"error","name":"SafeERC20FailedOperation","inputs":[{"name":"token","type":"address","internalType":"address"}]}],"bytecode":{"object":"0x61010060405234801562000011575f80fd5b50604051620029b5380380620029b58339818101604052810190620000379190620001d0565b6001620000596200004d6200013960201b60201c565b6200016260201b60201c565b5f01819055508373ffffffffffffffffffffffffffffffffffffffff1660808173ffffffffffffffffffffffffffffffffffffffff16815250508273ffffffffffffffffffffffffffffffffffffffff1660a08173ffffffffffffffffffffffffffffffffffffffff16815250508173ffffffffffffffffffffffffffffffffffffffff1660c08173ffffffffffffffffffffffffffffffffffffffff16815250508073ffffffffffffffffffffffffffffffffffffffff1660e08173ffffffffffffffffffffffffffffffffffffffff1681525050505050506200023f565b5f7f9b779b17422d0df92223018b32b4d1fa46e071723d6817e2486d003becc55f005f1b905090565b5f819050919050565b5f80fd5b5f73ffffffffffffffffffffffffffffffffffffffff82169050919050565b5f6200019a826200016f565b9050919050565b620001ac816200018e565b8114620001b7575f80fd5b50565b5f81519050620001ca81620001a1565b92915050565b5f805f8060808587031215620001eb57620001ea6200016b565b5b5f620001fa87828801620001ba565b94505060206200020d87828801620001ba565b93505060406200022087828801620001ba565b92505060606200023387828801620001ba565b91505092959194509250565b60805160a05160c05160e05161268c620003295f395f818161059a01526113cf01525f81816104210152818161095701528181611175015281816111f1015281816112c801528181611593015281816115fb01528181611783015281816117eb0152818161199901528181611a0101528181611b750152611bdd01525f81816103fd01528181610c6a01528181610d7b01528181610ef10152610f6401525f8181610576015281816106cd01528181610b4d01528181610bb301528181610cc001528181610d25015281816115b5015281816117a5015281816119bb0152611b97015261268c5ff3fe608060405234801561000f575f80fd5b506004361061011f575f3560e01c80638ea7495c116100ab578063e75722301161006f578063e75722301461031f578063ee81eb191461034f578063f2e35fdf1461036b578063f661e61014610389578063f887ea40146103a55761011f565b80638ea7495c14610265578063a17231d514610296578063a2021833146102b2578063b3bf4102146102e2578063cbe9e7b6146103015761011f565b806348d007c1116100f257806348d007c1146101bf57806367a6c440146101db578063875d5012146101f957806387c9a44a146102175780638dc10768146102335761011f565b806303b1d2a014610123578063155b20dd146101535780631b6ff5d1146101715780633fc8cef3146101a1575b5f80fd5b61013d60048036038101906101389190611e97565b6103c3565b60405161014a9190611eda565b60405180910390f35b61015b6103d8565b6040516101689190611eda565b60405180910390f35b61018b60048036038101906101869190611e97565b6103de565b6040516101989190611f0d565b60405180910390f35b6101a96103fb565b6040516101b69190611f35565b60405180910390f35b6101d960048036038101906101d49190611f78565b61041f565b005b6101e361056f565b6040516101f09190611eda565b60405180910390f35b610201610574565b60405161020e9190611f35565b60405180910390f35b610231600480360381019061022c9190611fb6565b610598565b005b61024d6004803603810190610248919061201a565b6108e8565b60405161025c93929190612045565b60405180910390f35b61027f600480360381019061027a919061201a565b61092c565b60405161028d92919061207a565b60405180910390f35b6102b060048036038101906102ab919061201a565b610955565b005b6102cc60048036038101906102c791906120a1565b610a14565b6040516102d99190611eda565b60405180910390f35b6102ea611163565b6040516102f892919061207a565b60405180910390f35b610309611173565b6040516103169190611f35565b60405180910390f35b6103396004803603810190610334919061201a565b611197565b6040516103469190611eda565b60405180910390f35b6103696004803603810190610364919061201a565b6111ef565b005b6103736112c0565b6040516103809190611eda565b60405180910390f35b6103a3600480360381019061039e9190611f78565b6112c6565b005b6103ad6113cd565b6040516103ba9190611f35565b60405180910390f35b6001602052805f5260405f205f915090505481565b60045481565b6002602052805f5260405f205f915054906101000a900460ff1681565b7f000000000000000000000000000000000000000000000000000000000000000081565b7f000000000000000000000000000000000000000000000000000000000000000073ffffffffffffffffffffffffffffffffffffffff163373ffffffffffffffffffffffffffffffffffffffff16146104ad576040517f08c379a00000000000000000000000000000000000000000000000000000000081526004016104a49061215f565b60405180910390fd5b5f805f8481526020019081526020015f2090505f73ffffffffffffffffffffffffffffffffffffffff16815f015f9054906101000a900473ffffffffffffffffffffffffffffffffffffffff1673ffffffffffffffffffffffffffffffffffffffff1603610550576040517f08c379a0000000000000000000000000000000000000000000000000000000008152600401610547906121c7565b60405180910390fd5b81816002015f8282546105639190612212565b92505081905550505050565b601e81565b7f000000000000000000000000000000000000000000000000000000000000000081565b7f000000000000000000000000000000000000000000000000000000000000000073ffffffffffffffffffffffffffffffffffffffff163373ffffffffffffffffffffffffffffffffffffffff1614610626576040517f08c379a000000000000000000000000000000000000000000000000000000000815260040161061d9061228f565b60405180910390fd5b5f73ffffffffffffffffffffffffffffffffffffffff165f808681526020019081526020015f205f015f9054906101000a900473ffffffffffffffffffffffffffffffffffffffff1673ffffffffffffffffffffffffffffffffffffffff16146106c5576040517f08c379a00000000000000000000000000000000000000000000000000000000081526004016106bc906122f7565b60405180910390fd5b6107123330847f000000000000000000000000000000000000000000000000000000000000000073ffffffffffffffffffffffffffffffffffffffff166113f1909392919063ffffffff16565b61073f3330838673ffffffffffffffffffffffffffffffffffffffff166113f1909392919063ffffffff16565b60405180606001604052808473ffffffffffffffffffffffffffffffffffffffff168152602001838152602001828152505f808681526020019081526020015f205f820151815f015f6101000a81548173ffffffffffffffffffffffffffffffffffffffff021916908373ffffffffffffffffffffffffffffffffffffffff16021790555060208201518160010155604082015181600201559050508360015f8573ffffffffffffffffffffffffffffffffffffffff1673ffffffffffffffffffffffffffffffffffffffff1681526020019081526020015f2081905550600160025f8573ffffffffffffffffffffffffffffffffffffffff1673ffffffffffffffffffffffffffffffffffffffff1681526020019081526020015f205f6101000a81548160ff0219169083151502179055505f60035414801561088457505f600454115b1561089157816003819055505b8273ffffffffffffffffffffffffffffffffffffffff16847f2b858f0834b401fd0847f8890ad1ded4e971e29df900a8770e70332f688e150c84846040516108da92919061207a565b60405180910390a350505050565b5f602052805f5260405f205f91509050805f015f9054906101000a900473ffffffffffffffffffffffffffffffffffffffff16908060010154908060020154905083565b5f805f805f8581526020019081526020015f209050806001015481600201549250925050915091565b7f000000000000000000000000000000000000000000000000000000000000000073ffffffffffffffffffffffffffffffffffffffff163373ffffffffffffffffffffffffffffffffffffffff16146109e3576040517f08c379a00000000000000000000000000000000000000000000000000000000081526004016109da9061215f565b60405180910390fd5b8060045410610a09578060045f8282546109fd9190612315565b92505081905550610a11565b5f6004819055505b50565b5f610a1d611446565b5f8311610a5f576040517f08c379a0000000000000000000000000000000000000000000000000000000008152600401610a5690612392565b60405180910390fd5b8373ffffffffffffffffffffffffffffffffffffffff168573ffffffffffffffffffffffffffffffffffffffff1603610acd576040517f08c379a0000000000000000000000000000000000000000000000000000000008152600401610ac4906123fa565b60405180910390fd5b610afa3330858873ffffffffffffffffffffffffffffffffffffffff166113f1909392919063ffffffff16565b60025f8673ffffffffffffffffffffffffffffffffffffffff1673ffffffffffffffffffffffffffffffffffffffff1681526020019081526020015f205f9054906101000a900460ff168015610b9b57507f000000000000000000000000000000000000000000000000000000000000000073ffffffffffffffffffffffffffffffffffffffff168473ffffffffffffffffffffffffffffffffffffffff16145b15610bb157610baa8584611468565b9050611067565b7f000000000000000000000000000000000000000000000000000000000000000073ffffffffffffffffffffffffffffffffffffffff168573ffffffffffffffffffffffffffffffffffffffff16148015610c52575060025f8573ffffffffffffffffffffffffffffffffffffffff1673ffffffffffffffffffffffffffffffffffffffff1681526020019081526020015f205f9054906101000a900460ff165b15610c6857610c61848461168f565b9050611066565b7f000000000000000000000000000000000000000000000000000000000000000073ffffffffffffffffffffffffffffffffffffffff168573ffffffffffffffffffffffffffffffffffffffff16148015610d0e57507f000000000000000000000000000000000000000000000000000000000000000073ffffffffffffffffffffffffffffffffffffffff168473ffffffffffffffffffffffffffffffffffffffff16145b15610d2357610d1c8361187d565b9050611065565b7f000000000000000000000000000000000000000000000000000000000000000073ffffffffffffffffffffffffffffffffffffffff168573ffffffffffffffffffffffffffffffffffffffff16148015610dc957507f000000000000000000000000000000000000000000000000000000000000000073ffffffffffffffffffffffffffffffffffffffff168473ffffffffffffffffffffffffffffffffffffffff16145b15610dde57610dd783611a90565b9050611064565b60025f8673ffffffffffffffffffffffffffffffffffffffff1673ffffffffffffffffffffffffffffffffffffffff1681526020019081526020015f205f9054906101000a900460ff168015610e7a575060025f8573ffffffffffffffffffffffffffffffffffffffff1673ffffffffffffffffffffffffffffffffffffffff1681526020019081526020015f205f9054906101000a900460ff165b15610e9e575f610e8a8685611468565b9050610e96858261168f565b915050611063565b60025f8673ffffffffffffffffffffffffffffffffffffffff1673ffffffffffffffffffffffffffffffffffffffff1681526020019081526020015f205f9054906101000a900460ff168015610f3f57507f000000000000000000000000000000000000000000000000000000000000000073ffffffffffffffffffffffffffffffffffffffff168473ffffffffffffffffffffffffffffffffffffffff16145b15610f62575f610f4f8685611468565b9050610f5a81611a90565b915050611062565b7f000000000000000000000000000000000000000000000000000000000000000073ffffffffffffffffffffffffffffffffffffffff168573ffffffffffffffffffffffffffffffffffffffff16148015611003575060025f8573ffffffffffffffffffffffffffffffffffffffff1673ffffffffffffffffffffffffffffffffffffffff1681526020019081526020015f205f9054906101000a900460ff165b15611026575f6110128461187d565b905061101e858261168f565b915050611061565b6040517f08c379a000000000000000000000000000000000000000000000000000000000815260040161105890612462565b60405180910390fd5b5b5b5b5b5b5b818110156110aa576040517f08c379a00000000000000000000000000000000000000000000000000000000081526004016110a1906124ca565b60405180910390fd5b6110d533828673ffffffffffffffffffffffffffffffffffffffff16611c6a9092919063ffffffff16565b3373ffffffffffffffffffffffffffffffffffffffff168473ffffffffffffffffffffffffffffffffffffffff168673ffffffffffffffffffffffffffffffffffffffff167fcd3829a3813dc3cdd188fd3d01dcf3268c16be2fdd2dd21d0665418816e46062868560405161114b92919061207a565b60405180910390a461115b611cbd565b949350505050565b5f80600354600454915091509091565b7f000000000000000000000000000000000000000000000000000000000000000081565b5f805f808481526020019081526020015f2090505f8160020154036111bf575f9150506111ea565b8060020154670de0b6b3a764000082600101546111dc91906124e8565b6111e69190612556565b9150505b919050565b7f000000000000000000000000000000000000000000000000000000000000000073ffffffffffffffffffffffffffffffffffffffff163373ffffffffffffffffffffffffffffffffffffffff161461127d576040517f08c379a00000000000000000000000000000000000000000000000000000000081526004016112749061215f565b60405180910390fd5b8060045f82825461128e9190612212565b925050819055505f6003541480156112a757505f600454115b156112bd57681b1ae4d6e2ef5000006003819055505b50565b60035481565b7f000000000000000000000000000000000000000000000000000000000000000073ffffffffffffffffffffffffffffffffffffffff163373ffffffffffffffffffffffffffffffffffffffff1614611354576040517f08c379a000000000000000000000000000000000000000000000000000000000815260040161134b9061215f565b60405180910390fd5b5f805f8481526020019081526020015f20905081816002015410156113ae576040517f08c379a00000000000000000000000000000000000000000000000000000000081526004016113a5906125d0565b60405180910390fd5b81816002015f8282546113c19190612315565b92505081905550505050565b7f000000000000000000000000000000000000000000000000000000000000000081565b6113ff848484846001611cd7565b61144057836040517f5274afe70000000000000000000000000000000000000000000000000000000081526004016114379190611f35565b60405180910390fd5b50505050565b61144e611d48565b600261146061145b611d89565b611db2565b5f0181905550565b5f8060015f8573ffffffffffffffffffffffffffffffffffffffff1673ffffffffffffffffffffffffffffffffffffffff1681526020019081526020015f205490505f805f8381526020019081526020015f2090505f612710601e866114ce91906124e8565b6114d89190612556565b90505f81866114e79190612315565b90505f8184600201546114fa9190612212565b90505f818560020154866001015461151291906124e8565b61151c9190612556565b856001015461152b9190612315565b90505f612710601e8361153e91906124e8565b6115489190612556565b905080826115569190612315565b975084836115649190612212565b866002018190555081866001015f82825461157f9190612315565b925050819055505f811115611682576115f97f0000000000000000000000000000000000000000000000000000000000000000827f000000000000000000000000000000000000000000000000000000000000000073ffffffffffffffffffffffffffffffffffffffff16611c6a9092919063ffffffff16565b7f000000000000000000000000000000000000000000000000000000000000000073ffffffffffffffffffffffffffffffffffffffff1663f7ee7e4988836040518363ffffffff1660e01b815260040161165492919061207a565b5f604051808303815f87803b15801561166b575f80fd5b505af115801561167d573d5f803e3d5ffd5b505050505b5050505050505092915050565b5f8060015f8573ffffffffffffffffffffffffffffffffffffffff1673ffffffffffffffffffffffffffffffffffffffff1681526020019081526020015f205490505f805f8381526020019081526020015f2090505f612710601e866116f591906124e8565b6116ff9190612556565b90505f818661170e9190612315565b90505f8184600101546117219190612212565b9050808460020154856001015461173891906124e8565b6117429190612556565b84600201546117519190612315565b955080846001018190555085846002015f82825461176f9190612315565b925050819055505f831115611872576117e97f0000000000000000000000000000000000000000000000000000000000000000847f000000000000000000000000000000000000000000000000000000000000000073ffffffffffffffffffffffffffffffffffffffff16611c6a9092919063ffffffff16565b7f000000000000000000000000000000000000000000000000000000000000000073ffffffffffffffffffffffffffffffffffffffff1663f7ee7e4986856040518363ffffffff1660e01b815260040161184492919061207a565b5f604051808303815f87803b15801561185b575f80fd5b505af115801561186d573d5f803e3d5ffd5b505050505b505050505092915050565b5f8060045411801561189057505f600354115b6118cf576040517f08c379a00000000000000000000000000000000000000000000000000000000081526004016118c690612638565b60405180910390fd5b5f612710601e846118e091906124e8565b6118ea9190612556565b90505f81846118f99190612315565b90505f8160045461190a9190612212565b90505f8160035460045461191e91906124e8565b6119289190612556565b6003546119359190612315565b90505f612710601e8361194891906124e8565b6119529190612556565b905080826119609190612315565b9550848361196e9190612212565b6004819055508160035f8282546119859190612315565b925050819055505f811115611a86576119ff7f0000000000000000000000000000000000000000000000000000000000000000827f000000000000000000000000000000000000000000000000000000000000000073ffffffffffffffffffffffffffffffffffffffff16611c6a9092919063ffffffff16565b7f000000000000000000000000000000000000000000000000000000000000000073ffffffffffffffffffffffffffffffffffffffff1663dc2666f2826040518263ffffffff1660e01b8152600401611a589190611eda565b5f604051808303815f87803b158015611a6f575f80fd5b505af1158015611a81573d5f803e3d5ffd5b505050505b5050505050919050565b5f80600454118015611aa357505f600354115b611ae2576040517f08c379a0000000000000000000000000000000000000000000000000000000008152600401611ad990612638565b60405180910390fd5b5f612710601e84611af391906124e8565b611afd9190612556565b90505f8184611b0c9190612315565b90505f81600354611b1d9190612212565b905080600354600454611b3091906124e8565b611b3a9190612556565b600454611b479190612315565b9350806003819055508360045f828254611b619190612315565b925050819055505f831115611c6257611bdb7f0000000000000000000000000000000000000000000000000000000000000000847f000000000000000000000000000000000000000000000000000000000000000073ffffffffffffffffffffffffffffffffffffffff16611c6a9092919063ffffffff16565b7f000000000000000000000000000000000000000000000000000000000000000073ffffffffffffffffffffffffffffffffffffffff1663dc2666f2846040518263ffffffff1660e01b8152600401611c349190611eda565b5f604051808303815f87803b158015611c4b575f80fd5b505af1158015611c5d573d5f803e3d5ffd5b505050505b505050919050565b611c778383836001611dbb565b611cb857826040517f5274afe7000000000000000000000000000000000000000000000000000000008152600401611caf9190611f35565b60405180910390fd5b505050565b6001611ccf611cca611d89565b611db2565b5f0181905550565b5f806323b872dd60e01b9050604051815f525f1960601c87166004525f1960601c86166024528460445260205f60645f808c5af1925060015f51148316611d35578383151615611d29573d5f823e3d81fd5b5f883b113d1516831692505b806040525f606052505095945050505050565b611d50611e1d565b15611d87576040517f3ee5aeb500000000000000000000000000000000000000000000000000000000815260040160405180910390fd5b565b5f7f9b779b17422d0df92223018b32b4d1fa46e071723d6817e2486d003becc55f005f1b905090565b5f819050919050565b5f8063a9059cbb60e01b9050604051815f525f1960601c86166004528460245260205f60445f808b5af1925060015f51148316611e0f578383151615611e03573d5f823e3d81fd5b5f873b113d1516831692505b806040525050949350505050565b5f6002611e30611e2b611d89565b611db2565b5f015414905090565b5f80fd5b5f73ffffffffffffffffffffffffffffffffffffffff82169050919050565b5f611e6682611e3d565b9050919050565b611e7681611e5c565b8114611e80575f80fd5b50565b5f81359050611e9181611e6d565b92915050565b5f60208284031215611eac57611eab611e39565b5b5f611eb984828501611e83565b91505092915050565b5f819050919050565b611ed481611ec2565b82525050565b5f602082019050611eed5f830184611ecb565b92915050565b5f8115159050919050565b611f0781611ef3565b82525050565b5f602082019050611f205f830184611efe565b92915050565b611f2f81611e5c565b82525050565b5f602082019050611f485f830184611f26565b92915050565b611f5781611ec2565b8114611f61575f80fd5b50565b5f81359050611f7281611f4e565b92915050565b5f8060408385031215611f8e57611f8d611e39565b5b5f611f9b85828601611f64565b9250506020611fac85828601611f64565b9150509250929050565b5f805f8060808587031215611fce57611fcd611e39565b5b5f611fdb87828801611f64565b9450506020611fec87828801611e83565b9350506040611ffd87828801611f64565b925050606061200e87828801611f64565b91505092959194509250565b5f6020828403121561202f5761202e611e39565b5b5f61203c84828501611f64565b91505092915050565b5f6060820190506120585f830186611f26565b6120656020830185611ecb565b6120726040830184611ecb565b949350505050565b5f60408201905061208d5f830185611ecb565b61209a6020830184611ecb565b9392505050565b5f805f80608085870312156120b9576120b8611e39565b5b5f6120c687828801611e83565b94505060206120d787828801611e83565b93505060406120e887828801611f64565b92505060606120f987828801611f64565b91505092959194509250565b5f82825260208201905092915050565b7f4f6e6c7920576869726c706f6f6c0000000000000000000000000000000000005f82015250565b5f612149600e83612105565b915061215482612115565b602082019050919050565b5f6020820190508181035f8301526121768161213d565b9050919050565b7f506f6f6c206e6f7420696e697469616c697a65640000000000000000000000005f82015250565b5f6121b1601483612105565b91506121bc8261217d565b602082019050919050565b5f6020820190508181035f8301526121de816121a5565b9050919050565b7f4e487b71000000000000000000000000000000000000000000000000000000005f52601160045260245ffd5b5f61221c82611ec2565b915061222783611ec2565b925082820190508082111561223f5761223e6121e5565b5b92915050565b7f4f6e6c7920726f757465720000000000000000000000000000000000000000005f82015250565b5f612279600b83612105565b915061228482612245565b602082019050919050565b5f6020820190508181035f8301526122a68161226d565b9050919050565b7f506f6f6c206578697374730000000000000000000000000000000000000000005f82015250565b5f6122e1600b83612105565b91506122ec826122ad565b602082019050919050565b5f6020820190508181035f83015261230e816122d5565b9050919050565b5f61231f82611ec2565b915061232a83611ec2565b9250828203905081811115612342576123416121e5565b5b92915050565b7f5a65726f20616d6f756e740000000000000000000000000000000000000000005f82015250565b5f61237c600b83612105565b915061238782612348565b602082019050919050565b5f6020820190508181035f8301526123a981612370565b9050919050565b7f53616d6520746f6b656e000000000000000000000000000000000000000000005f82015250565b5f6123e4600a83612105565b91506123ef826123b0565b602082019050919050565b5f6020820190508181035f830152612411816123d8565b9050919050565b7f496e76616c6964207377617020726f75746500000000000000000000000000005f82015250565b5f61244c601283612105565b915061245782612418565b602082019050919050565b5f6020820190508181035f83015261247981612440565b9050919050565b7f536c6970706167650000000000000000000000000000000000000000000000005f82015250565b5f6124b4600883612105565b91506124bf82612480565b602082019050919050565b5f6020820190508181035f8301526124e1816124a8565b9050919050565b5f6124f282611ec2565b91506124fd83611ec2565b925082820261250b81611ec2565b91508282048414831517612522576125216121e5565b5b5092915050565b7f4e487b71000000000000000000000000000000000000000000000000000000005f52601260045260245ffd5b5f61256082611ec2565b915061256b83611ec2565b92508261257b5761257a612529565b5b828204905092915050565b7f496e73756666696369656e7420726573657276650000000000000000000000005f82015250565b5f6125ba601483612105565b91506125c582612586565b602082019050919050565b5f6020820190508181035f8301526125e7816125ae565b9050919050565b7f5745544820706f6f6c206e6f7420696e697469616c697a6564000000000000005f82015250565b5f612622601983612105565b915061262d826125ee565b602082019050919050565b5f6020820190508181035f83015261264f81612616565b905091905056fea2646970667358221220a1d3769d24012669990f9b33a29ebea7f4e9398aef1c50dba011ee97f2ef0e5f64736f6c63430008180033","linkReferences":{}},"methodIdentifiers":{"SWAP_FEE_BPS()":"67a6c440","addToCardReserve(uint256,uint256)":"48d007c1","addToWethReserve(uint256)":"ee81eb19","cards(uint256)":"8dc10768","getPrice(uint256)":"e7572230","getReserves(uint256)":"8ea7495c","getWethReserves()":"b3bf4102","initializePool(uint256,address,uint256,uint256)":"87c9a44a","isCardToken(address)":"1b6ff5d1","removeFromCardReserve(uint256,uint256)":"f661e610","removeFromWethReserve(uint256)":"a17231d5","router()":"f887ea40","swapExact(address,address,uint256,uint256)":"a2021833","tokenToCard(address)":"03b1d2a0","waves()":"875d5012","wavesWethReserve()":"f2e35fdf","weth()":"3fc8cef3","wethReserve()":"155b20dd","whirlpool()":"cbe9e7b6"},"id":48}