{"abi":[{"type":"constructor","inputs":[{"name":"weth_","type":"address","internalType":"address"},{"name":"protocol_","type":"address","internalType":"address"}],"stateMutability":"nonpayable"},{"type":"receive","stateMutability":"payable"},{"type":"function","name":"CARD_SUPPLY","inputs":[],"outputs":[{"name":"","type":"uint256","internalType":"uint256"}],"stateMutability":"view"},{"type":"function","name":"MAX_CARDS","inputs":[],"outputs":[{"name":"","type":"uint256","internalType":"uint256"}],"stateMutability":"view"},{"type":"function","name":"MINT_FEE","inputs":[],"outputs":[{"name":"","type":"uint256","internalType":"uint256"}],"stateMutability":"view"},{"type":"function","name":"SWAP_FEE_BPS","inputs":[],"outputs":[{"name":"","type":"uint256","internalType":"uint256"}],"stateMutability":"view"},{"type":"function","name":"WAVES_PER_CARD","inputs":[],"outputs":[{"name":"","type":"uint256","internalType":"uint256"}],"stateMutability":"view"},{"type":"function","name":"WETH_BOOST","inputs":[],"outputs":[{"name":"","type":"uint256","internalType":"uint256"}],"stateMutability":"view"},{"type":"function","name":"accEthPerWeight","inputs":[],"outputs":[{"name":"","type":"uint256","internalType":"uint256"}],"stateMutability":"view"},{"type":"function","name":"accWavesPerWethShare","inputs":[],"outputs":[{"name":"","type":"uint256","internalType":"uint256"}],"stateMutability":"view"},{"type":"function","name":"bidNFT","inputs":[],"outputs":[{"name":"","type":"address","internalType":"contract BidNFT"}],"stateMutability":"view"},{"type":"function","name":"cardToken","inputs":[{"name":"cardId","type":"uint256","internalType":"uint256"}],"outputs":[{"name":"","type":"address","internalType":"address"}],"stateMutability":"view"},{"type":"function","name":"cards","inputs":[{"name":"","type":"uint256","internalType":"uint256"}],"outputs":[{"name":"token","type":"address","internalType":"address"},{"name":"wavesReserve","type":"uint256","internalType":"uint256"},{"name":"cardReserve","type":"uint256","internalType":"uint256"},{"name":"totalStaked","type":"uint256","internalType":"uint256"},{"name":"currentOwner","type":"address","internalType":"address"},{"name":"ownerStake","type":"uint256","internalType":"uint256"},{"name":"accWavesPerShare","type":"uint256","internalType":"uint256"}],"stateMutability":"view"},{"type":"function","name":"claimRewards","inputs":[{"name":"cardId","type":"uint256","internalType":"uint256"}],"outputs":[],"stateMutability":"nonpayable"},{"type":"function","name":"claimWETHRewards","inputs":[],"outputs":[],"stateMutability":"nonpayable"},{"type":"function","name":"createCard","inputs":[{"name":"name","type":"string","internalType":"string"},{"name":"symbol","type":"string","internalType":"string"},{"name":"tokenURI","type":"string","internalType":"string"}],"outputs":[{"name":"cardId","type":"uint256","internalType":"uint256"}],"stateMutability":"payable"},{"type":"function","name":"getPrice","inputs":[{"name":"cardId","type":"uint256","internalType":"uint256"}],"outputs":[{"name":"","type":"uint256","internalType":"uint256"}],"stateMutability":"view"},{"type":"function","name":"getReserves","inputs":[{"name":"cardId","type":"uint256","internalType":"uint256"}],"outputs":[{"name":"wavesR","type":"uint256","internalType":"uint256"},{"name":"cardsR","type":"uint256","internalType":"uint256"}],"stateMutability":"view"},{"type":"function","name":"getWethReserves","inputs":[],"outputs":[{"name":"wavesR","type":"uint256","internalType":"uint256"},{"name":"wethR","type":"uint256","internalType":"uint256"}],"stateMutability":"view"},{"type":"function","name":"isCardToken","inputs":[{"name":"","type":"address","internalType":"address"}],"outputs":[{"name":"","type":"bool","internalType":"bool"}],"stateMutability":"view"},{"type":"function","name":"ownerOfCard","inputs":[{"name":"cardId","type":"uint256","internalType":"uint256"}],"outputs":[{"name":"","type":"address","internalType":"address"}],"stateMutability":"view"},{"type":"function","name":"pendingGlobalRewards","inputs":[{"name":"user","type":"address","internalType":"address"}],"outputs":[{"name":"","type":"uint256","internalType":"uint256"}],"stateMutability":"view"},{"type":"function","name":"pendingRewards","inputs":[{"name":"cardId","type":"uint256","internalType":"uint256"},{"name":"user","type":"address","internalType":"address"}],"outputs":[{"name":"","type":"uint256","internalType":"uint256"}],"stateMutability":"view"},{"type":"function","name":"protocol","inputs":[],"outputs":[{"name":"","type":"address","internalType":"address"}],"stateMutability":"view"},{"type":"function","name":"stake","inputs":[{"name":"cardId","type":"uint256","internalType":"uint256"},{"name":"amount","type":"uint256","internalType":"uint256"}],"outputs":[],"stateMutability":"nonpayable"},{"type":"function","name":"stakeOf","inputs":[{"name":"cardId","type":"uint256","internalType":"uint256"},{"name":"user","type":"address","internalType":"address"}],"outputs":[{"name":"","type":"uint256","internalType":"uint256"}],"stateMutability":"view"},{"type":"function","name":"stakeWETH","inputs":[{"name":"amount","type":"uint256","internalType":"uint256"}],"outputs":[],"stateMutability":"nonpayable"},{"type":"function","name":"swapExact","inputs":[{"name":"tokenIn","type":"address","internalType":"address"},{"name":"tokenOut","type":"address","internalType":"address"},{"name":"amountIn","type":"uint256","internalType":"uint256"},{"name":"minAmountOut","type":"uint256","internalType":"uint256"}],"outputs":[{"name":"amountOut","type":"uint256","internalType":"uint256"}],"stateMutability":"nonpayable"},{"type":"function","name":"tokenToCard","inputs":[{"name":"","type":"address","internalType":"address"}],"outputs":[{"name":"","type":"uint256","internalType":"uint256"}],"stateMutability":"view"},{"type":"function","name":"totalCards","inputs":[],"outputs":[{"name":"","type":"uint256","internalType":"uint256"}],"stateMutability":"view"},{"type":"function","name":"totalCards_","inputs":[],"outputs":[{"name":"","type":"uint256","internalType":"uint256"}],"stateMutability":"view"},{"type":"function","name":"totalGlobalWeight","inputs":[],"outputs":[{"name":"","type":"uint256","internalType":"uint256"}],"stateMutability":"view"},{"type":"function","name":"totalWethStaked","inputs":[],"outputs":[{"name":"","type":"uint256","internalType":"uint256"}],"stateMutability":"view"},{"type":"function","name":"unstake","inputs":[{"name":"cardId","type":"uint256","internalType":"uint256"},{"name":"amount","type":"uint256","internalType":"uint256"}],"outputs":[],"stateMutability":"nonpayable"},{"type":"function","name":"unstakeWETH","inputs":[{"name":"amount","type":"uint256","internalType":"uint256"}],"outputs":[],"stateMutability":"nonpayable"},{"type":"function","name":"userCardDebt","inputs":[{"name":"","type":"uint256","internalType":"uint256"},{"name":"","type":"address","internalType":"address"}],"outputs":[{"name":"","type":"uint256","internalType":"uint256"}],"stateMutability":"view"},{"type":"function","name":"userCardStake","inputs":[{"name":"","type":"uint256","internalType":"uint256"},{"name":"","type":"address","internalType":"address"}],"outputs":[{"name":"","type":"uint256","internalType":"uint256"}],"stateMutability":"view"},{"type":"function","name":"userGlobalDebt","inputs":[{"name":"","type":"address","internalType":"address"}],"outputs":[{"name":"","type":"uint256","internalType":"uint256"}],"stateMutability":"view"},{"type":"function","name":"userGlobalWeight","inputs":[{"name":"","type":"address","internalType":"address"}],"outputs":[{"name":"","type":"uint256","internalType":"uint256"}],"stateMutability":"view"},{"type":"function","name":"userWethDebt","inputs":[{"name":"","type":"address","internalType":"address"}],"outputs":[{"name":"","type":"uint256","internalType":"uint256"}],"stateMutability":"view"},{"type":"function","name":"userWethStake","inputs":[{"name":"","type":"address","internalType":"address"}],"outputs":[{"name":"","type":"uint256","internalType":"uint256"}],"stateMutability":"view"},{"type":"function","name":"waves","inputs":[],"outputs":[{"name":"","type":"address","internalType":"contract WAVES"}],"stateMutability":"view"},{"type":"function","name":"wavesWethReserve","inputs":[],"outputs":[{"name":"","type":"uint256","internalType":"uint256"}],"stateMutability":"view"},{"type":"function","name":"weth","inputs":[],"outputs":[{"name":"","type":"address","internalType":"address"}],"stateMutability":"view"},{"type":"function","name":"wethReserve","inputs":[],"outputs":[{"name":"","type":"uint256","internalType":"uint256"}],"stateMutability":"view"},{"type":"event","name":"CardCreated","inputs":[{"name":"cardId","type":"uint256","indexed":true,"internalType":"uint256"},{"name":"minter","type":"address","indexed":true,"internalType":"address"},{"name":"cardToken","type":"address","indexed":false,"internalType":"address"},{"name":"wavesSeeded","type":"uint256","indexed":false,"internalType":"uint256"}],"anonymous":false},{"type":"event","name":"OwnerChanged","inputs":[{"name":"cardId","type":"uint256","indexed":true,"internalType":"uint256"},{"name":"previousOwner","type":"address","indexed":true,"internalType":"address"},{"name":"newOwner","type":"address","indexed":true,"internalType":"address"}],"anonymous":false},{"type":"event","name":"RewardsClaimed","inputs":[{"name":"user","type":"address","indexed":true,"internalType":"address"},{"name":"amount","type":"uint256","indexed":false,"internalType":"uint256"}],"anonymous":false},{"type":"event","name":"Staked","inputs":[{"name":"cardId","type":"uint256","indexed":true,"internalType":"uint256"},{"name":"user","type":"address","indexed":true,"internalType":"address"},{"name":"amount","type":"uint256","indexed":false,"internalType":"uint256"}],"anonymous":false},{"type":"event","name":"Swap","inputs":[{"name":"tokenIn","type":"address","indexed":true,"internalType":"address"},{"name":"tokenOut","type":"address","indexed":true,"internalType":"address"},{"name":"user","type":"address","indexed":true,"internalType":"address"},{"name":"amountIn","type":"uint256","indexed":false,"internalType":"uint256"},{"name":"amountOut","type":"uint256","indexed":false,"internalType":"uint256"}],"anonymous":false},{"type":"event","name":"Unstaked","inputs":[{"name":"cardId","type":"uint256","indexed":true,"internalType":"uint256"},{"name":"user","type":"address","indexed":true,"internalType":"address"},{"name":"amount","type":"uint256","indexed":false,"internalType":"uint256"}],"anonymous":false},{"type":"event","name":"WETHStaked","inputs":[{"name":"user","type":"address","indexed":true,"internalType":"address"},{"name":"amount","type":"uint256","indexed":false,"internalType":"uint256"}],"anonymous":false},{"type":"event","name":"WETHUnstaked","inputs":[{"name":"user","type":"address","indexed":true,"internalType":"address"},{"name":"amount","type":"uint256","indexed":false,"internalType":"uint256"}],"anonymous":false},{"type":"error","name":"ReentrancyGuardReentrantCall","inputs":[]},{"type":"error","name":"SafeERC20FailedOperation","inputs":[{"name":"token","type":"address","internalType":"address"}]}],"bytecode":{"object":"0x61010060405234801562000011575f80fd5b506040516200a3403803806200a340833981810160405281019062000037919062000254565b6001620000596200004d620001a160201b60201c565b620001ca60201b60201c565b5f01819055508173ffffffffffffffffffffffffffffffffffffffff1660c08173ffffffffffffffffffffffffffffffffffffffff16815250508073ffffffffffffffffffffffffffffffffffffffff1660e08173ffffffffffffffffffffffffffffffffffffffff168152505030604051620000d690620001d3565b620000e29190620002aa565b604051809103905ff080158015620000fc573d5f803e3d5ffd5b5073ffffffffffffffffffffffffffffffffffffffff1660808173ffffffffffffffffffffffffffffffffffffffff1681525050306040516200013f90620001e1565b6200014b9190620002aa565b604051809103905ff08015801562000165573d5f803e3d5ffd5b5073ffffffffffffffffffffffffffffffffffffffff1660a08173ffffffffffffffffffffffffffffffffffffffff16815250505050620002c5565b5f7f9b779b17422d0df92223018b32b4d1fa46e071723d6817e2486d003becc55f005f1b905090565b5f819050919050565b611511806200719c83390190565b611c9380620086ad83390190565b5f80fd5b5f73ffffffffffffffffffffffffffffffffffffffff82169050919050565b5f6200021e82620001f3565b9050919050565b620002308162000212565b81146200023b575f80fd5b50565b5f815190506200024e8162000225565b92915050565b5f80604083850312156200026d576200026c620001ef565b5b5f6200027c858286016200023e565b92505060206200028f858286016200023e565b9150509250929050565b620002a48162000212565b82525050565b5f602082019050620002bf5f83018462000299565b92915050565b60805160a05160c05160e051616e416200035b5f395f81816119950152611c6f01525f818161134f01528181611d8f01528181612a8201526136e601525f81816119eb01526137f901525f8181610ce6015281816110f9015281816116c90152818161175501528181611c4b01528181611ed50152818161243601528181612a5e015281816133bd0152613bb00152616e415ff3fe6080604052600436106200029a575f3560e01c8063811ad8f31162000162578063b3432cd211620000c6578063d7bf81a31162000084578063d7bf81a31462000aa2578063df09044e1462000ad1578063e75722301462000afe578063e994c15d1462000b41578063f2e35fdf1462000b70578063f83764d71462000b9f57620002a2565b8063b3432cd2146200097a578063b3bf410214620009bd578063c4e2c05814620009ed578063ccfb97bb1462000a1c578063d18df53c1462000a5f57620002a2565b80638ea7495c11620001205780638ea7495c1462000827578063928c4ee6146200086b5780639e2c8a5b1462000898578063a202183314620008c5578063a782c25c1462000908578063b10c90bb146200094b57620002a2565b8063811ad8f3146200072257806385d37b921462000751578063875d501214620007805780638ce7442614620007af5780638dc1076814620007de57620002a2565b806338430832116200020a57806360dec71011620001c857806360dec71014620005ef57806367a6c44014620006325780636f4fa80114620006615780637983c19314620006975780637b0472f014620006c65780637e744a7614620006f357620002a2565b80633843083214620004f25780633c68bb46146200050b5780633fc8cef3146200053a5780634d9c194f146200056957806352bc6ffe14620005ac57620002a2565b8063157b0a421162000258578063157b0a4214620003a357806316bc6e9414620003e65780631b6ff5d114620004295780631f7ae6bc146200046c57806331c8598614620004af57620002a2565b806303b1d2a014620002a65780630630ee7414620002e957806307a23f7314620003185780630962ef791462000347578063155b20dd146200037457620002a2565b36620002a257005b5f80fd5b348015620002b2575f80fd5b50620002d16004803603810190620002cb919062004938565b62000bce565b604051620002e0919062004982565b60405180910390f35b348015620002f5575f80fd5b506200030062000be3565b6040516200030f919062004982565b60405180910390f35b34801562000324575f80fd5b506200032f62000be8565b6040516200033e919062004982565b60405180910390f35b34801562000353575f80fd5b506200037260048036038101906200036c9190620049cc565b62000bee565b005b34801562000380575f80fd5b506200038b62000f56565b6040516200039a919062004982565b60405180910390f35b348015620003af575f80fd5b50620003ce6004803603810190620003c8919062004938565b62000f5c565b604051620003dd919062004982565b60405180910390f35b348015620003f2575f80fd5b506200041160048036038101906200040b919062004938565b62000f71565b60405162000420919062004982565b60405180910390f35b34801562000435575f80fd5b506200045460048036038101906200044e919062004938565b62000f86565b60405162000463919062004a18565b60405180910390f35b34801562000478575f80fd5b50620004976004803603810190620004919190620049cc565b62000fa3565b604051620004a6919062004a44565b60405180910390f35b348015620004bb575f80fd5b50620004da6004803603810190620004d4919062004a5f565b62000fdf565b604051620004e9919062004982565b60405180910390f35b348015620004fe575f80fd5b506200050962001035565b005b34801562000517575f80fd5b506200052262001347565b60405162000531919062004982565b60405180910390f35b34801562000546575f80fd5b50620005516200134d565b60405162000560919062004a44565b60405180910390f35b34801562000575575f80fd5b506200059460048036038101906200058e9190620049cc565b62001371565b604051620005a3919062004a44565b60405180910390f35b348015620005b8575f80fd5b50620005d76004803603810190620005d1919062004a5f565b620013ac565b604051620005e6919062004982565b60405180910390f35b348015620005fb575f80fd5b506200061a600480360381019062000614919062004938565b620013cc565b60405162000629919062004982565b60405180910390f35b3480156200063e575f80fd5b5062000649620014cf565b60405162000658919062004982565b60405180910390f35b6200067f600480360381019062000679919062004b0e565b620014d4565b6040516200068e919062004982565b60405180910390f35b348015620006a3575f80fd5b50620006ae62001b10565b604051620006bd919062004982565b60405180910390f35b348015620006d2575f80fd5b50620006f16004803603810190620006eb919062004bd0565b62001b16565b005b348015620006ff575f80fd5b506200070a62001c2e565b60405162000719919062004982565b60405180910390f35b3480156200072e575f80fd5b506200073962001c34565b60405162000748919062004982565b60405180910390f35b3480156200075d575f80fd5b506200076862001c43565b60405162000777919062004982565b60405180910390f35b3480156200078c575f80fd5b506200079762001c49565b604051620007a6919062004c7c565b60405180910390f35b348015620007bb575f80fd5b50620007c662001c6d565b604051620007d5919062004a44565b60405180910390f35b348015620007ea575f80fd5b50620008096004803603810190620008039190620049cc565b62001c91565b6040516200081e979695949392919062004c97565b60405180910390f35b34801562000833575f80fd5b506200085260048036038101906200084c9190620049cc565b62001d0d565b6040516200086292919062004d12565b60405180910390f35b34801562000877575f80fd5b50620008966004803603810190620008909190620049cc565b62001d37565b005b348015620008a4575f80fd5b50620008c36004803603810190620008bd919062004bd0565b62002267565b005b348015620008d1575f80fd5b50620008f06004803603810190620008ea919062004d3d565b6200299a565b604051620008ff919062004982565b60405180910390f35b34801562000914575f80fd5b506200093360048036038101906200092d919062004a5f565b62003071565b60405162000942919062004982565b60405180910390f35b34801562000957575f80fd5b506200096262003091565b60405162000971919062004982565b60405180910390f35b34801562000986575f80fd5b50620009a560048036038101906200099f919062004938565b62003096565b604051620009b4919062004982565b60405180910390f35b348015620009c9575f80fd5b50620009d4620030ab565b604051620009e492919062004d12565b60405180910390f35b348015620009f9575f80fd5b5062000a04620030bb565b60405162000a13919062004982565b60405180910390f35b34801562000a28575f80fd5b5062000a47600480360381019062000a41919062004938565b620030c8565b60405162000a56919062004982565b60405180910390f35b34801562000a6b575f80fd5b5062000a8a600480360381019062000a84919062004a5f565b620030dd565b60405162000a99919062004982565b60405180910390f35b34801562000aae575f80fd5b5062000ab962003226565b60405162000ac8919062004982565b60405180910390f35b34801562000add575f80fd5b5062000afc600480360381019062000af69190620049cc565b62003231565b005b34801562000b0a575f80fd5b5062000b29600480360381019062000b239190620049cc565b6200378a565b60405162000b38919062004982565b60405180910390f35b34801562000b4d575f80fd5b5062000b58620037e9565b60405162000b67919062004982565b60405180910390f35b34801562000b7c575f80fd5b5062000b87620037f1565b60405162000b96919062004982565b60405180910390f35b34801562000bab575f80fd5b5062000bb6620037f7565b60405162000bc5919062004dd0565b60405180910390f35b600e602052805f5260405f205f915090505481565b5f5481565b60065481565b62000bf86200381b565b5f60015f8381526020019081526020015f2090505f60035f8481526020019081526020015f205f3373ffffffffffffffffffffffffffffffffffffffff1673ffffffffffffffffffffffffffffffffffffffff1681526020019081526020015f2054670de0b6b3a7640000836006015460025f8781526020019081526020015f205f3373ffffffffffffffffffffffffffffffffffffffff1673ffffffffffffffffffffffffffffffffffffffff1681526020019081526020015f205462000cc1919062004e18565b62000ccd919062004e8f565b62000cd9919062004ec6565b90505f81111562000d86577f000000000000000000000000000000000000000000000000000000000000000073ffffffffffffffffffffffffffffffffffffffff1663a9059cbb33836040518363ffffffff1660e01b815260040162000d4192919062004f00565b6020604051808303815f875af115801562000d5e573d5f803e3d5ffd5b505050506040513d601f19601f8201168201806040525081019062000d84919062004f5a565b505b670de0b6b3a7640000826006015460025f8681526020019081526020015f205f3373ffffffffffffffffffffffffffffffffffffffff1673ffffffffffffffffffffffffffffffffffffffff1681526020019081526020015f205462000ded919062004e18565b62000df9919062004e8f565b60035f8581526020019081526020015f205f3373ffffffffffffffffffffffffffffffffffffffff1673ffffffffffffffffffffffffffffffffffffffff1681526020019081526020015f208190555062000e543362003843565b670de0b6b3a7640000600a54600d5f3373ffffffffffffffffffffffffffffffffffffffff1673ffffffffffffffffffffffffffffffffffffffff1681526020019081526020015f205462000eaa919062004e18565b62000eb6919062004e8f565b600c5f3373ffffffffffffffffffffffffffffffffffffffff1673ffffffffffffffffffffffffffffffffffffffff1681526020019081526020015f20819055503373ffffffffffffffffffffffffffffffffffffffff167ffc30cddea38e2bf4d6ea7d3f9ed3b6ad7f176419f4963bd81318067a4aee73fe8260405162000f3f919062004982565b60405180910390a2505062000f53620039f7565b50565b60055481565b6008602052805f5260405f205f915090505481565b6009602052805f5260405f205f915090505481565b600f602052805f5260405f205f915054906101000a900460ff1681565b5f60015f8381526020019081526020015f206004015f9054906101000a900473ffffffffffffffffffffffffffffffffffffffff169050919050565b5f60025f8481526020019081526020015f205f8373ffffffffffffffffffffffffffffffffffffffff1673ffffffffffffffffffffffffffffffffffffffff1681526020019081526020015f2054905092915050565b6200103f6200381b565b5f60095f3373ffffffffffffffffffffffffffffffffffffffff1673ffffffffffffffffffffffffffffffffffffffff1681526020019081526020015f2054670de0b6b3a764000060075460085f3373ffffffffffffffffffffffffffffffffffffffff1673ffffffffffffffffffffffffffffffffffffffff1681526020019081526020015f2054620010d4919062004e18565b620010e0919062004e8f565b620010ec919062004ec6565b90505f81111562001199577f000000000000000000000000000000000000000000000000000000000000000073ffffffffffffffffffffffffffffffffffffffff1663a9059cbb33836040518363ffffffff1660e01b81526004016200115492919062004f00565b6020604051808303815f875af115801562001171573d5f803e3d5ffd5b505050506040513d601f19601f8201168201806040525081019062001197919062004f5a565b505b670de0b6b3a764000060075460085f3373ffffffffffffffffffffffffffffffffffffffff1673ffffffffffffffffffffffffffffffffffffffff1681526020019081526020015f2054620011ef919062004e18565b620011fb919062004e8f565b60095f3373ffffffffffffffffffffffffffffffffffffffff1673ffffffffffffffffffffffffffffffffffffffff1681526020019081526020015f2081905550620012473362003843565b670de0b6b3a7640000600a54600d5f3373ffffffffffffffffffffffffffffffffffffffff1673ffffffffffffffffffffffffffffffffffffffff1681526020019081526020015f20546200129d919062004e18565b620012a9919062004e8f565b600c5f3373ffffffffffffffffffffffffffffffffffffffff1673ffffffffffffffffffffffffffffffffffffffff1681526020019081526020015f20819055503373ffffffffffffffffffffffffffffffffffffffff167ffc30cddea38e2bf4d6ea7d3f9ed3b6ad7f176419f4963bd81318067a4aee73fe8260405162001332919062004982565b60405180910390a25062001345620039f7565b565b60075481565b7f000000000000000000000000000000000000000000000000000000000000000081565b5f60015f8381526020019081526020015f205f015f9054906101000a900473ffffffffffffffffffffffffffffffffffffffff169050919050565b6003602052815f5260405f20602052805f5260405f205f91509150505481565b5f80600d5f8473ffffffffffffffffffffffffffffffffffffffff1673ffffffffffffffffffffffffffffffffffffffff1681526020019081526020015f2054036200141b575f9050620014ca565b600c5f8373ffffffffffffffffffffffffffffffffffffffff1673ffffffffffffffffffffffffffffffffffffffff1681526020019081526020015f2054670de0b6b3a7640000600a54600d5f8673ffffffffffffffffffffffffffffffffffffffff1673ffffffffffffffffffffffffffffffffffffffff1681526020019081526020015f2054620014af919062004e18565b620014bb919062004e8f565b620014c7919062004ec6565b90505b919050565b601e81565b5f620014df6200381b565b66b1a2bc2ec5000034146200152b576040517f08c379a0000000000000000000000000000000000000000000000000000000008152600401620015229062004fe8565b60405180910390fd5b6113885f541062001573576040517f08c379a00000000000000000000000000000000000000000000000000000000081526004016200156a9062005056565b60405180910390fd5b5f80815480929190620015869062005076565b9190505590505f87878787306a084595161401484a000000604051620015ac90620048c1565b620015bd9695949392919062005112565b604051809103905ff080158015620015d7573d5f803e3d5ffd5b5090505f81905082600e5f8373ffffffffffffffffffffffffffffffffffffffff1673ffffffffffffffffffffffffffffffffffffffff1681526020019081526020015f20819055506001600f5f8373ffffffffffffffffffffffffffffffffffffffff1673ffffffffffffffffffffffffffffffffffffffff1681526020019081526020015f205f6101000a81548160ff0219169083151502179055505f60646019686c6b935b8bbd40000062001690919062004e18565b6200169c919062004e8f565b90505f6064604b686c6b935b8bbd400000620016b9919062004e18565b620016c5919062004e8f565b90507f000000000000000000000000000000000000000000000000000000000000000073ffffffffffffffffffffffffffffffffffffffff166340c10f1930846040518363ffffffff1660e01b81526004016200172492919062004f00565b5f604051808303815f87803b1580156200173c575f80fd5b505af11580156200174f573d5f803e3d5ffd5b505050507f000000000000000000000000000000000000000000000000000000000000000073ffffffffffffffffffffffffffffffffffffffff166340c10f1933836040518363ffffffff1660e01b8152600401620017b092919062004f00565b5f604051808303815f87803b158015620017c8575f80fd5b505af1158015620017db573d5f803e3d5ffd5b505050505f6064604b6a084595161401484a000000620017fc919062004e18565b62001808919062004e8f565b90505f606460146a084595161401484a00000062001827919062004e18565b62001833919062004e8f565b90505f606460056a084595161401484a00000062001852919062004e18565b6200185e919062004e8f565b90506040518060e001604052808773ffffffffffffffffffffffffffffffffffffffff1681526020018681526020018481526020015f81526020015f73ffffffffffffffffffffffffffffffffffffffff1681526020015f81526020015f81525060015f8a81526020019081526020015f205f820151815f015f6101000a81548173ffffffffffffffffffffffffffffffffffffffff021916908373ffffffffffffffffffffffffffffffffffffffff1602179055506020820151816001015560408201518160020155606082015181600301556080820151816004015f6101000a81548173ffffffffffffffffffffffffffffffffffffffff021916908373ffffffffffffffffffffffffffffffffffffffff16021790555060a0820151816005015560c08201518160060155905050620019dc7f0000000000000000000000000000000000000000000000000000000000000000828873ffffffffffffffffffffffffffffffffffffffff1662003a159092919063ffffffff16565b620019e988338462003a6d565b7f000000000000000000000000000000000000000000000000000000000000000073ffffffffffffffffffffffffffffffffffffffff166377097fc8898c8c6040518463ffffffff1660e01b815260040162001a48939291906200516f565b5f604051808303815f87803b15801562001a60575f80fd5b505af115801562001a73573d5f803e3d5ffd5b5050505062001a8162003f15565b5f60045414801562001a9457505f600654115b1562001aa257846004819055505b3373ffffffffffffffffffffffffffffffffffffffff16887f796eefe019c3e861e80fc5aba66c9d77a76e8d859c4ad320d17f7921daae3b64888860405162001aed92919062004f00565b60405180910390a35050505050505062001b06620039f7565b9695505050505050565b600a5481565b62001b206200381b565b600181101562001b67576040517f08c379a000000000000000000000000000000000000000000000000000000000815260040162001b5e90620051f1565b60405180910390fd5b5f54821062001bad576040517f08c379a000000000000000000000000000000000000000000000000000000000815260040162001ba4906200525f565b60405180910390fd5b5f60015f8481526020019081526020015f20905062001c12333084845f015f9054906101000a900473ffffffffffffffffffffffffffffffffffffffff1673ffffffffffffffffffffffffffffffffffffffff1662003f68909392919063ffffffff16565b62001c1f83338462003a6d565b5062001c2a620039f7565b5050565b61138881565b6a084595161401484a00000081565b600b5481565b7f000000000000000000000000000000000000000000000000000000000000000081565b7f000000000000000000000000000000000000000000000000000000000000000081565b6001602052805f5260405f205f91509050805f015f9054906101000a900473ffffffffffffffffffffffffffffffffffffffff1690806001015490806002015490806003015490806004015f9054906101000a900473ffffffffffffffffffffffffffffffffffffffff16908060050154908060060154905087565b5f805f60015f8581526020019081526020015f209050806001015481600201549250925050915091565b62001d416200381b565b5f811162001d86576040517f08c379a000000000000000000000000000000000000000000000000000000000815260040162001d7d90620052cd565b60405180910390fd5b62001dd53330837f000000000000000000000000000000000000000000000000000000000000000073ffffffffffffffffffffffffffffffffffffffff1662003f68909392919063ffffffff16565b5f60085f3373ffffffffffffffffffffffffffffffffffffffff1673ffffffffffffffffffffffffffffffffffffffff1681526020019081526020015f2054111562001f77575f60095f3373ffffffffffffffffffffffffffffffffffffffff1673ffffffffffffffffffffffffffffffffffffffff1681526020019081526020015f2054670de0b6b3a764000060075460085f3373ffffffffffffffffffffffffffffffffffffffff1673ffffffffffffffffffffffffffffffffffffffff1681526020019081526020015f205462001eb0919062004e18565b62001ebc919062004e8f565b62001ec8919062004ec6565b90505f81111562001f75577f000000000000000000000000000000000000000000000000000000000000000073ffffffffffffffffffffffffffffffffffffffff1663a9059cbb33836040518363ffffffff1660e01b815260040162001f3092919062004f00565b6020604051808303815f875af115801562001f4d573d5f803e3d5ffd5b505050506040513d601f19601f8201168201806040525081019062001f73919062004f5a565b505b505b62001f823362003843565b8060085f3373ffffffffffffffffffffffffffffffffffffffff1673ffffffffffffffffffffffffffffffffffffffff1681526020019081526020015f205f82825462001fd09190620052ed565b925050819055508060065f82825462001fea9190620052ed565b925050819055505f600a600f8362002003919062004e18565b6200200f919062004e8f565b905080600d5f3373ffffffffffffffffffffffffffffffffffffffff1673ffffffffffffffffffffffffffffffffffffffff1681526020019081526020015f205f8282546200205f9190620052ed565b9250508190555080600b5f828254620020799190620052ed565b925050819055508160055f828254620020939190620052ed565b925050819055505f600454148015620020ac57505f8054115b15620020c357681b1ae4d6e2ef5000006004819055505b670de0b6b3a764000060075460085f3373ffffffffffffffffffffffffffffffffffffffff1673ffffffffffffffffffffffffffffffffffffffff1681526020019081526020015f205462002119919062004e18565b62002125919062004e8f565b60095f3373ffffffffffffffffffffffffffffffffffffffff1673ffffffffffffffffffffffffffffffffffffffff1681526020019081526020015f2081905550670de0b6b3a7640000600a54600d5f3373ffffffffffffffffffffffffffffffffffffffff1673ffffffffffffffffffffffffffffffffffffffff1681526020019081526020015f2054620021bc919062004e18565b620021c8919062004e8f565b600c5f3373ffffffffffffffffffffffffffffffffffffffff1673ffffffffffffffffffffffffffffffffffffffff1681526020019081526020015f20819055503373ffffffffffffffffffffffffffffffffffffffff167fa8dbb4e02225f3329640a712a2f4f3ae58c4b82a4a79da218708abc78fc1cf5f8360405162002251919062004982565b60405180910390a25062002264620039f7565b50565b620022716200381b565b5f8111620022b6576040517f08c379a0000000000000000000000000000000000000000000000000000000008152600401620022ad90620052cd565b60405180910390fd5b8060025f8481526020019081526020015f205f3373ffffffffffffffffffffffffffffffffffffffff1673ffffffffffffffffffffffffffffffffffffffff1681526020019081526020015f2054101562002348576040517f08c379a00000000000000000000000000000000000000000000000000000000081526004016200233f9062005375565b60405180910390fd5b5f60015f8481526020019081526020015f2090505f60035f8581526020019081526020015f205f3373ffffffffffffffffffffffffffffffffffffffff1673ffffffffffffffffffffffffffffffffffffffff1681526020019081526020015f2054670de0b6b3a7640000836006015460025f8881526020019081526020015f205f3373ffffffffffffffffffffffffffffffffffffffff1673ffffffffffffffffffffffffffffffffffffffff1681526020019081526020015f205462002411919062004e18565b6200241d919062004e8f565b62002429919062004ec6565b90505f811115620024d6577f000000000000000000000000000000000000000000000000000000000000000073ffffffffffffffffffffffffffffffffffffffff1663a9059cbb33836040518363ffffffff1660e01b81526004016200249192919062004f00565b6020604051808303815f875af1158015620024ae573d5f803e3d5ffd5b505050506040513d601f19601f82011682018060405250810190620024d4919062004f5a565b505b620024e13362003843565b8260025f8681526020019081526020015f205f3373ffffffffffffffffffffffffffffffffffffffff1673ffffffffffffffffffffffffffffffffffffffff1681526020019081526020015f205f8282546200253e919062004ec6565b9250508190555082826003015f8282546200255a919062004ec6565b9250508190555082600d5f3373ffffffffffffffffffffffffffffffffffffffff1673ffffffffffffffffffffffffffffffffffffffff1681526020019081526020015f205f828254620025af919062004ec6565b9250508190555082600b5f828254620025c9919062004ec6565b92505081905550670de0b6b3a7640000826006015460025f8781526020019081526020015f205f3373ffffffffffffffffffffffffffffffffffffffff1673ffffffffffffffffffffffffffffffffffffffff1681526020019081526020015f205462002637919062004e18565b62002643919062004e8f565b60035f8681526020019081526020015f205f3373ffffffffffffffffffffffffffffffffffffffff1673ffffffffffffffffffffffffffffffffffffffff1681526020019081526020015f2081905550670de0b6b3a7640000600a54600d5f3373ffffffffffffffffffffffffffffffffffffffff1673ffffffffffffffffffffffffffffffffffffffff1681526020019081526020015f2054620026e9919062004e18565b620026f5919062004e8f565b600c5f3373ffffffffffffffffffffffffffffffffffffffff1673ffffffffffffffffffffffffffffffffffffffff1681526020019081526020015f2081905550620027853384845f015f9054906101000a900473ffffffffffffffffffffffffffffffffffffffff1673ffffffffffffffffffffffffffffffffffffffff1662003a159092919063ffffffff16565b5f826004015f9054906101000a900473ffffffffffffffffffffffffffffffffffffffff1690508073ffffffffffffffffffffffffffffffffffffffff163373ffffffffffffffffffffffffffffffffffffffff160362002938575f60025f8781526020019081526020015f205f3373ffffffffffffffffffffffffffffffffffffffff1673ffffffffffffffffffffffffffffffffffffffff1681526020019081526020015f20541115620028905760025f8681526020019081526020015f205f3373ffffffffffffffffffffffffffffffffffffffff1673ffffffffffffffffffffffffffffffffffffffff1681526020019081526020015f2054836005018190555062002937565b5f836004015f6101000a81548173ffffffffffffffffffffffffffffffffffffffff021916908373ffffffffffffffffffffffffffffffffffffffff1602179055505f83600501819055505f73ffffffffffffffffffffffffffffffffffffffff168173ffffffffffffffffffffffffffffffffffffffff16867f079a159bc2c4ed6aaee92c293d83b6527a380c127aca07f41d3ab4c590957f5660405160405180910390a45b5b3373ffffffffffffffffffffffffffffffffffffffff16857f37375b03d8924bd8f076f11f8411b9962aa5c02fb489021507bc6bb6f850e3658660405162002981919062004982565b60405180910390a350505062002996620039f7565b5050565b5f620029a56200381b565b5f8311620029ea576040517f08c379a0000000000000000000000000000000000000000000000000000000008152600401620029e190620052cd565b60405180910390fd5b8373ffffffffffffffffffffffffffffffffffffffff168573ffffffffffffffffffffffffffffffffffffffff160362002a5b576040517f08c379a000000000000000000000000000000000000000000000000000000000815260040162002a5290620053e3565b60405180910390fd5b5f7f000000000000000000000000000000000000000000000000000000000000000090505f7f0000000000000000000000000000000000000000000000000000000000000000905062002ad23330878a73ffffffffffffffffffffffffffffffffffffffff1662003f68909392919063ffffffff16565b600f5f8873ffffffffffffffffffffffffffffffffffffffff1673ffffffffffffffffffffffffffffffffffffffff1681526020019081526020015f205f9054906101000a900460ff16801562002b5457508173ffffffffffffffffffffffffffffffffffffffff168673ffffffffffffffffffffffffffffffffffffffff16145b1562002b6e5762002b66878662003fc2565b925062002f6a565b8173ffffffffffffffffffffffffffffffffffffffff168773ffffffffffffffffffffffffffffffffffffffff1614801562002bf05750600f5f8773ffffffffffffffffffffffffffffffffffffffff1673ffffffffffffffffffffffffffffffffffffffff1681526020019081526020015f205f9054906101000a900460ff165b1562002c0a5762002c0286866200415c565b925062002f69565b8073ffffffffffffffffffffffffffffffffffffffff168773ffffffffffffffffffffffffffffffffffffffff1614801562002c7157508173ffffffffffffffffffffffffffffffffffffffff168673ffffffffffffffffffffffffffffffffffffffff16145b1562002c8a5762002c8285620042af565b925062002f68565b8173ffffffffffffffffffffffffffffffffffffffff168773ffffffffffffffffffffffffffffffffffffffff1614801562002cf157508073ffffffffffffffffffffffffffffffffffffffff168673ffffffffffffffffffffffffffffffffffffffff16145b1562002d0a5762002d028562004434565b925062002f67565b600f5f8873ffffffffffffffffffffffffffffffffffffffff1673ffffffffffffffffffffffffffffffffffffffff1681526020019081526020015f205f9054906101000a900460ff16801562002da75750600f5f8773ffffffffffffffffffffffffffffffffffffffff1673ffffffffffffffffffffffffffffffffffffffff1681526020019081526020015f205f9054906101000a900460ff165b1562002dd1575f62002dba888762003fc2565b905062002dc887826200415c565b93505062002f66565b600f5f8873ffffffffffffffffffffffffffffffffffffffff1673ffffffffffffffffffffffffffffffffffffffff1681526020019081526020015f205f9054906101000a900460ff16801562002e5357508073ffffffffffffffffffffffffffffffffffffffff168673ffffffffffffffffffffffffffffffffffffffff16145b1562002e7c575f62002e66888762003fc2565b905062002e738162004434565b93505062002f65565b8073ffffffffffffffffffffffffffffffffffffffff168773ffffffffffffffffffffffffffffffffffffffff1614801562002efe5750600f5f8773ffffffffffffffffffffffffffffffffffffffff1673ffffffffffffffffffffffffffffffffffffffff1681526020019081526020015f205f9054906101000a900460ff165b1562002f27575f62002f1086620042af565b905062002f1e87826200415c565b93505062002f64565b6040517f08c379a000000000000000000000000000000000000000000000000000000000815260040162002f5b9062005451565b60405180910390fd5b5b5b5b5b5b5b8383101562002fb0576040517f08c379a000000000000000000000000000000000000000000000000000000000815260040162002fa790620054bf565b60405180910390fd5b62002fdd33848873ffffffffffffffffffffffffffffffffffffffff1662003a159092919063ffffffff16565b3373ffffffffffffffffffffffffffffffffffffffff168673ffffffffffffffffffffffffffffffffffffffff168873ffffffffffffffffffffffffffffffffffffffff167fcd3829a3813dc3cdd188fd3d01dcf3268c16be2fdd2dd21d0665418816e4606288876040516200305592919062004d12565b60405180910390a4505062003069620039f7565b949350505050565b6002602052815f5260405f20602052805f5260405f205f91509150505481565b600f81565b600c602052805f5260405f205f915090505481565b5f80600454600554915091509091565b686c6b935b8bbd40000081565b600d602052805f5260405f205f915090505481565b5f8060015f8581526020019081526020015f2090505f60025f8681526020019081526020015f205f8573ffffffffffffffffffffffffffffffffffffffff1673ffffffffffffffffffffffffffffffffffffffff1681526020019081526020015f20540362003150575f91505062003220565b60035f8581526020019081526020015f205f8473ffffffffffffffffffffffffffffffffffffffff1673ffffffffffffffffffffffffffffffffffffffff1681526020019081526020015f2054670de0b6b3a7640000826006015460025f8881526020019081526020015f205f8773ffffffffffffffffffffffffffffffffffffffff1673ffffffffffffffffffffffffffffffffffffffff1681526020019081526020015f205462003204919062004e18565b62003210919062004e8f565b6200321c919062004ec6565b9150505b92915050565b66b1a2bc2ec5000081565b6200323b6200381b565b5f811162003280576040517f08c379a00000000000000000000000000000000000000000000000000000000081526004016200327790620052cd565b60405180910390fd5b8060085f3373ffffffffffffffffffffffffffffffffffffffff1673ffffffffffffffffffffffffffffffffffffffff1681526020019081526020015f2054101562003303576040517f08c379a0000000000000000000000000000000000000000000000000000000008152600401620032fa9062005375565b60405180910390fd5b5f60095f3373ffffffffffffffffffffffffffffffffffffffff1673ffffffffffffffffffffffffffffffffffffffff1681526020019081526020015f2054670de0b6b3a764000060075460085f3373ffffffffffffffffffffffffffffffffffffffff1673ffffffffffffffffffffffffffffffffffffffff1681526020019081526020015f205462003398919062004e18565b620033a4919062004e8f565b620033b0919062004ec6565b90505f8111156200345d577f000000000000000000000000000000000000000000000000000000000000000073ffffffffffffffffffffffffffffffffffffffff1663a9059cbb33836040518363ffffffff1660e01b81526004016200341892919062004f00565b6020604051808303815f875af115801562003435573d5f803e3d5ffd5b505050506040513d601f19601f820116820180604052508101906200345b919062004f5a565b505b620034683362003843565b8160085f3373ffffffffffffffffffffffffffffffffffffffff1673ffffffffffffffffffffffffffffffffffffffff1681526020019081526020015f205f828254620034b6919062004ec6565b925050819055508160065f828254620034d0919062004ec6565b925050819055505f600a600f84620034e9919062004e18565b620034f5919062004e8f565b905080600d5f3373ffffffffffffffffffffffffffffffffffffffff1673ffffffffffffffffffffffffffffffffffffffff1681526020019081526020015f205f82825462003545919062004ec6565b9250508190555080600b5f8282546200355f919062004ec6565b92505081905550826005541062003590578260055f82825462003583919062004ec6565b9250508190555062003598565b5f6005819055505b670de0b6b3a764000060075460085f3373ffffffffffffffffffffffffffffffffffffffff1673ffffffffffffffffffffffffffffffffffffffff1681526020019081526020015f2054620035ee919062004e18565b620035fa919062004e8f565b60095f3373ffffffffffffffffffffffffffffffffffffffff1673ffffffffffffffffffffffffffffffffffffffff1681526020019081526020015f2081905550670de0b6b3a7640000600a54600d5f3373ffffffffffffffffffffffffffffffffffffffff1673ffffffffffffffffffffffffffffffffffffffff1681526020019081526020015f205462003691919062004e18565b6200369d919062004e8f565b600c5f3373ffffffffffffffffffffffffffffffffffffffff1673ffffffffffffffffffffffffffffffffffffffff1681526020019081526020015f20819055506200372b33847f000000000000000000000000000000000000000000000000000000000000000073ffffffffffffffffffffffffffffffffffffffff1662003a159092919063ffffffff16565b3373ffffffffffffffffffffffffffffffffffffffff167f4c64e20317bdcab575a0c470a1ce708d481e8ce6c67d6bd1cdecb85b6cfea1918460405162003773919062004982565b60405180910390a2505062003787620039f7565b50565b5f8060015f8481526020019081526020015f2090505f816002015403620037b5575f915050620037e4565b8060020154670de0b6b3a76400008260010154620037d4919062004e18565b620037e0919062004e8f565b9150505b919050565b5f8054905090565b60045481565b7f000000000000000000000000000000000000000000000000000000000000000081565b6200382562004572565b60026200383b62003835620045b6565b620045df565b5f0181905550565b5f600d5f8373ffffffffffffffffffffffffffffffffffffffff1673ffffffffffffffffffffffffffffffffffffffff1681526020019081526020015f20541115620039f4575f600c5f8373ffffffffffffffffffffffffffffffffffffffff1673ffffffffffffffffffffffffffffffffffffffff1681526020019081526020015f2054670de0b6b3a7640000600a54600d5f8673ffffffffffffffffffffffffffffffffffffffff1673ffffffffffffffffffffffffffffffffffffffff1681526020019081526020015f20546200391e919062004e18565b6200392a919062004e8f565b62003936919062004ec6565b90505f811115620039f2575f8273ffffffffffffffffffffffffffffffffffffffff1682604051620039689062005510565b5f6040518083038185875af1925050503d805f8114620039a4576040519150601f19603f3d011682016040523d82523d5f602084013e620039a9565b606091505b5050905080620039f0576040517f08c379a0000000000000000000000000000000000000000000000000000000008152600401620039e79062005574565b60405180910390fd5b505b505b50565b600162003a0d62003a07620045b6565b620045df565b5f0181905550565b62003a248383836001620045e8565b62003a6857826040517f5274afe700000000000000000000000000000000000000000000000000000000815260040162003a5f919062004a44565b60405180910390fd5b505050565b5f60015f8581526020019081526020015f2090505f60025f8681526020019081526020015f205f8573ffffffffffffffffffffffffffffffffffffffff1673ffffffffffffffffffffffffffffffffffffffff1681526020019081526020015f2054111562003c52575f60035f8681526020019081526020015f205f8573ffffffffffffffffffffffffffffffffffffffff1673ffffffffffffffffffffffffffffffffffffffff1681526020019081526020015f2054670de0b6b3a7640000836006015460025f8981526020019081526020015f205f8873ffffffffffffffffffffffffffffffffffffffff1673ffffffffffffffffffffffffffffffffffffffff1681526020019081526020015f205462003b8b919062004e18565b62003b97919062004e8f565b62003ba3919062004ec6565b90505f81111562003c50577f000000000000000000000000000000000000000000000000000000000000000073ffffffffffffffffffffffffffffffffffffffff1663a9059cbb85836040518363ffffffff1660e01b815260040162003c0b92919062004f00565b6020604051808303815f875af115801562003c28573d5f803e3d5ffd5b505050506040513d601f19601f8201168201806040525081019062003c4e919062004f5a565b505b505b62003c5d8362003843565b8160025f8681526020019081526020015f205f8573ffffffffffffffffffffffffffffffffffffffff1673ffffffffffffffffffffffffffffffffffffffff1681526020019081526020015f205f82825462003cba9190620052ed565b9250508190555081816003015f82825462003cd69190620052ed565b9250508190555081600d5f8573ffffffffffffffffffffffffffffffffffffffff1673ffffffffffffffffffffffffffffffffffffffff1681526020019081526020015f205f82825462003d2b9190620052ed565b9250508190555081600b5f82825462003d459190620052ed565b92505081905550670de0b6b3a7640000816006015460025f8781526020019081526020015f205f8673ffffffffffffffffffffffffffffffffffffffff1673ffffffffffffffffffffffffffffffffffffffff1681526020019081526020015f205462003db3919062004e18565b62003dbf919062004e8f565b60035f8681526020019081526020015f205f8573ffffffffffffffffffffffffffffffffffffffff1673ffffffffffffffffffffffffffffffffffffffff1681526020019081526020015f2081905550670de0b6b3a7640000600a54600d5f8673ffffffffffffffffffffffffffffffffffffffff1673ffffffffffffffffffffffffffffffffffffffff1681526020019081526020015f205462003e65919062004e18565b62003e71919062004e8f565b600c5f8573ffffffffffffffffffffffffffffffffffffffff1673ffffffffffffffffffffffffffffffffffffffff1681526020019081526020015f208190555062003ebe84846200464c565b8273ffffffffffffffffffffffffffffffffffffffff16847f18dcd430020e4d4899772fd94a8b40451dc5044dfb70bc46b532eeae431c864f8460405162003f07919062004982565b60405180910390a350505050565b5f600b54111562003f6657600b54670de0b6b3a764000066b1a2bc2ec5000062003f40919062004e18565b62003f4c919062004e8f565b600a5f82825462003f5e9190620052ed565b925050819055505b565b62003f788484848460016200482e565b62003fbc57836040517f5274afe700000000000000000000000000000000000000000000000000000000815260040162003fb3919062004a44565b60405180910390fd5b50505050565b5f80600e5f8573ffffffffffffffffffffffffffffffffffffffff1673ffffffffffffffffffffffffffffffffffffffff1681526020019081526020015f205490505f60015f8381526020019081526020015f2090505f612710601e866200402b919062004e18565b62004037919062004e8f565b90505f818662004048919062004ec6565b90505f8184600201546200405d9190620052ed565b9050808460020154856001015462004076919062004e18565b62004082919062004e8f565b846001015462004093919062004ec6565b95508281620040a39190620052ed565b846002018190555085846001015f828254620040c0919062004ec6565b925050819055505f8460030154111562004151575f601e612710620040e6919062004ec6565b601e88620040f5919062004e18565b62004101919062004e8f565b90505f8111156200414f578460030154670de0b6b3a76400008262004127919062004e18565b62004133919062004e8f565b856006015f828254620041479190620052ed565b925050819055505b505b505050505092915050565b5f80600e5f8573ffffffffffffffffffffffffffffffffffffffff1673ffffffffffffffffffffffffffffffffffffffff1681526020019081526020015f205490505f60015f8381526020019081526020015f2090505f612710601e86620041c5919062004e18565b620041d1919062004e8f565b90505f8186620041e2919062004ec6565b90505f818460010154620041f79190620052ed565b9050808460020154856001015462004210919062004e18565b6200421c919062004e8f565b84600201546200422d919062004ec6565b955080846001018190555085846002015f8282546200424d919062004ec6565b925050819055505f84600301541115620042a4578360030154670de0b6b3a7640000846200427c919062004e18565b62004288919062004e8f565b846006015f8282546200429c9190620052ed565b925050819055505b505050505092915050565b5f80600554118015620042c357505f600454115b62004305576040517f08c379a0000000000000000000000000000000000000000000000000000000008152600401620042fc90620055e2565b60405180910390fd5b5f612710601e8462004318919062004e18565b62004324919062004e8f565b90505f818462004335919062004ec6565b90505f81600554620043489190620052ed565b9050806004546005546200435d919062004e18565b62004369919062004e8f565b60045462004378919062004ec6565b93508281620043889190620052ed565b6005819055508360045f828254620043a1919062004ec6565b925050819055505f60065411156200442c575f601e612710620043c5919062004ec6565b601e86620043d4919062004e18565b620043e0919062004e8f565b90505f8111156200442a57600654670de0b6b3a76400008262004404919062004e18565b62004410919062004e8f565b60075f828254620044229190620052ed565b925050819055505b505b505050919050565b5f806005541180156200444857505f600454115b6200448a576040517f08c379a00000000000000000000000000000000000000000000000000000000081526004016200448190620055e2565b60405180910390fd5b5f612710601e846200449d919062004e18565b620044a9919062004e8f565b90505f8184620044ba919062004ec6565b90505f81600454620044cd9190620052ed565b905080600454600554620044e2919062004e18565b620044ee919062004e8f565b600554620044fd919062004ec6565b9350806004819055508360055f82825462004519919062004ec6565b925050819055505f60065411156200456a57600654670de0b6b3a76400008462004544919062004e18565b62004550919062004e8f565b60075f828254620045629190620052ed565b925050819055505b505050919050565b6200457c620048a1565b15620045b4576040517f3ee5aeb500000000000000000000000000000000000000000000000000000000815260040160405180910390fd5b565b5f7f9b779b17422d0df92223018b32b4d1fa46e071723d6817e2486d003becc55f005f1b905090565b5f819050919050565b5f8063a9059cbb60e01b9050604051815f525f1960601c86166004528460245260205f60445f808b5af1925060015f511483166200463e57838315161562004632573d5f823e3d81fd5b5f873b113d1516831692505b806040525050949350505050565b5f60015f8481526020019081526020015f2090505f60025f8581526020019081526020015f205f8473ffffffffffffffffffffffffffffffffffffffff1673ffffffffffffffffffffffffffffffffffffffff1681526020019081526020015f205490508160050154811115620047c6575f826004015f9054906101000a900473ffffffffffffffffffffffffffffffffffffffff16905083836004015f6101000a81548173ffffffffffffffffffffffffffffffffffffffff021916908373ffffffffffffffffffffffffffffffffffffffff1602179055508183600501819055508373ffffffffffffffffffffffffffffffffffffffff168173ffffffffffffffffffffffffffffffffffffffff1614620047bf578373ffffffffffffffffffffffffffffffffffffffff168173ffffffffffffffffffffffffffffffffffffffff16867f079a159bc2c4ed6aaee92c293d83b6527a380c127aca07f41d3ab4c590957f5660405160405180910390a45b5062004828565b816004015f9054906101000a900473ffffffffffffffffffffffffffffffffffffffff1673ffffffffffffffffffffffffffffffffffffffff168373ffffffffffffffffffffffffffffffffffffffff160362004827578082600501819055505b5b50505050565b5f806323b872dd60e01b9050604051815f525f1960601c87166004525f1960601c86166024528460445260205f60645f808c5af1925060015f511483166200488e57838315161562004882573d5f823e3d81fd5b5f883b113d1516831692505b806040525f606052505095945050505050565b5f6002620048b8620048b2620045b6565b620045df565b5f015414905090565b611809806200560383390190565b5f80fd5b5f80fd5b5f73ffffffffffffffffffffffffffffffffffffffff82169050919050565b5f6200490282620048d7565b9050919050565b6200491481620048f6565b81146200491f575f80fd5b50565b5f81359050620049328162004909565b92915050565b5f6020828403121562004950576200494f620048cf565b5b5f6200495f8482850162004922565b91505092915050565b5f819050919050565b6200497c8162004968565b82525050565b5f602082019050620049975f83018462004971565b92915050565b620049a88162004968565b8114620049b3575f80fd5b50565b5f81359050620049c6816200499d565b92915050565b5f60208284031215620049e457620049e3620048cf565b5b5f620049f384828501620049b6565b91505092915050565b5f8115159050919050565b62004a1281620049fc565b82525050565b5f60208201905062004a2d5f83018462004a07565b92915050565b62004a3e81620048f6565b82525050565b5f60208201905062004a595f83018462004a33565b92915050565b5f806040838503121562004a785762004a77620048cf565b5b5f62004a8785828601620049b6565b925050602062004a9a8582860162004922565b9150509250929050565b5f80fd5b5f80fd5b5f80fd5b5f8083601f84011262004ac85762004ac762004aa4565b5b8235905067ffffffffffffffff81111562004ae85762004ae762004aa8565b5b60208301915083600182028301111562004b075762004b0662004aac565b5b9250929050565b5f805f805f806060878903121562004b2b5762004b2a620048cf565b5b5f87013567ffffffffffffffff81111562004b4b5762004b4a620048d3565b5b62004b5989828a0162004ab0565b9650965050602087013567ffffffffffffffff81111562004b7f5762004b7e620048d3565b5b62004b8d89828a0162004ab0565b9450945050604087013567ffffffffffffffff81111562004bb35762004bb2620048d3565b5b62004bc189828a0162004ab0565b92509250509295509295509295565b5f806040838503121562004be95762004be8620048cf565b5b5f62004bf885828601620049b6565b925050602062004c0b85828601620049b6565b9150509250929050565b5f819050919050565b5f62004c3e62004c3862004c3284620048d7565b62004c15565b620048d7565b9050919050565b5f62004c518262004c1e565b9050919050565b5f62004c648262004c45565b9050919050565b62004c768162004c58565b82525050565b5f60208201905062004c915f83018462004c6b565b92915050565b5f60e08201905062004cac5f83018a62004a33565b62004cbb602083018962004971565b62004cca604083018862004971565b62004cd9606083018762004971565b62004ce8608083018662004a33565b62004cf760a083018562004971565b62004d0660c083018462004971565b98975050505050505050565b5f60408201905062004d275f83018562004971565b62004d36602083018462004971565b9392505050565b5f805f806080858703121562004d585762004d57620048cf565b5b5f62004d678782880162004922565b945050602062004d7a8782880162004922565b935050604062004d8d87828801620049b6565b925050606062004da087828801620049b6565b91505092959194509250565b5f62004db88262004c45565b9050919050565b62004dca8162004dac565b82525050565b5f60208201905062004de55f83018462004dbf565b92915050565b7f4e487b71000000000000000000000000000000000000000000000000000000005f52601160045260245ffd5b5f62004e248262004968565b915062004e318362004968565b925082820262004e418162004968565b9150828204841483151762004e5b5762004e5a62004deb565b5b5092915050565b7f4e487b71000000000000000000000000000000000000000000000000000000005f52601260045260245ffd5b5f62004e9b8262004968565b915062004ea88362004968565b92508262004ebb5762004eba62004e62565b5b828204905092915050565b5f62004ed28262004968565b915062004edf8362004968565b925082820390508181111562004efa5762004ef962004deb565b5b92915050565b5f60408201905062004f155f83018562004a33565b62004f24602083018462004971565b9392505050565b62004f3681620049fc565b811462004f41575f80fd5b50565b5f8151905062004f548162004f2b565b92915050565b5f6020828403121562004f725762004f71620048cf565b5b5f62004f818482850162004f44565b91505092915050565b5f82825260208201905092915050565b7f4578616374206d696e74206665652072657175697265640000000000000000005f82015250565b5f62004fd060178362004f8a565b915062004fdd8262004f9a565b602082019050919050565b5f6020820190508181035f830152620050018162004fc2565b9050919050565b7f4d617820636172647320726561636865640000000000000000000000000000005f82015250565b5f6200503e60118362004f8a565b91506200504b8262005008565b602082019050919050565b5f6020820190508181035f8301526200506f8162005030565b9050919050565b5f620050828262004968565b91507fffffffffffffffffffffffffffffffffffffffffffffffffffffffffffffffff8203620050b757620050b662004deb565b5b600182019050919050565b828183375f83830152505050565b5f601f19601f8301169050919050565b5f620050ed838562004f8a565b9350620050fc838584620050c2565b6200510783620050d0565b840190509392505050565b5f6080820190508181035f8301526200512d81888a620050e0565b9050818103602083015262005144818688620050e0565b905062005155604083018562004a33565b62005164606083018462004971565b979650505050505050565b5f604082019050620051845f83018662004971565b818103602083015262005199818486620050e0565b9050949350505050565b7f42656c6f77206d696e696d756d000000000000000000000000000000000000005f82015250565b5f620051d9600d8362004f8a565b9150620051e682620051a3565b602082019050919050565b5f6020820190508181035f8301526200520a81620051cb565b9050919050565b7f4361726420646f6573206e6f74206578697374000000000000000000000000005f82015250565b5f6200524760138362004f8a565b9150620052548262005211565b602082019050919050565b5f6020820190508181035f830152620052788162005239565b9050919050565b7f5a65726f20616d6f756e740000000000000000000000000000000000000000005f82015250565b5f620052b5600b8362004f8a565b9150620052c2826200527f565b602082019050919050565b5f6020820190508181035f830152620052e681620052a7565b9050919050565b5f620052f98262004968565b9150620053068362004968565b925082820190508082111562005321576200532062004deb565b5b92915050565b7f496e73756666696369656e74207374616b6500000000000000000000000000005f82015250565b5f6200535d60128362004f8a565b91506200536a8262005327565b602082019050919050565b5f6020820190508181035f8301526200538e816200534f565b9050919050565b7f53616d6520746f6b656e000000000000000000000000000000000000000000005f82015250565b5f620053cb600a8362004f8a565b9150620053d88262005395565b602082019050919050565b5f6020820190508181035f830152620053fc81620053bd565b9050919050565b7f496e76616c6964207377617020726f75746500000000000000000000000000005f82015250565b5f6200543960128362004f8a565b9150620054468262005403565b602082019050919050565b5f6020820190508181035f8301526200546a816200542b565b9050919050565b7f536c6970706167650000000000000000000000000000000000000000000000005f82015250565b5f620054a760088362004f8a565b9150620054b48262005471565b602082019050919050565b5f6020820190508181035f830152620054d88162005499565b9050919050565b5f81905092915050565b50565b5f620054f95f83620054df565b91506200550682620054e9565b5f82019050919050565b5f6200551c82620054ec565b9150819050919050565b7f455448207472616e73666572206661696c6564000000000000000000000000005f82015250565b5f6200555c60138362004f8a565b9150620055698262005526565b602082019050919050565b5f6020820190508181035f8301526200558d816200554e565b9050919050565b7f5745544820706f6f6c206e6f7420696e697469616c697a6564000000000000005f82015250565b5f620055ca60198362004f8a565b9150620055d78262005594565b602082019050919050565b5f6020820190508181035f830152620055fb81620055bc565b905091905056fe608060405234801562000010575f80fd5b506040516200180938038062001809833981810160405281019062000036919062000546565b8383816003908162000049919062000821565b5080600490816200005b919062000821565b5050506200007082826200007a60201b60201c565b50505050620009ff565b5f73ffffffffffffffffffffffffffffffffffffffff168273ffffffffffffffffffffffffffffffffffffffff1603620000ed575f6040517fec442f05000000000000000000000000000000000000000000000000000000008152600401620000e4919062000916565b60405180910390fd5b620001005f83836200010460201b60201c565b5050565b5f73ffffffffffffffffffffffffffffffffffffffff168373ffffffffffffffffffffffffffffffffffffffff160362000158578060025f8282546200014b91906200095e565b9250508190555062000229565b5f805f8573ffffffffffffffffffffffffffffffffffffffff1673ffffffffffffffffffffffffffffffffffffffff1681526020019081526020015f2054905081811015620001e4578381836040517fe450d38c000000000000000000000000000000000000000000000000000000008152600401620001db93929190620009a9565b60405180910390fd5b8181035f808673ffffffffffffffffffffffffffffffffffffffff1673ffffffffffffffffffffffffffffffffffffffff1681526020019081526020015f2081905550505b5f73ffffffffffffffffffffffffffffffffffffffff168273ffffffffffffffffffffffffffffffffffffffff160362000272578060025f8282540392505081905550620002bc565b805f808473ffffffffffffffffffffffffffffffffffffffff1673ffffffffffffffffffffffffffffffffffffffff1681526020019081526020015f205f82825401925050819055505b8173ffffffffffffffffffffffffffffffffffffffff168373ffffffffffffffffffffffffffffffffffffffff167fddf252ad1be2c89b69c2b068fc378daa952ba7f163c4a11628f55a4df523b3ef836040516200031b9190620009e4565b60405180910390a3505050565b5f604051905090565b5f80fd5b5f80fd5b5f80fd5b5f80fd5b5f601f19601f8301169050919050565b7f4e487b71000000000000000000000000000000000000000000000000000000005f52604160045260245ffd5b620003898262000341565b810181811067ffffffffffffffff82111715620003ab57620003aa62000351565b5b80604052505050565b5f620003bf62000328565b9050620003cd82826200037e565b919050565b5f67ffffffffffffffff821115620003ef57620003ee62000351565b5b620003fa8262000341565b9050602081019050919050565b5f5b838110156200042657808201518184015260208101905062000409565b5f8484015250505050565b5f620004476200044184620003d2565b620003b4565b9050828152602081018484840111156200046657620004656200033d565b5b6200047384828562000407565b509392505050565b5f82601f83011262000492576200049162000339565b5b8151620004a484826020860162000431565b91505092915050565b5f73ffffffffffffffffffffffffffffffffffffffff82169050919050565b5f620004d882620004ad565b9050919050565b620004ea81620004cc565b8114620004f5575f80fd5b50565b5f815190506200050881620004df565b92915050565b5f819050919050565b62000522816200050e565b81146200052d575f80fd5b50565b5f81519050620005408162000517565b92915050565b5f805f806080858703121562000561576200056062000331565b5b5f85015167ffffffffffffffff81111562000581576200058062000335565b5b6200058f878288016200047b565b945050602085015167ffffffffffffffff811115620005b357620005b262000335565b5b620005c1878288016200047b565b9350506040620005d487828801620004f8565b9250506060620005e78782880162000530565b91505092959194509250565b5f81519050919050565b7f4e487b71000000000000000000000000000000000000000000000000000000005f52602260045260245ffd5b5f60028204905060018216806200064257607f821691505b602082108103620006585762000657620005fd565b5b50919050565b5f819050815f5260205f209050919050565b5f6020601f8301049050919050565b5f82821b905092915050565b5f60088302620006bc7fffffffffffffffffffffffffffffffffffffffffffffffffffffffffffffffff826200067f565b620006c886836200067f565b95508019841693508086168417925050509392505050565b5f819050919050565b5f6200070962000703620006fd846200050e565b620006e0565b6200050e565b9050919050565b5f819050919050565b6200072483620006e9565b6200073c620007338262000710565b8484546200068b565b825550505050565b5f90565b6200075262000744565b6200075f81848462000719565b505050565b5b8181101562000786576200077a5f8262000748565b60018101905062000765565b5050565b601f821115620007d5576200079f816200065e565b620007aa8462000670565b81016020851015620007ba578190505b620007d2620007c98562000670565b83018262000764565b50505b505050565b5f82821c905092915050565b5f620007f75f1984600802620007da565b1980831691505092915050565b5f620008118383620007e6565b9150826002028217905092915050565b6200082c82620005f3565b67ffffffffffffffff81111562000848576200084762000351565b5b6200085482546200062a565b620008618282856200078a565b5f60209050601f83116001811462000897575f841562000882578287015190505b6200088e858262000804565b865550620008fd565b601f198416620008a7866200065e565b5f5b82811015620008d057848901518255600182019150602085019450602081019050620008a9565b86831015620008f05784890151620008ec601f891682620007e6565b8355505b6001600288020188555050505b505050505050565b6200091081620004cc565b82525050565b5f6020820190506200092b5f83018462000905565b92915050565b7f4e487b71000000000000000000000000000000000000000000000000000000005f52601160045260245ffd5b5f6200096a826200050e565b915062000977836200050e565b925082820190508082111562000992576200099162000931565b5b92915050565b620009a3816200050e565b82525050565b5f606082019050620009be5f83018662000905565b620009cd602083018562000998565b620009dc604083018462000998565b949350505050565b5f602082019050620009f95f83018462000998565b92915050565b610dfc8062000a0d5f395ff3fe608060405234801561000f575f80fd5b5060043610610091575f3560e01c8063313ce56711610064578063313ce5671461013157806370a082311461014f57806395d89b411461017f578063a9059cbb1461019d578063dd62ed3e146101cd57610091565b806306fdde0314610095578063095ea7b3146100b357806318160ddd146100e357806323b872dd14610101575b5f80fd5b61009d6101fd565b6040516100aa9190610a75565b60405180910390f35b6100cd60048036038101906100c89190610b26565b61028d565b6040516100da9190610b7e565b60405180910390f35b6100eb6102af565b6040516100f89190610ba6565b60405180910390f35b61011b60048036038101906101169190610bbf565b6102b8565b6040516101289190610b7e565b60405180910390f35b6101396102e6565b6040516101469190610c2a565b60405180910390f35b61016960048036038101906101649190610c43565b6102ee565b6040516101769190610ba6565b60405180910390f35b610187610333565b6040516101949190610a75565b60405180910390f35b6101b760048036038101906101b29190610b26565b6103c3565b6040516101c49190610b7e565b60405180910390f35b6101e760048036038101906101e29190610c6e565b6103e5565b6040516101f49190610ba6565b60405180910390f35b60606003805461020c90610cd9565b80601f016020809104026020016040519081016040528092919081815260200182805461023890610cd9565b80156102835780601f1061025a57610100808354040283529160200191610283565b820191905f5260205f20905b81548152906001019060200180831161026657829003601f168201915b5050505050905090565b5f80610297610467565b90506102a481858561046e565b600191505092915050565b5f600254905090565b5f806102c2610467565b90506102cf858285610480565b6102da858585610513565b60019150509392505050565b5f6012905090565b5f805f8373ffffffffffffffffffffffffffffffffffffffff1673ffffffffffffffffffffffffffffffffffffffff1681526020019081526020015f20549050919050565b60606004805461034290610cd9565b80601f016020809104026020016040519081016040528092919081815260200182805461036e90610cd9565b80156103b95780601f10610390576101008083540402835291602001916103b9565b820191905f5260205f20905b81548152906001019060200180831161039c57829003601f168201915b5050505050905090565b5f806103cd610467565b90506103da818585610513565b600191505092915050565b5f60015f8473ffffffffffffffffffffffffffffffffffffffff1673ffffffffffffffffffffffffffffffffffffffff1681526020019081526020015f205f8373ffffffffffffffffffffffffffffffffffffffff1673ffffffffffffffffffffffffffffffffffffffff1681526020019081526020015f2054905092915050565b5f33905090565b61047b8383836001610603565b505050565b5f61048b84846103e5565b90507fffffffffffffffffffffffffffffffffffffffffffffffffffffffffffffffff81101561050d57818110156104fe578281836040517ffb8f41b20000000000000000000000000000000000000000000000000000000081526004016104f593929190610d18565b60405180910390fd5b61050c84848484035f610603565b5b50505050565b5f73ffffffffffffffffffffffffffffffffffffffff168373ffffffffffffffffffffffffffffffffffffffff1603610583575f6040517f96c6fd1e00000000000000000000000000000000000000000000000000000000815260040161057a9190610d4d565b60405180910390fd5b5f73ffffffffffffffffffffffffffffffffffffffff168273ffffffffffffffffffffffffffffffffffffffff16036105f3575f6040517fec442f050000000000000000000000000000000000000000000000000000000081526004016105ea9190610d4d565b60405180910390fd5b6105fe8383836107d2565b505050565b5f73ffffffffffffffffffffffffffffffffffffffff168473ffffffffffffffffffffffffffffffffffffffff1603610673575f6040517fe602df0500000000000000000000000000000000000000000000000000000000815260040161066a9190610d4d565b60405180910390fd5b5f73ffffffffffffffffffffffffffffffffffffffff168373ffffffffffffffffffffffffffffffffffffffff16036106e3575f6040517f94280d620000000000000000000000000000000000000000000000000000000081526004016106da9190610d4d565b60405180910390fd5b8160015f8673ffffffffffffffffffffffffffffffffffffffff1673ffffffffffffffffffffffffffffffffffffffff1681526020019081526020015f205f8573ffffffffffffffffffffffffffffffffffffffff1673ffffffffffffffffffffffffffffffffffffffff1681526020019081526020015f208190555080156107cc578273ffffffffffffffffffffffffffffffffffffffff168473ffffffffffffffffffffffffffffffffffffffff167f8c5be1e5ebec7d5bd14f71427d1e84f3dd0314c0f7b2291e5b200ac8c7c3b925846040516107c39190610ba6565b60405180910390a35b50505050565b5f73ffffffffffffffffffffffffffffffffffffffff168373ffffffffffffffffffffffffffffffffffffffff1603610822578060025f8282546108169190610d93565b925050819055506108f0565b5f805f8573ffffffffffffffffffffffffffffffffffffffff1673ffffffffffffffffffffffffffffffffffffffff1681526020019081526020015f20549050818110156108ab578381836040517fe450d38c0000000000000000000000000000000000000000000000000000000081526004016108a293929190610d18565b60405180910390fd5b8181035f808673ffffffffffffffffffffffffffffffffffffffff1673ffffffffffffffffffffffffffffffffffffffff1681526020019081526020015f2081905550505b5f73ffffffffffffffffffffffffffffffffffffffff168273ffffffffffffffffffffffffffffffffffffffff1603610937578060025f8282540392505081905550610981565b805f808473ffffffffffffffffffffffffffffffffffffffff1673ffffffffffffffffffffffffffffffffffffffff1681526020019081526020015f205f82825401925050819055505b8173ffffffffffffffffffffffffffffffffffffffff168373ffffffffffffffffffffffffffffffffffffffff167fddf252ad1be2c89b69c2b068fc378daa952ba7f163c4a11628f55a4df523b3ef836040516109de9190610ba6565b60405180910390a3505050565b5f81519050919050565b5f82825260208201905092915050565b5f5b83811015610a22578082015181840152602081019050610a07565b5f8484015250505050565b5f601f19601f8301169050919050565b5f610a47826109eb565b610a5181856109f5565b9350610a61818560208601610a05565b610a6a81610a2d565b840191505092915050565b5f6020820190508181035f830152610a8d8184610a3d565b905092915050565b5f80fd5b5f73ffffffffffffffffffffffffffffffffffffffff82169050919050565b5f610ac282610a99565b9050919050565b610ad281610ab8565b8114610adc575f80fd5b50565b5f81359050610aed81610ac9565b92915050565b5f819050919050565b610b0581610af3565b8114610b0f575f80fd5b50565b5f81359050610b2081610afc565b92915050565b5f8060408385031215610b3c57610b3b610a95565b5b5f610b4985828601610adf565b9250506020610b5a85828601610b12565b9150509250929050565b5f8115159050919050565b610b7881610b64565b82525050565b5f602082019050610b915f830184610b6f565b92915050565b610ba081610af3565b82525050565b5f602082019050610bb95f830184610b97565b92915050565b5f805f60608486031215610bd657610bd5610a95565b5b5f610be386828701610adf565b9350506020610bf486828701610adf565b9250506040610c0586828701610b12565b9150509250925092565b5f60ff82169050919050565b610c2481610c0f565b82525050565b5f602082019050610c3d5f830184610c1b565b92915050565b5f60208284031215610c5857610c57610a95565b5b5f610c6584828501610adf565b91505092915050565b5f8060408385031215610c8457610c83610a95565b5b5f610c9185828601610adf565b9250506020610ca285828601610adf565b9150509250929050565b7f4e487b71000000000000000000000000000000000000000000000000000000005f52602260045260245ffd5b5f6002820490506001821680610cf057607f821691505b602082108103610d0357610d02610cac565b5b50919050565b610d1281610ab8565b82525050565b5f606082019050610d2b5f830186610d09565b610d386020830185610b97565b610d456040830184610b97565b949350505050565b5f602082019050610d605f830184610d09565b92915050565b7f4e487b71000000000000000000000000000000000000000000000000000000005f52601160045260245ffd5b5f610d9d82610af3565b9150610da883610af3565b9250828201905080821115610dc057610dbf610d66565b5b9291505056fea264697066735822122030dafd78eff8672a3c12bc86bf32960bc0d87711845e3d000814f236b3de015364736f6c63430008180033a26469706673582212202e073ca6167b51d49cf548d9cd9f29a5d491c87c9c31594dcbd12d036a9e8b2a64736f6c6343000818003360a060405234801562000010575f80fd5b506040516200151138038062001511833981810160405281019062000036919062000168565b6040518060400160405280600581526020017f57415645530000000000000000000000000000000000000000000000000000008152506040518060400160405280600581526020017f57415645530000000000000000000000000000000000000000000000000000008152508160039081620000b39190620003fc565b508060049081620000c59190620003fc565b5050508073ffffffffffffffffffffffffffffffffffffffff1660808173ffffffffffffffffffffffffffffffffffffffff168152505050620004e0565b5f80fd5b5f73ffffffffffffffffffffffffffffffffffffffff82169050919050565b5f620001328262000107565b9050919050565b620001448162000126565b81146200014f575f80fd5b50565b5f81519050620001628162000139565b92915050565b5f6020828403121562000180576200017f62000103565b5b5f6200018f8482850162000152565b91505092915050565b5f81519050919050565b7f4e487b71000000000000000000000000000000000000000000000000000000005f52604160045260245ffd5b7f4e487b71000000000000000000000000000000000000000000000000000000005f52602260045260245ffd5b5f60028204905060018216806200021457607f821691505b6020821081036200022a5762000229620001cf565b5b50919050565b5f819050815f5260205f209050919050565b5f6020601f8301049050919050565b5f82821b905092915050565b5f600883026200028e7fffffffffffffffffffffffffffffffffffffffffffffffffffffffffffffffff8262000251565b6200029a868362000251565b95508019841693508086168417925050509392505050565b5f819050919050565b5f819050919050565b5f620002e4620002de620002d884620002b2565b620002bb565b620002b2565b9050919050565b5f819050919050565b620002ff83620002c4565b620003176200030e82620002eb565b8484546200025d565b825550505050565b5f90565b6200032d6200031f565b6200033a818484620002f4565b505050565b5b818110156200036157620003555f8262000323565b60018101905062000340565b5050565b601f821115620003b0576200037a8162000230565b620003858462000242565b8101602085101562000395578190505b620003ad620003a48562000242565b8301826200033f565b50505b505050565b5f82821c905092915050565b5f620003d25f1984600802620003b5565b1980831691505092915050565b5f620003ec8383620003c1565b9150826002028217905092915050565b620004078262000198565b67ffffffffffffffff811115620004235762000422620001a2565b5b6200042f8254620001fc565b6200043c82828562000365565b5f60209050601f83116001811462000472575f84156200045d578287015190505b620004698582620003df565b865550620004d8565b601f198416620004828662000230565b5f5b82811015620004ab5784890151825560018201915060208501945060208101905062000484565b86831015620004cb5784890151620004c7601f891682620003c1565b8355505b6001600288020188555050505b505050505050565b608051611011620005005f395f8181610378015261055901526110115ff3fe608060405234801561000f575f80fd5b50600436106100b2575f3560e01c806340c10f191161006f57806340c10f191461018e57806370a08231146101aa57806395d89b41146101da578063a9059cbb146101f8578063cbe9e7b614610228578063dd62ed3e14610246576100b2565b806306fdde03146100b6578063095ea7b3146100d457806318160ddd1461010457806323b872dd14610122578063313ce5671461015257806332cb6b0c14610170575b5f80fd5b6100be610276565b6040516100cb9190610c8a565b60405180910390f35b6100ee60048036038101906100e99190610d3b565b610306565b6040516100fb9190610d93565b60405180910390f35b61010c610328565b6040516101199190610dbb565b60405180910390f35b61013c60048036038101906101379190610dd4565b610331565b6040516101499190610d93565b60405180910390f35b61015a61035f565b6040516101679190610e3f565b60405180910390f35b610178610367565b6040516101859190610dbb565b60405180910390f35b6101a860048036038101906101a39190610d3b565b610376565b005b6101c460048036038101906101bf9190610e58565b610460565b6040516101d19190610dbb565b60405180910390f35b6101e26104a5565b6040516101ef9190610c8a565b60405180910390f35b610212600480360381019061020d9190610d3b565b610535565b60405161021f9190610d93565b60405180910390f35b610230610557565b60405161023d9190610e92565b60405180910390f35b610260600480360381019061025b9190610eab565b61057b565b60405161026d9190610dbb565b60405180910390f35b60606003805461028590610f16565b80601f01602080910402602001604051908101604052809291908181526020018280546102b190610f16565b80156102fc5780601f106102d3576101008083540402835291602001916102fc565b820191905f5260205f20905b8154815290600101906020018083116102df57829003601f168201915b5050505050905090565b5f806103106105fd565b905061031d818585610604565b600191505092915050565b5f600254905090565b5f8061033b6105fd565b9050610348858285610616565b6103538585856106a9565b60019150509392505050565b5f6012905090565b6a084595161401484a00000081565b7f000000000000000000000000000000000000000000000000000000000000000073ffffffffffffffffffffffffffffffffffffffff163373ffffffffffffffffffffffffffffffffffffffff16146103fb576040517f0192249500000000000000000000000000000000000000000000000000000000815260040160405180910390fd5b6a084595161401484a00000081610410610328565b61041a9190610f73565b1115610452576040517fc30436e900000000000000000000000000000000000000000000000000000000815260040160405180910390fd5b61045c8282610799565b5050565b5f805f8373ffffffffffffffffffffffffffffffffffffffff1673ffffffffffffffffffffffffffffffffffffffff1681526020019081526020015f20549050919050565b6060600480546104b490610f16565b80601f01602080910402602001604051908101604052809291908181526020018280546104e090610f16565b801561052b5780601f106105025761010080835404028352916020019161052b565b820191905f5260205f20905b81548152906001019060200180831161050e57829003601f168201915b5050505050905090565b5f8061053f6105fd565b905061054c8185856106a9565b600191505092915050565b7f000000000000000000000000000000000000000000000000000000000000000081565b5f60015f8473ffffffffffffffffffffffffffffffffffffffff1673ffffffffffffffffffffffffffffffffffffffff1681526020019081526020015f205f8373ffffffffffffffffffffffffffffffffffffffff1673ffffffffffffffffffffffffffffffffffffffff1681526020019081526020015f2054905092915050565b5f33905090565b6106118383836001610818565b505050565b5f610621848461057b565b90507fffffffffffffffffffffffffffffffffffffffffffffffffffffffffffffffff8110156106a35781811015610694578281836040517ffb8f41b200000000000000000000000000000000000000000000000000000000815260040161068b93929190610fa6565b60405180910390fd5b6106a284848484035f610818565b5b50505050565b5f73ffffffffffffffffffffffffffffffffffffffff168373ffffffffffffffffffffffffffffffffffffffff1603610719575f6040517f96c6fd1e0000000000000000000000000000000000000000000000000000000081526004016107109190610e92565b60405180910390fd5b5f73ffffffffffffffffffffffffffffffffffffffff168273ffffffffffffffffffffffffffffffffffffffff1603610789575f6040517fec442f050000000000000000000000000000000000000000000000000000000081526004016107809190610e92565b60405180910390fd5b6107948383836109e7565b505050565b5f73ffffffffffffffffffffffffffffffffffffffff168273ffffffffffffffffffffffffffffffffffffffff1603610809575f6040517fec442f050000000000000000000000000000000000000000000000000000000081526004016108009190610e92565b60405180910390fd5b6108145f83836109e7565b5050565b5f73ffffffffffffffffffffffffffffffffffffffff168473ffffffffffffffffffffffffffffffffffffffff1603610888575f6040517fe602df0500000000000000000000000000000000000000000000000000000000815260040161087f9190610e92565b60405180910390fd5b5f73ffffffffffffffffffffffffffffffffffffffff168373ffffffffffffffffffffffffffffffffffffffff16036108f8575f6040517f94280d620000000000000000000000000000000000000000000000000000000081526004016108ef9190610e92565b60405180910390fd5b8160015f8673ffffffffffffffffffffffffffffffffffffffff1673ffffffffffffffffffffffffffffffffffffffff1681526020019081526020015f205f8573ffffffffffffffffffffffffffffffffffffffff1673ffffffffffffffffffffffffffffffffffffffff1681526020019081526020015f208190555080156109e1578273ffffffffffffffffffffffffffffffffffffffff168473ffffffffffffffffffffffffffffffffffffffff167f8c5be1e5ebec7d5bd14f71427d1e84f3dd0314c0f7b2291e5b200ac8c7c3b925846040516109d89190610dbb565b60405180910390a35b50505050565b5f73ffffffffffffffffffffffffffffffffffffffff168373ffffffffffffffffffffffffffffffffffffffff1603610a37578060025f828254610a2b9190610f73565b92505081905550610b05565b5f805f8573ffffffffffffffffffffffffffffffffffffffff1673ffffffffffffffffffffffffffffffffffffffff1681526020019081526020015f2054905081811015610ac0578381836040517fe450d38c000000000000000000000000000000000000000000000000000000008152600401610ab793929190610fa6565b60405180910390fd5b8181035f808673ffffffffffffffffffffffffffffffffffffffff1673ffffffffffffffffffffffffffffffffffffffff1681526020019081526020015f2081905550505b5f73ffffffffffffffffffffffffffffffffffffffff168273ffffffffffffffffffffffffffffffffffffffff1603610b4c578060025f8282540392505081905550610b96565b805f808473ffffffffffffffffffffffffffffffffffffffff1673ffffffffffffffffffffffffffffffffffffffff1681526020019081526020015f205f82825401925050819055505b8173ffffffffffffffffffffffffffffffffffffffff168373ffffffffffffffffffffffffffffffffffffffff167fddf252ad1be2c89b69c2b068fc378daa952ba7f163c4a11628f55a4df523b3ef83604051610bf39190610dbb565b60405180910390a3505050565b5f81519050919050565b5f82825260208201905092915050565b5f5b83811015610c37578082015181840152602081019050610c1c565b5f8484015250505050565b5f601f19601f8301169050919050565b5f610c5c82610c00565b610c668185610c0a565b9350610c76818560208601610c1a565b610c7f81610c42565b840191505092915050565b5f6020820190508181035f830152610ca28184610c52565b905092915050565b5f80fd5b5f73ffffffffffffffffffffffffffffffffffffffff82169050919050565b5f610cd782610cae565b9050919050565b610ce781610ccd565b8114610cf1575f80fd5b50565b5f81359050610d0281610cde565b92915050565b5f819050919050565b610d1a81610d08565b8114610d24575f80fd5b50565b5f81359050610d3581610d11565b92915050565b5f8060408385031215610d5157610d50610caa565b5b5f610d5e85828601610cf4565b9250506020610d6f85828601610d27565b9150509250929050565b5f8115159050919050565b610d8d81610d79565b82525050565b5f602082019050610da65f830184610d84565b92915050565b610db581610d08565b82525050565b5f602082019050610dce5f830184610dac565b92915050565b5f805f60608486031215610deb57610dea610caa565b5b5f610df886828701610cf4565b9350506020610e0986828701610cf4565b9250506040610e1a86828701610d27565b9150509250925092565b5f60ff82169050919050565b610e3981610e24565b82525050565b5f602082019050610e525f830184610e30565b92915050565b5f60208284031215610e6d57610e6c610caa565b5b5f610e7a84828501610cf4565b91505092915050565b610e8c81610ccd565b82525050565b5f602082019050610ea55f830184610e83565b92915050565b5f8060408385031215610ec157610ec0610caa565b5b5f610ece85828601610cf4565b9250506020610edf85828601610cf4565b9150509250929050565b7f4e487b71000000000000000000000000000000000000000000000000000000005f52602260045260245ffd5b5f6002820490506001821680610f2d57607f821691505b602082108103610f4057610f3f610ee9565b5b50919050565b7f4e487b71000000000000000000000000000000000000000000000000000000005f52601160045260245ffd5b5f610f7d82610d08565b9150610f8883610d08565b9250828201905080821115610fa057610f9f610f46565b5b92915050565b5f606082019050610fb95f830186610e83565b610fc66020830185610dac565b610fd36040830184610dac565b94935050505056fea26469706673582212207c735d8d021c65fc65751f3eab8000cb293e87756077cff4c5db63244255fbff64736f6c6343000818003360a060405234801562000010575f80fd5b5060405162001c9338038062001c93833981810160405281019062000036919062000167565b6040518060400160405280600f81526020017f576869726c706f6f6c20436172647300000000000000000000000000000000008152506040518060400160405280600581526020017f5743415244000000000000000000000000000000000000000000000000000000815250815f9081620000b29190620003fb565b508060019081620000c49190620003fb565b5050508073ffffffffffffffffffffffffffffffffffffffff1660808173ffffffffffffffffffffffffffffffffffffffff168152505050620004df565b5f80fd5b5f73ffffffffffffffffffffffffffffffffffffffff82169050919050565b5f620001318262000106565b9050919050565b620001438162000125565b81146200014e575f80fd5b50565b5f81519050620001618162000138565b92915050565b5f602082840312156200017f576200017e62000102565b5b5f6200018e8482850162000151565b91505092915050565b5f81519050919050565b7f4e487b71000000000000000000000000000000000000000000000000000000005f52604160045260245ffd5b7f4e487b71000000000000000000000000000000000000000000000000000000005f52602260045260245ffd5b5f60028204905060018216806200021357607f821691505b602082108103620002295762000228620001ce565b5b50919050565b5f819050815f5260205f209050919050565b5f6020601f8301049050919050565b5f82821b905092915050565b5f600883026200028d7fffffffffffffffffffffffffffffffffffffffffffffffffffffffffffffffff8262000250565b62000299868362000250565b95508019841693508086168417925050509392505050565b5f819050919050565b5f819050919050565b5f620002e3620002dd620002d784620002b1565b620002ba565b620002b1565b9050919050565b5f819050919050565b620002fe83620002c3565b620003166200030d82620002ea565b8484546200025c565b825550505050565b5f90565b6200032c6200031e565b62000339818484620002f3565b505050565b5b818110156200036057620003545f8262000322565b6001810190506200033f565b5050565b601f821115620003af5762000379816200022f565b620003848462000241565b8101602085101562000394578190505b620003ac620003a38562000241565b8301826200033e565b50505b505050565b5f82821c905092915050565b5f620003d15f1984600802620003b4565b1980831691505092915050565b5f620003eb8383620003c0565b9150826002028217905092915050565b620004068262000197565b67ffffffffffffffff811115620004225762000421620001a1565b5b6200042e8254620001fb565b6200043b82828562000364565b5f60209050601f83116001811462000471575f84156200045c578287015190505b620004688582620003de565b865550620004d7565b601f19841662000481866200022f565b5f5b82811015620004aa5784890151825560018201915060208501945060208101905062000483565b86831015620004ca5784890151620004c6601f891682620003c0565b8355505b6001600288020188555050505b505050505050565b6080516117866200050d5f395f81816105e50152818161073a015281816108710152610b6b01526117865ff3fe608060405234801561000f575f80fd5b50600436106100fe575f3560e01c806370a0823111610095578063b88d4fde11610064578063b88d4fde146102ba578063c87b56dd146102d6578063cbe9e7b614610306578063e985e9c514610324576100fe565b806370a082311461023457806377097fc81461026457806395d89b4114610280578063a22cb4651461029e576100fe565b806323b872dd116100d157806323b872dd1461019c57806342842e0e146101b85780634f558e79146101d45780636352211e14610204576100fe565b806301ffc9a71461010257806306fdde0314610132578063081812fc14610150578063095ea7b314610180575b5f80fd5b61011c60048036038101906101179190610c63565b610354565b6040516101299190610ca8565b60405180910390f35b61013a610435565b6040516101479190610d4b565b60405180910390f35b61016a60048036038101906101659190610d9e565b6104c4565b6040516101779190610e08565b60405180910390f35b61019a60048036038101906101959190610e4b565b6104ca565b005b6101b660048036038101906101b19190610e89565b610505565b005b6101d260048036038101906101cd9190610e89565b610540565b005b6101ee60048036038101906101e99190610d9e565b61055f565b6040516101fb9190610ca8565b60405180910390f35b61021e60048036038101906102199190610d9e565b610585565b60405161022b9190610e08565b60405180910390f35b61024e60048036038101906102499190610ed9565b610682565b60405161025b9190610f13565b60405180910390f35b61027e60048036038101906102799190610f8d565b610738565b005b610288610965565b6040516102959190610d4b565b60405180910390f35b6102b860048036038101906102b39190611014565b6109f5565b005b6102d460048036038101906102cf919061117a565b610a30565b005b6102f060048036038101906102eb9190610d9e565b610a6b565b6040516102fd9190610d4b565b60405180910390f35b61030e610b69565b60405161031b9190610e08565b60405180910390f35b61033e600480360381019061033991906111fa565b610b8d565b60405161034b9190610ca8565b60405180910390f35b5f7f80ac58cd000000000000000000000000000000000000000000000000000000007bffffffffffffffffffffffffffffffffffffffffffffffffffffffff1916827bffffffffffffffffffffffffffffffffffffffffffffffffffffffff1916148061041e57507f5b5e139f000000000000000000000000000000000000000000000000000000007bffffffffffffffffffffffffffffffffffffffffffffffffffffffff1916827bffffffffffffffffffffffffffffffffffffffffffffffffffffffff1916145b8061042e575061042d82610b94565b5b9050919050565b60605f805461044390611265565b80601f016020809104026020016040519081016040528092919081815260200182805461046f90611265565b80156104ba5780601f10610491576101008083540402835291602001916104ba565b820191905f5260205f20905b81548152906001019060200180831161049d57829003601f168201915b5050505050905090565b5f919050565b6040517f08c379a00000000000000000000000000000000000000000000000000000000081526004016104fc906112df565b60405180910390fd5b6040517f08c379a000000000000000000000000000000000000000000000000000000000815260040161053790611347565b60405180910390fd5b61055a83838360405180602001604052805f815250610a30565b505050565b5f60075f8381526020019081526020015f205f9054906101000a900460ff169050919050565b5f60075f8381526020019081526020015f205f9054906101000a900460ff166105e3576040517f08c379a00000000000000000000000000000000000000000000000000000000081526004016105da906113af565b60405180910390fd5b7f000000000000000000000000000000000000000000000000000000000000000073ffffffffffffffffffffffffffffffffffffffff16631f7ae6bc836040518263ffffffff1660e01b815260040161063c9190610f13565b602060405180830381865afa158015610657573d5f803e3d5ffd5b505050506040513d601f19601f8201168201806040525081019061067b91906113e1565b9050919050565b5f8073ffffffffffffffffffffffffffffffffffffffff168273ffffffffffffffffffffffffffffffffffffffff16036106f3575f6040517f89c62b640000000000000000000000000000000000000000000000000000000081526004016106ea9190610e08565b60405180910390fd5b60035f8373ffffffffffffffffffffffffffffffffffffffff1673ffffffffffffffffffffffffffffffffffffffff1681526020019081526020015f20549050919050565b7f000000000000000000000000000000000000000000000000000000000000000073ffffffffffffffffffffffffffffffffffffffff163373ffffffffffffffffffffffffffffffffffffffff16146107c6576040517f08c379a00000000000000000000000000000000000000000000000000000000081526004016107bd90611456565b60405180910390fd5b60075f8481526020019081526020015f205f9054906101000a900460ff1615610824576040517f08c379a000000000000000000000000000000000000000000000000000000000815260040161081b906114be565b60405180910390fd5b600160075f8581526020019081526020015f205f6101000a81548160ff021916908315150217905550818160065f8681526020019081526020015f20918261086d929190611683565b50827f000000000000000000000000000000000000000000000000000000000000000073ffffffffffffffffffffffffffffffffffffffff16631f7ae6bc856040518263ffffffff1660e01b81526004016108c89190610f13565b602060405180830381865afa1580156108e3573d5f803e3d5ffd5b505050506040513d601f19601f8201168201806040525081019061090791906113e1565b73ffffffffffffffffffffffffffffffffffffffff165f73ffffffffffffffffffffffffffffffffffffffff167fddf252ad1be2c89b69c2b068fc378daa952ba7f163c4a11628f55a4df523b3ef60405160405180910390a4505050565b60606001805461097490611265565b80601f01602080910402602001604051908101604052809291908181526020018280546109a090611265565b80156109eb5780601f106109c2576101008083540402835291602001916109eb565b820191905f5260205f20905b8154815290600101906020018083116109ce57829003601f168201915b5050505050905090565b6040517f08c379a0000000000000000000000000000000000000000000000000000000008152600401610a27906112df565b60405180910390fd5b6040517f08c379a0000000000000000000000000000000000000000000000000000000008152600401610a6290611347565b60405180910390fd5b606060075f8381526020019081526020015f205f9054906101000a900460ff16610aca576040517f08c379a0000000000000000000000000000000000000000000000000000000008152600401610ac1906113af565b60405180910390fd5b60065f8381526020019081526020015f208054610ae690611265565b80601f0160208091040260200160405190810160405280929190818152602001828054610b1290611265565b8015610b5d5780601f10610b3457610100808354040283529160200191610b5d565b820191905f5260205f20905b815481529060010190602001808311610b4057829003601f168201915b50505050509050919050565b7f000000000000000000000000000000000000000000000000000000000000000081565b5f92915050565b5f7f01ffc9a7000000000000000000000000000000000000000000000000000000007bffffffffffffffffffffffffffffffffffffffffffffffffffffffff1916827bffffffffffffffffffffffffffffffffffffffffffffffffffffffff1916149050919050565b5f604051905090565b5f80fd5b5f80fd5b5f7fffffffff0000000000000000000000000000000000000000000000000000000082169050919050565b610c4281610c0e565b8114610c4c575f80fd5b50565b5f81359050610c5d81610c39565b92915050565b5f60208284031215610c7857610c77610c06565b5b5f610c8584828501610c4f565b91505092915050565b5f8115159050919050565b610ca281610c8e565b82525050565b5f602082019050610cbb5f830184610c99565b92915050565b5f81519050919050565b5f82825260208201905092915050565b5f5b83811015610cf8578082015181840152602081019050610cdd565b5f8484015250505050565b5f601f19601f8301169050919050565b5f610d1d82610cc1565b610d278185610ccb565b9350610d37818560208601610cdb565b610d4081610d03565b840191505092915050565b5f6020820190508181035f830152610d638184610d13565b905092915050565b5f819050919050565b610d7d81610d6b565b8114610d87575f80fd5b50565b5f81359050610d9881610d74565b92915050565b5f60208284031215610db357610db2610c06565b5b5f610dc084828501610d8a565b91505092915050565b5f73ffffffffffffffffffffffffffffffffffffffff82169050919050565b5f610df282610dc9565b9050919050565b610e0281610de8565b82525050565b5f602082019050610e1b5f830184610df9565b92915050565b610e2a81610de8565b8114610e34575f80fd5b50565b5f81359050610e4581610e21565b92915050565b5f8060408385031215610e6157610e60610c06565b5b5f610e6e85828601610e37565b9250506020610e7f85828601610d8a565b9150509250929050565b5f805f60608486031215610ea057610e9f610c06565b5b5f610ead86828701610e37565b9350506020610ebe86828701610e37565b9250506040610ecf86828701610d8a565b9150509250925092565b5f60208284031215610eee57610eed610c06565b5b5f610efb84828501610e37565b91505092915050565b610f0d81610d6b565b82525050565b5f602082019050610f265f830184610f04565b92915050565b5f80fd5b5f80fd5b5f80fd5b5f8083601f840112610f4d57610f4c610f2c565b5b8235905067ffffffffffffffff811115610f6a57610f69610f30565b5b602083019150836001820283011115610f8657610f85610f34565b5b9250929050565b5f805f60408486031215610fa457610fa3610c06565b5b5f610fb186828701610d8a565b935050602084013567ffffffffffffffff811115610fd257610fd1610c0a565b5b610fde86828701610f38565b92509250509250925092565b610ff381610c8e565b8114610ffd575f80fd5b50565b5f8135905061100e81610fea565b92915050565b5f806040838503121561102a57611029610c06565b5b5f61103785828601610e37565b925050602061104885828601611000565b9150509250929050565b5f80fd5b7f4e487b71000000000000000000000000000000000000000000000000000000005f52604160045260245ffd5b61108c82610d03565b810181811067ffffffffffffffff821117156110ab576110aa611056565b5b80604052505050565b5f6110bd610bfd565b90506110c98282611083565b919050565b5f67ffffffffffffffff8211156110e8576110e7611056565b5b6110f182610d03565b9050602081019050919050565b828183375f83830152505050565b5f61111e611119846110ce565b6110b4565b90508281526020810184848401111561113a57611139611052565b5b6111458482856110fe565b509392505050565b5f82601f83011261116157611160610f2c565b5b813561117184826020860161110c565b91505092915050565b5f805f806080858703121561119257611191610c06565b5b5f61119f87828801610e37565b94505060206111b087828801610e37565b93505060406111c187828801610d8a565b925050606085013567ffffffffffffffff8111156111e2576111e1610c0a565b5b6111ee8782880161114d565b91505092959194509250565b5f80604083850312156112105761120f610c06565b5b5f61121d85828601610e37565b925050602061122e85828601610e37565b9150509250929050565b7f4e487b71000000000000000000000000000000000000000000000000000000005f52602260045260245ffd5b5f600282049050600182168061127c57607f821691505b60208210810361128f5761128e611238565b5b50919050565b7f417070726f76616c732064697361626c656400000000000000000000000000005f82015250565b5f6112c9601283610ccb565b91506112d482611295565b602082019050919050565b5f6020820190508181035f8301526112f6816112bd565b9050919050565b7f5472616e73666572732064697361626c656400000000000000000000000000005f82015250565b5f611331601283610ccb565b915061133c826112fd565b602082019050919050565b5f6020820190508181035f83015261135e81611325565b9050919050565b7f546f6b656e20646f6573206e6f742065786973740000000000000000000000005f82015250565b5f611399601483610ccb565b91506113a482611365565b602082019050919050565b5f6020820190508181035f8301526113c68161138d565b9050919050565b5f815190506113db81610e21565b92915050565b5f602082840312156113f6576113f5610c06565b5b5f611403848285016113cd565b91505092915050565b7f4f6e6c7920776869726c706f6f6c0000000000000000000000000000000000005f82015250565b5f611440600e83610ccb565b915061144b8261140c565b602082019050919050565b5f6020820190508181035f83015261146d81611434565b9050919050565b7f416c7265616479206d696e7465640000000000000000000000000000000000005f82015250565b5f6114a8600e83610ccb565b91506114b382611474565b602082019050919050565b5f6020820190508181035f8301526114d58161149c565b9050919050565b5f82905092915050565b5f819050815f5260205f209050919050565b5f6020601f8301049050919050565b5f82821b905092915050565b5f600883026115427fffffffffffffffffffffffffffffffffffffffffffffffffffffffffffffffff82611507565b61154c8683611507565b95508019841693508086168417925050509392505050565b5f819050919050565b5f61158761158261157d84610d6b565b611564565b610d6b565b9050919050565b5f819050919050565b6115a08361156d565b6115b46115ac8261158e565b848454611513565b825550505050565b5f90565b6115c86115bc565b6115d3818484611597565b505050565b5b818110156115f6576115eb5f826115c0565b6001810190506115d9565b5050565b601f82111561163b5761160c816114e6565b611615846114f8565b81016020851015611624578190505b611638611630856114f8565b8301826115d8565b50505b505050565b5f82821c905092915050565b5f61165b5f1984600802611640565b1980831691505092915050565b5f611673838361164c565b9150826002028217905092915050565b61168d83836114dc565b67ffffffffffffffff8111156116a6576116a5611056565b5b6116b08254611265565b6116bb8282856115fa565b5f601f8311600181146116e8575f84156116d6578287013590505b6116e08582611668565b865550611747565b601f1984166116f6866114e6565b5f5b8281101561171d578489013582556001820191506020850194506020810190506116f8565b8683101561173a5784890135611736601f89168261164c565b8355505b6001600288020188555050505b5050505050505056fea2646970667358221220ba83f9ae6d38f5f6567dad42a78c486c121c8eea0d4cf39bd13794e14f0442dd64736f6c63430008180033","linkReferences":{}},"methodIdentifiers":{"CARD_SUPPLY()":"811ad8f3","MAX_CARDS()":"7e744a76","MINT_FEE()":"d7bf81a3","SWAP_FEE_BPS()":"67a6c440","WAVES_PER_CARD()":"c4e2c058","WETH_BOOST()":"b10c90bb","accEthPerWeight()":"7983c193","accWavesPerWethShare()":"3c68bb46","bidNFT()":"f83764d7","cardToken(uint256)":"4d9c194f","cards(uint256)":"8dc10768","claimRewards(uint256)":"0962ef79","claimWETHRewards()":"38430832","createCard(string,string,string)":"6f4fa801","getPrice(uint256)":"e7572230","getReserves(uint256)":"8ea7495c","getWethReserves()":"b3bf4102","isCardToken(address)":"1b6ff5d1","ownerOfCard(uint256)":"1f7ae6bc","pendingGlobalRewards(address)":"60dec710","pendingRewards(uint256,address)":"d18df53c","protocol()":"8ce74426","stake(uint256,uint256)":"7b0472f0","stakeOf(uint256,address)":"31c85986","stakeWETH(uint256)":"928c4ee6","swapExact(address,address,uint256,uint256)":"a2021833","tokenToCard(address)":"03b1d2a0","totalCards()":"e994c15d","totalCards_()":"0630ee74","totalGlobalWeight()":"85d37b92","totalWethStaked()":"07a23f73","unstake(uint256,uint256)":"9e2c8a5b","unstakeWETH(uint256)":"df09044e","userCardDebt(uint256,address)":"52bc6ffe","userCardStake(uint256,address)":"a782c25c","userGlobalDebt(address)":"b3432cd2","userGlobalWeight(address)":"ccfb97bb","userWethDebt(address)":"16bc6e94","userWethStake(address)":"157b0a42","waves()":"875d5012","wavesWethReserve()":"f2e35fdf","weth()":"3fc8cef3","wethReserve()":"155b20dd"},"id":46}