{"abi":[{"type":"constructor","inputs":[{"name":"whirlpool_","type":"address","internalType":"address"},{"name":"router_","type":"address","internalType":"address"}],"stateMutability":"nonpayable"},{"type":"function","name":"approve","inputs":[{"name":"","type":"address","internalType":"address"},{"name":"","type":"uint256","internalType":"uint256"}],"outputs":[],"stateMutability":"pure"},{"type":"function","name":"balanceOf","inputs":[{"name":"owner","type":"address","internalType":"address"}],"outputs":[{"name":"","type":"uint256","internalType":"uint256"}],"stateMutability":"view"},{"type":"function","name":"exists","inputs":[{"name":"tokenId","type":"uint256","internalType":"uint256"}],"outputs":[{"name":"","type":"bool","internalType":"bool"}],"stateMutability":"view"},{"type":"function","name":"getApproved","inputs":[{"name":"","type":"uint256","internalType":"uint256"}],"outputs":[{"name":"","type":"address","internalType":"address"}],"stateMutability":"pure"},{"type":"function","name":"isApprovedForAll","inputs":[{"name":"","type":"address","internalType":"address"},{"name":"","type":"address","internalType":"address"}],"outputs":[{"name":"","type":"bool","internalType":"bool"}],"stateMutability":"pure"},{"type":"function","name":"mint","inputs":[{"name":"cardId","type":"uint256","internalType":"uint256"},{"name":"tokenURI_","type":"string","internalType":"string"}],"outputs":[],"stateMutability":"nonpayable"},{"type":"function","name":"name","inputs":[],"outputs":[{"name":"","type":"string","internalType":"string"}],"stateMutability":"view"},{"type":"function","name":"ownerOf","inputs":[{"name":"tokenId","type":"uint256","internalType":"uint256"}],"outputs":[{"name":"","type":"address","internalType":"address"}],"stateMutability":"view"},{"type":"function","name":"router","inputs":[],"outputs":[{"name":"","type":"address","internalType":"address"}],"stateMutability":"view"},{"type":"function","name":"safeTransferFrom","inputs":[{"name":"from","type":"address","internalType":"address"},{"name":"to","type":"address","internalType":"address"},{"name":"tokenId","type":"uint256","internalType":"uint256"}],"outputs":[],"stateMutability":"nonpayable"},{"type":"function","name":"safeTransferFrom","inputs":[{"name":"","type":"address","internalType":"address"},{"name":"","type":"address","internalType":"address"},{"name":"","type":"uint256","internalType":"uint256"},{"name":"","type":"bytes","internalType":"bytes"}],"outputs":[],"stateMutability":"pure"},{"type":"function","name":"setApprovalForAll","inputs":[{"name":"","type":"address","internalType":"address"},{"name":"","type":"bool","internalType":"bool"}],"outputs":[],"stateMutability":"pure"},{"type":"function","name":"supportsInterface","inputs":[{"name":"interfaceId","type":"bytes4","internalType":"bytes4"}],"outputs":[{"name":"","type":"bool","internalType":"bool"}],"stateMutability":"view"},{"type":"function","name":"symbol","inputs":[],"outputs":[{"name":"","type":"string","internalType":"string"}],"stateMutability":"view"},{"type":"function","name":"tokenURI","inputs":[{"name":"tokenId","type":"uint256","internalType":"uint256"}],"outputs":[{"name":"","type":"string","internalType":"string"}],"stateMutability":"view"},{"type":"function","name":"transferFrom","inputs":[{"name":"","type":"address","internalType":"address"},{"name":"","type":"address","internalType":"address"},{"name":"","type":"uint256","internalType":"uint256"}],"outputs":[],"stateMutability":"pure"},{"type":"function","name":"whirlpool","inputs":[],"outputs":[{"name":"","type":"address","internalType":"address"}],"stateMutability":"view"},{"type":"event","name":"Approval","inputs":[{"name":"owner","type":"address","indexed":true,"internalType":"address"},{"name":"approved","type":"address","indexed":true,"internalType":"address"},{"name":"tokenId","type":"uint256","indexed":true,"internalType":"uint256"}],"anonymous":false},{"type":"event","name":"ApprovalForAll","inputs":[{"name":"owner","type":"address","indexed":true,"internalType":"address"},{"name":"operator","type":"address","indexed":true,"internalType":"address"},{"name":"approved","type":"bool","indexed":false,"internalType":"bool"}],"anonymous":false},{"type":"event","name":"Transfer","inputs":[{"name":"from","type":"address","indexed":true,"internalType":"address"},{"name":"to","type":"address","indexed":true,"internalType":"address"},{"name":"tokenId","type":"uint256","indexed":true,"internalType":"uint256"}],"anonymous":false},{"type":"error","name":"ERC721IncorrectOwner","inputs":[{"name":"sender","type":"address","internalType":"address"},{"name":"tokenId","type":"uint256","internalType":"uint256"},{"name":"owner","type":"address","internalType":"address"}]},{"type":"error","name":"ERC721InsufficientApproval","inputs":[{"name":"operator","type":"address","internalType":"address"},{"name":"tokenId","type":"uint256","internalType":"uint256"}]},{"type":"error","name":"ERC721InvalidApprover","inputs":[{"name":"approver","type":"address","internalType":"address"}]},{"type":"error","name":"ERC721InvalidOperator","inputs":[{"name":"operator","type":"address","internalType":"address"}]},{"type":"error","name":"ERC721InvalidOwner","inputs":[{"name":"owner","type":"address","internalType":"address"}]},{"type":"error","name":"ERC721InvalidReceiver","inputs":[{"name":"receiver","type":"address","internalType":"address"}]},{"type":"error","name":"ERC721InvalidSender","inputs":[{"name":"sender","type":"address","internalType":"address"}]},{"type":"error","name":"ERC721NonexistentToken","inputs":[{"name":"tokenId","type":"uint256","internalType":"uint256"}]}],"bytecode":{"object":"0x60c060405234801562000010575f80fd5b5060405162001d3338038062001d3383398181016040528101906200003691906200019c565b6040518060400160405280600f81526020017f576869726c706f6f6c20436172647300000000000000000000000000000000008152506040518060400160405280600581526020017f5743415244000000000000000000000000000000000000000000000000000000815250815f9081620000b2919062000445565b508060019081620000c4919062000445565b5050508173ffffffffffffffffffffffffffffffffffffffff1660808173ffffffffffffffffffffffffffffffffffffffff16815250508073ffffffffffffffffffffffffffffffffffffffff1660a08173ffffffffffffffffffffffffffffffffffffffff1681525050505062000529565b5f80fd5b5f73ffffffffffffffffffffffffffffffffffffffff82169050919050565b5f62000166826200013b565b9050919050565b62000178816200015a565b811462000183575f80fd5b50565b5f8151905062000196816200016d565b92915050565b5f8060408385031215620001b557620001b462000137565b5b5f620001c48582860162000186565b9250506020620001d78582860162000186565b9150509250929050565b5f81519050919050565b7f4e487b71000000000000000000000000000000000000000000000000000000005f52604160045260245ffd5b7f4e487b71000000000000000000000000000000000000000000000000000000005f52602260045260245ffd5b5f60028204905060018216806200025d57607f821691505b60208210810362000273576200027262000218565b5b50919050565b5f819050815f5260205f209050919050565b5f6020601f8301049050919050565b5f82821b905092915050565b5f60088302620002d77fffffffffffffffffffffffffffffffffffffffffffffffffffffffffffffffff826200029a565b620002e386836200029a565b95508019841693508086168417925050509392505050565b5f819050919050565b5f819050919050565b5f6200032d620003276200032184620002fb565b62000304565b620002fb565b9050919050565b5f819050919050565b62000348836200030d565b62000360620003578262000334565b848454620002a6565b825550505050565b5f90565b6200037662000368565b620003838184846200033d565b505050565b5b81811015620003aa576200039e5f826200036c565b60018101905062000389565b5050565b601f821115620003f957620003c38162000279565b620003ce846200028b565b81016020851015620003de578190505b620003f6620003ed856200028b565b83018262000388565b50505b505050565b5f82821c905092915050565b5f6200041b5f1984600802620003fe565b1980831691505092915050565b5f6200043583836200040a565b9150826002028217905092915050565b6200045082620001e1565b67ffffffffffffffff8111156200046c576200046b620001eb565b5b62000478825462000245565b62000485828285620003ae565b5f60209050601f831160018114620004bb575f8415620004a6578287015190505b620004b2858262000428565b86555062000521565b601f198416620004cb8662000279565b5f5b82811015620004f457848901518255600182019150602085019450602081019050620004cd565b8683101562000514578489015162000510601f8916826200040a565b8355505b6001600288020188555050505b505050505050565b60805160a0516117d3620005605f395f81816107630152610bbf01525f818161060e0152818161089a0152610b9401526117d35ff3fe608060405234801561000f575f80fd5b5060043610610109575f3560e01c806370a08231116100a0578063b88d4fde1161006f578063b88d4fde146102c5578063c87b56dd146102e1578063cbe9e7b614610311578063e985e9c51461032f578063f887ea401461035f57610109565b806370a082311461023f57806377097fc81461026f57806395d89b411461028b578063a22cb465146102a957610109565b806323b872dd116100dc57806323b872dd146101a757806342842e0e146101c35780634f558e79146101df5780636352211e1461020f57610109565b806301ffc9a71461010d57806306fdde031461013d578063081812fc1461015b578063095ea7b31461018b575b5f80fd5b61012760048036038101906101229190610cb0565b61037d565b6040516101349190610cf5565b60405180910390f35b61014561045e565b6040516101529190610d98565b60405180910390f35b61017560048036038101906101709190610deb565b6104ed565b6040516101829190610e55565b60405180910390f35b6101a560048036038101906101a09190610e98565b6104f3565b005b6101c160048036038101906101bc9190610ed6565b61052e565b005b6101dd60048036038101906101d89190610ed6565b610569565b005b6101f960048036038101906101f49190610deb565b610588565b6040516102069190610cf5565b60405180910390f35b61022960048036038101906102249190610deb565b6105ae565b6040516102369190610e55565b60405180910390f35b61025960048036038101906102549190610f26565b6106ab565b6040516102669190610f60565b60405180910390f35b61028960048036038101906102849190610fda565b610761565b005b61029361098e565b6040516102a09190610d98565b60405180910390f35b6102c360048036038101906102be9190611061565b610a1e565b005b6102df60048036038101906102da91906111c7565b610a59565b005b6102fb60048036038101906102f69190610deb565b610a94565b6040516103089190610d98565b60405180910390f35b610319610b92565b6040516103269190610e55565b60405180910390f35b61034960048036038101906103449190611247565b610bb6565b6040516103569190610cf5565b60405180910390f35b610367610bbd565b6040516103749190610e55565b60405180910390f35b5f7f80ac58cd000000000000000000000000000000000000000000000000000000007bffffffffffffffffffffffffffffffffffffffffffffffffffffffff1916827bffffffffffffffffffffffffffffffffffffffffffffffffffffffff1916148061044757507f5b5e139f000000000000000000000000000000000000000000000000000000007bffffffffffffffffffffffffffffffffffffffffffffffffffffffff1916827bffffffffffffffffffffffffffffffffffffffffffffffffffffffff1916145b80610457575061045682610be1565b5b9050919050565b60605f805461046c906112b2565b80601f0160208091040260200160405190810160405280929190818152602001828054610498906112b2565b80156104e35780601f106104ba576101008083540402835291602001916104e3565b820191905f5260205f20905b8154815290600101906020018083116104c657829003601f168201915b5050505050905090565b5f919050565b6040517f08c379a00000000000000000000000000000000000000000000000000000000081526004016105259061132c565b60405180910390fd5b6040517f08c379a000000000000000000000000000000000000000000000000000000000815260040161056090611394565b60405180910390fd5b61058383838360405180602001604052805f815250610a59565b505050565b5f60075f8381526020019081526020015f205f9054906101000a900460ff169050919050565b5f60075f8381526020019081526020015f205f9054906101000a900460ff1661060c576040517f08c379a0000000000000000000000000000000000000000000000000000000008152600401610603906113fc565b60405180910390fd5b7f000000000000000000000000000000000000000000000000000000000000000073ffffffffffffffffffffffffffffffffffffffff16631f7ae6bc836040518263ffffffff1660e01b81526004016106659190610f60565b602060405180830381865afa158015610680573d5f803e3d5ffd5b505050506040513d601f19601f820116820180604052508101906106a4919061142e565b9050919050565b5f8073ffffffffffffffffffffffffffffffffffffffff168273ffffffffffffffffffffffffffffffffffffffff160361071c575f6040517f89c62b640000000000000000000000000000000000000000000000000000000081526004016107139190610e55565b60405180910390fd5b60035f8373ffffffffffffffffffffffffffffffffffffffff1673ffffffffffffffffffffffffffffffffffffffff1681526020019081526020015f20549050919050565b7f000000000000000000000000000000000000000000000000000000000000000073ffffffffffffffffffffffffffffffffffffffff163373ffffffffffffffffffffffffffffffffffffffff16146107ef576040517f08c379a00000000000000000000000000000000000000000000000000000000081526004016107e6906114a3565b60405180910390fd5b60075f8481526020019081526020015f205f9054906101000a900460ff161561084d576040517f08c379a00000000000000000000000000000000000000000000000000000000081526004016108449061150b565b60405180910390fd5b600160075f8581526020019081526020015f205f6101000a81548160ff021916908315150217905550818160065f8681526020019081526020015f2091826108969291906116d0565b50827f000000000000000000000000000000000000000000000000000000000000000073ffffffffffffffffffffffffffffffffffffffff16631f7ae6bc856040518263ffffffff1660e01b81526004016108f19190610f60565b602060405180830381865afa15801561090c573d5f803e3d5ffd5b505050506040513d601f19601f82011682018060405250810190610930919061142e565b73ffffffffffffffffffffffffffffffffffffffff165f73ffffffffffffffffffffffffffffffffffffffff167fddf252ad1be2c89b69c2b068fc378daa952ba7f163c4a11628f55a4df523b3ef60405160405180910390a4505050565b60606001805461099d906112b2565b80601f01602080910402602001604051908101604052809291908181526020018280546109c9906112b2565b8015610a145780601f106109eb57610100808354040283529160200191610a14565b820191905f5260205f20905b8154815290600101906020018083116109f757829003601f168201915b5050505050905090565b6040517f08c379a0000000000000000000000000000000000000000000000000000000008152600401610a509061132c565b60405180910390fd5b6040517f08c379a0000000000000000000000000000000000000000000000000000000008152600401610a8b90611394565b60405180910390fd5b606060075f8381526020019081526020015f205f9054906101000a900460ff16610af3576040517f08c379a0000000000000000000000000000000000000000000000000000000008152600401610aea906113fc565b60405180910390fd5b60065f8381526020019081526020015f208054610b0f906112b2565b80601f0160208091040260200160405190810160405280929190818152602001828054610b3b906112b2565b8015610b865780601f10610b5d57610100808354040283529160200191610b86565b820191905f5260205f20905b815481529060010190602001808311610b6957829003601f168201915b50505050509050919050565b7f000000000000000000000000000000000000000000000000000000000000000081565b5f92915050565b7f000000000000000000000000000000000000000000000000000000000000000081565b5f7f01ffc9a7000000000000000000000000000000000000000000000000000000007bffffffffffffffffffffffffffffffffffffffffffffffffffffffff1916827bffffffffffffffffffffffffffffffffffffffffffffffffffffffff1916149050919050565b5f604051905090565b5f80fd5b5f80fd5b5f7fffffffff0000000000000000000000000000000000000000000000000000000082169050919050565b610c8f81610c5b565b8114610c99575f80fd5b50565b5f81359050610caa81610c86565b92915050565b5f60208284031215610cc557610cc4610c53565b5b5f610cd284828501610c9c565b91505092915050565b5f8115159050919050565b610cef81610cdb565b82525050565b5f602082019050610d085f830184610ce6565b92915050565b5f81519050919050565b5f82825260208201905092915050565b5f5b83811015610d45578082015181840152602081019050610d2a565b5f8484015250505050565b5f601f19601f8301169050919050565b5f610d6a82610d0e565b610d748185610d18565b9350610d84818560208601610d28565b610d8d81610d50565b840191505092915050565b5f6020820190508181035f830152610db08184610d60565b905092915050565b5f819050919050565b610dca81610db8565b8114610dd4575f80fd5b50565b5f81359050610de581610dc1565b92915050565b5f60208284031215610e0057610dff610c53565b5b5f610e0d84828501610dd7565b91505092915050565b5f73ffffffffffffffffffffffffffffffffffffffff82169050919050565b5f610e3f82610e16565b9050919050565b610e4f81610e35565b82525050565b5f602082019050610e685f830184610e46565b92915050565b610e7781610e35565b8114610e81575f80fd5b50565b5f81359050610e9281610e6e565b92915050565b5f8060408385031215610eae57610ead610c53565b5b5f610ebb85828601610e84565b9250506020610ecc85828601610dd7565b9150509250929050565b5f805f60608486031215610eed57610eec610c53565b5b5f610efa86828701610e84565b9350506020610f0b86828701610e84565b9250506040610f1c86828701610dd7565b9150509250925092565b5f60208284031215610f3b57610f3a610c53565b5b5f610f4884828501610e84565b91505092915050565b610f5a81610db8565b82525050565b5f602082019050610f735f830184610f51565b92915050565b5f80fd5b5f80fd5b5f80fd5b5f8083601f840112610f9a57610f99610f79565b5b8235905067ffffffffffffffff811115610fb757610fb6610f7d565b5b602083019150836001820283011115610fd357610fd2610f81565b5b9250929050565b5f805f60408486031215610ff157610ff0610c53565b5b5f610ffe86828701610dd7565b935050602084013567ffffffffffffffff81111561101f5761101e610c57565b5b61102b86828701610f85565b92509250509250925092565b61104081610cdb565b811461104a575f80fd5b50565b5f8135905061105b81611037565b92915050565b5f806040838503121561107757611076610c53565b5b5f61108485828601610e84565b92505060206110958582860161104d565b9150509250929050565b5f80fd5b7f4e487b71000000000000000000000000000000000000000000000000000000005f52604160045260245ffd5b6110d982610d50565b810181811067ffffffffffffffff821117156110f8576110f76110a3565b5b80604052505050565b5f61110a610c4a565b905061111682826110d0565b919050565b5f67ffffffffffffffff821115611135576111346110a3565b5b61113e82610d50565b9050602081019050919050565b828183375f83830152505050565b5f61116b6111668461111b565b611101565b9050828152602081018484840111156111875761118661109f565b5b61119284828561114b565b509392505050565b5f82601f8301126111ae576111ad610f79565b5b81356111be848260208601611159565b91505092915050565b5f805f80608085870312156111df576111de610c53565b5b5f6111ec87828801610e84565b94505060206111fd87828801610e84565b935050604061120e87828801610dd7565b925050606085013567ffffffffffffffff81111561122f5761122e610c57565b5b61123b8782880161119a565b91505092959194509250565b5f806040838503121561125d5761125c610c53565b5b5f61126a85828601610e84565b925050602061127b85828601610e84565b9150509250929050565b7f4e487b71000000000000000000000000000000000000000000000000000000005f52602260045260245ffd5b5f60028204905060018216806112c957607f821691505b6020821081036112dc576112db611285565b5b50919050565b7f417070726f76616c732064697361626c656400000000000000000000000000005f82015250565b5f611316601283610d18565b9150611321826112e2565b602082019050919050565b5f6020820190508181035f8301526113438161130a565b9050919050565b7f5472616e73666572732064697361626c656400000000000000000000000000005f82015250565b5f61137e601283610d18565b91506113898261134a565b602082019050919050565b5f6020820190508181035f8301526113ab81611372565b9050919050565b7f546f6b656e20646f6573206e6f742065786973740000000000000000000000005f82015250565b5f6113e6601483610d18565b91506113f1826113b2565b602082019050919050565b5f6020820190508181035f830152611413816113da565b9050919050565b5f8151905061142881610e6e565b92915050565b5f6020828403121561144357611442610c53565b5b5f6114508482850161141a565b91505092915050565b7f4f6e6c7920726f757465720000000000000000000000000000000000000000005f82015250565b5f61148d600b83610d18565b915061149882611459565b602082019050919050565b5f6020820190508181035f8301526114ba81611481565b9050919050565b7f416c7265616479206d696e7465640000000000000000000000000000000000005f82015250565b5f6114f5600e83610d18565b9150611500826114c1565b602082019050919050565b5f6020820190508181035f830152611522816114e9565b9050919050565b5f82905092915050565b5f819050815f5260205f209050919050565b5f6020601f8301049050919050565b5f82821b905092915050565b5f6008830261158f7fffffffffffffffffffffffffffffffffffffffffffffffffffffffffffffffff82611554565b6115998683611554565b95508019841693508086168417925050509392505050565b5f819050919050565b5f6115d46115cf6115ca84610db8565b6115b1565b610db8565b9050919050565b5f819050919050565b6115ed836115ba565b6116016115f9826115db565b848454611560565b825550505050565b5f90565b611615611609565b6116208184846115e4565b505050565b5b81811015611643576116385f8261160d565b600181019050611626565b5050565b601f8211156116885761165981611533565b61166284611545565b81016020851015611671578190505b61168561167d85611545565b830182611625565b50505b505050565b5f82821c905092915050565b5f6116a85f198460080261168d565b1980831691505092915050565b5f6116c08383611699565b9150826002028217905092915050565b6116da8383611529565b67ffffffffffffffff8111156116f3576116f26110a3565b5b6116fd82546112b2565b611708828285611647565b5f601f831160018114611735575f8415611723578287013590505b61172d85826116b5565b865550611794565b601f19841661174386611533565b5f5b8281101561176a57848901358255600182019150602085019450602081019050611745565b868310156117875784890135611783601f891682611699565b8355505b6001600288020188555050505b5050505050505056fea2646970667358221220fe3e106da741161b8d3f5d619cedbf31f7cbde4fa58eacb0b2c7db2ea71784a664736f6c63430008180033","linkReferences":{}},"methodIdentifiers":{"approve(address,uint256)":"095ea7b3","balanceOf(address)":"70a08231","exists(uint256)":"4f558e79","getApproved(uint256)":"081812fc","isApprovedForAll(address,address)":"e985e9c5","mint(uint256,string)":"77097fc8","name()":"06fdde03","ownerOf(uint256)":"6352211e","router()":"f887ea40","safeTransferFrom(address,address,uint256)":"42842e0e","safeTransferFrom(address,address,uint256,bytes)":"b88d4fde","setApprovalForAll(address,bool)":"a22cb465","supportsInterface(bytes4)":"01ffc9a7","symbol()":"95d89b41","tokenURI(uint256)":"c87b56dd","transferFrom(address,address,uint256)":"23b872dd","whirlpool()":"cbe9e7b6"},"id":45}