{"abi":[{"type":"constructor","inputs":[{"name":"waves_","type":"address","internalType":"address"},{"name":"weth_","type":"address","internalType":"address"},{"name":"surfSwap_","type":"address","internalType":"address"},{"name":"router_","type":"address","internalType":"address"}],"stateMutability":"nonpayable"},{"type":"receive","stateMutability":"payable"},{"type":"function","name":"WETH_BOOST","inputs":[],"outputs":[{"name":"","type":"uint256","internalType":"uint256"}],"stateMutability":"view"},{"type":"function","name":"accEthPerWeight","inputs":[],"outputs":[{"name":"","type":"uint256","internalType":"uint256"}],"stateMutability":"view"},{"type":"function","name":"accWavesPerWethShare","inputs":[],"outputs":[{"name":"","type":"uint256","internalType":"uint256"}],"stateMutability":"view"},{"type":"function","name":"autoStake","inputs":[{"name":"cardId","type":"uint256","internalType":"uint256"},{"name":"user","type":"address","internalType":"address"},{"name":"amount","type":"uint256","internalType":"uint256"}],"outputs":[],"stateMutability":"nonpayable"},{"type":"function","name":"cardStakes","inputs":[{"name":"","type":"uint256","internalType":"uint256"}],"outputs":[{"name":"token","type":"address","internalType":"address"},{"name":"totalShares","type":"uint256","internalType":"uint256"},{"name":"currentOwner","type":"address","internalType":"address"},{"name":"ownerShares","type":"uint256","internalType":"uint256"},{"name":"accWavesPerShare","type":"uint256","internalType":"uint256"}],"stateMutability":"view"},{"type":"function","name":"claimRewards","inputs":[{"name":"cardId","type":"uint256","internalType":"uint256"}],"outputs":[],"stateMutability":"nonpayable"},{"type":"function","name":"claimWETHRewards","inputs":[],"outputs":[],"stateMutability":"nonpayable"},{"type":"function","name":"distributeMintFee","inputs":[],"outputs":[],"stateMutability":"payable"},{"type":"function","name":"distributeSwapFees","inputs":[{"name":"cardId","type":"uint256","internalType":"uint256"},{"name":"wavesFee","type":"uint256","internalType":"uint256"}],"outputs":[],"stateMutability":"nonpayable"},{"type":"function","name":"distributeWethSwapFees","inputs":[{"name":"wavesFee","type":"uint256","internalType":"uint256"}],"outputs":[],"stateMutability":"nonpayable"},{"type":"function","name":"effectiveBalance","inputs":[{"name":"cardId","type":"uint256","internalType":"uint256"},{"name":"user","type":"address","internalType":"address"}],"outputs":[{"name":"","type":"uint256","internalType":"uint256"}],"stateMutability":"view"},{"type":"function","name":"ownerOfCard","inputs":[{"name":"cardId","type":"uint256","internalType":"uint256"}],"outputs":[{"name":"","type":"address","internalType":"address"}],"stateMutability":"view"},{"type":"function","name":"pendingGlobalRewards","inputs":[{"name":"user","type":"address","internalType":"address"}],"outputs":[{"name":"","type":"uint256","internalType":"uint256"}],"stateMutability":"view"},{"type":"function","name":"pendingRewards","inputs":[{"name":"cardId","type":"uint256","internalType":"uint256"},{"name":"user","type":"address","internalType":"address"}],"outputs":[{"name":"","type":"uint256","internalType":"uint256"}],"stateMutability":"view"},{"type":"function","name":"registerCard","inputs":[{"name":"cardId","type":"uint256","internalType":"uint256"},{"name":"token","type":"address","internalType":"address"}],"outputs":[],"stateMutability":"nonpayable"},{"type":"function","name":"router","inputs":[],"outputs":[{"name":"","type":"address","internalType":"address"}],"stateMutability":"view"},{"type":"function","name":"stake","inputs":[{"name":"cardId","type":"uint256","internalType":"uint256"},{"name":"amount","type":"uint256","internalType":"uint256"}],"outputs":[],"stateMutability":"nonpayable"},{"type":"function","name":"stakeOf","inputs":[{"name":"cardId","type":"uint256","internalType":"uint256"},{"name":"user","type":"address","internalType":"address"}],"outputs":[{"name":"","type":"uint256","internalType":"uint256"}],"stateMutability":"view"},{"type":"function","name":"stakeWETH","inputs":[{"name":"amount","type":"uint256","internalType":"uint256"}],"outputs":[],"stateMutability":"nonpayable"},{"type":"function","name":"surfSwap","inputs":[],"outputs":[{"name":"","type":"address","internalType":"address"}],"stateMutability":"view"},{"type":"function","name":"totalGlobalWeight","inputs":[],"outputs":[{"name":"","type":"uint256","internalType":"uint256"}],"stateMutability":"view"},{"type":"function","name":"totalWethStaked","inputs":[],"outputs":[{"name":"","type":"uint256","internalType":"uint256"}],"stateMutability":"view"},{"type":"function","name":"unstake","inputs":[{"name":"cardId","type":"uint256","internalType":"uint256"},{"name":"shares","type":"uint256","internalType":"uint256"}],"outputs":[],"stateMutability":"nonpayable"},{"type":"function","name":"unstakeWETH","inputs":[{"name":"amount","type":"uint256","internalType":"uint256"}],"outputs":[],"stateMutability":"nonpayable"},{"type":"function","name":"userCardDebt","inputs":[{"name":"","type":"uint256","internalType":"uint256"},{"name":"","type":"address","internalType":"address"}],"outputs":[{"name":"","type":"uint256","internalType":"uint256"}],"stateMutability":"view"},{"type":"function","name":"userCardShares","inputs":[{"name":"","type":"uint256","internalType":"uint256"},{"name":"","type":"address","internalType":"address"}],"outputs":[{"name":"","type":"uint256","internalType":"uint256"}],"stateMutability":"view"},{"type":"function","name":"userGlobalDebt","inputs":[{"name":"","type":"address","internalType":"address"}],"outputs":[{"name":"","type":"uint256","internalType":"uint256"}],"stateMutability":"view"},{"type":"function","name":"userGlobalWeight","inputs":[{"name":"","type":"address","internalType":"address"}],"outputs":[{"name":"","type":"uint256","internalType":"uint256"}],"stateMutability":"view"},{"type":"function","name":"userWethDebt","inputs":[{"name":"","type":"address","internalType":"address"}],"outputs":[{"name":"","type":"uint256","internalType":"uint256"}],"stateMutability":"view"},{"type":"function","name":"userWethStake","inputs":[{"name":"","type":"address","internalType":"address"}],"outputs":[{"name":"","type":"uint256","internalType":"uint256"}],"stateMutability":"view"},{"type":"function","name":"waves","inputs":[],"outputs":[{"name":"","type":"address","internalType":"address"}],"stateMutability":"view"},{"type":"function","name":"weth","inputs":[],"outputs":[{"name":"","type":"address","internalType":"address"}],"stateMutability":"view"},{"type":"event","name":"OwnerChanged","inputs":[{"name":"cardId","type":"uint256","indexed":true,"internalType":"uint256"},{"name":"previousOwner","type":"address","indexed":true,"internalType":"address"},{"name":"newOwner","type":"address","indexed":true,"internalType":"address"}],"anonymous":false},{"type":"event","name":"RewardsClaimed","inputs":[{"name":"user","type":"address","indexed":true,"internalType":"address"},{"name":"amount","type":"uint256","indexed":false,"internalType":"uint256"}],"anonymous":false},{"type":"event","name":"Staked","inputs":[{"name":"cardId","type":"uint256","indexed":true,"internalType":"uint256"},{"name":"user","type":"address","indexed":true,"internalType":"address"},{"name":"amount","type":"uint256","indexed":false,"internalType":"uint256"}],"anonymous":false},{"type":"event","name":"Unstaked","inputs":[{"name":"cardId","type":"uint256","indexed":true,"internalType":"uint256"},{"name":"user","type":"address","indexed":true,"internalType":"address"},{"name":"amount","type":"uint256","indexed":false,"internalType":"uint256"}],"anonymous":false},{"type":"event","name":"WETHStaked","inputs":[{"name":"user","type":"address","indexed":true,"internalType":"address"},{"name":"amount","type":"uint256","indexed":false,"internalType":"uint256"}],"anonymous":false},{"type":"event","name":"WETHUnstaked","inputs":[{"name":"user","type":"address","indexed":true,"internalType":"address"},{"name":"amount","type":"uint256","indexed":false,"internalType":"uint256"}],"anonymous":false},{"type":"error","name":"ReentrancyGuardReentrantCall","inputs":[]},{"type":"error","name":"SafeERC20FailedOperation","inputs":[{"name":"token","type":"address","internalType":"address"}]}],"bytecode":{"object":"0x61010060405234801562000011575f80fd5b5060405162004522380380620045228339818101604052810190620000379190620001d0565b6001620000596200004d6200013960201b60201c565b6200016260201b60201c565b5f01819055508373ffffffffffffffffffffffffffffffffffffffff1660808173ffffffffffffffffffffffffffffffffffffffff16815250508273ffffffffffffffffffffffffffffffffffffffff1660a08173ffffffffffffffffffffffffffffffffffffffff16815250508173ffffffffffffffffffffffffffffffffffffffff1660c08173ffffffffffffffffffffffffffffffffffffffff16815250508073ffffffffffffffffffffffffffffffffffffffff1660e08173ffffffffffffffffffffffffffffffffffffffff1681525050505050506200023f565b5f7f9b779b17422d0df92223018b32b4d1fa46e071723d6817e2486d003becc55f005f1b905090565b5f819050919050565b5f80fd5b5f73ffffffffffffffffffffffffffffffffffffffff82169050919050565b5f6200019a826200016f565b9050919050565b620001ac816200018e565b8114620001b7575f80fd5b50565b5f81519050620001ca81620001a1565b92915050565b5f805f8060808587031215620001eb57620001ea6200016b565b5b5f620001fa87828801620001ba565b94505060206200020d87828801620001ba565b93505060406200022087828801620001ba565b92505060606200023387828801620001ba565b91505092959194509250565b60805160a05160c05160e05161421c620003065f395f8181610ade01528181611107015281816122510152612b8901525f8181610fc20152818161162501528181611a5701528181611d970152818161217b015281816124840152818161282501528181612a8f01528181612fc7015281816130fe015261317e01525f8181610f9e0152818161139f01526129ee01525f81816108c001528181610db10152818161132b015281816114e101528181611a05015281816126e30152612f73015261421c5ff3fe6080604052600436106101e6575f3560e01c806385d37b9211610101578063ccfb97bb11610094578063dc2666f211610063578063dc2666f214610725578063df09044e1461074d578063f7ee7e4914610775578063f887ea401461079d576101ed565b8063ccfb97bb14610667578063ce034680146106a3578063d18df53c146106ad578063d4d1e99a146106e9576101ed565b8063a52467a2116100d0578063a52467a214610585578063b10c90bb146105c5578063b3432cd2146105ef578063cabd26911461062b576101ed565b806385d37b92146104e1578063875d50121461050b578063928c4ee6146105355780639e2c8a5b1461055d576101ed565b80633c68bb461161017957806360dec7101161014857806360dec7101461042b5780637983c193146104675780637ac064ea146104915780637b0472f0146104b9576101ed565b80633c68bb46146103715780633fc8cef31461039b57806346aa2777146103c557806352bc6ffe146103ef576101ed565b806316bc6e94116101b557806316bc6e94146102a75780631f7ae6bc146102e357806331c859861461031f578063384308321461035b576101ed565b806307a23f73146101f15780630962ef791461021b578063157b0a4214610243578063168f803f1461027f576101ed565b366101ed57005b5f80fd5b3480156101fc575f80fd5b506102056107c7565b60405161021291906138b0565b60405180910390f35b348015610226575f80fd5b50610241600480360381019061023c91906138f7565b6107cd565b005b34801561024e575f80fd5b506102696004803603810190610264919061397c565b610ac7565b60405161027691906138b0565b60405180910390f35b34801561028a575f80fd5b506102a560048036038101906102a091906139a7565b610adc565b005b3480156102b2575f80fd5b506102cd60048036038101906102c8919061397c565b610c4b565b6040516102da91906138b0565b60405180910390f35b3480156102ee575f80fd5b50610309600480360381019061030491906138f7565b610c60565b6040516103169190613a06565b60405180910390f35b34801561032a575f80fd5b5061034560048036038101906103409190613a1f565b610c9b565b60405161035291906138b0565b60405180910390f35b348015610366575f80fd5b5061036f610cf1565b005b34801561037c575f80fd5b50610385610f96565b60405161039291906138b0565b60405180910390f35b3480156103a6575f80fd5b506103af610f9c565b6040516103bc9190613a06565b60405180910390f35b3480156103d0575f80fd5b506103d9610fc0565b6040516103e69190613a06565b60405180910390f35b3480156103fa575f80fd5b5061041560048036038101906104109190613a1f565b610fe4565b60405161042291906138b0565b60405180910390f35b348015610436575f80fd5b50610451600480360381019061044c919061397c565b611004565b60405161045e91906138b0565b60405180910390f35b348015610472575f80fd5b5061047b6110ff565b60405161048891906138b0565b60405180910390f35b34801561049c575f80fd5b506104b760048036038101906104b29190613a1f565b611105565b005b3480156104c4575f80fd5b506104df60048036038101906104da9190613a5d565b611286565b005b3480156104ec575f80fd5b506104f5611323565b60405161050291906138b0565b60405180910390f35b348015610516575f80fd5b5061051f611329565b60405161052c9190613a06565b60405180910390f35b348015610540575f80fd5b5061055b600480360381019061055691906138f7565b61134d565b005b348015610568575f80fd5b50610583600480360381019061057e9190613a5d565b611841565b005b348015610590575f80fd5b506105ab60048036038101906105a691906138f7565b612066565b6040516105bc959493929190613a9b565b60405180910390f35b3480156105d0575f80fd5b506105d96120d5565b6040516105e691906138b0565b60405180910390f35b3480156105fa575f80fd5b506106156004803603810190610610919061397c565b6120da565b60405161062291906138b0565b60405180910390f35b348015610636575f80fd5b50610651600480360381019061064c9190613a1f565b6120ef565b60405161065e91906138b0565b60405180910390f35b348015610672575f80fd5b5061068d6004803603810190610688919061397c565b61223a565b60405161069a91906138b0565b60405180910390f35b6106ab61224f565b005b3480156106b8575f80fd5b506106d360048036038101906106ce9190613a1f565b612322565b6040516106e091906138b0565b60405180910390f35b3480156106f4575f80fd5b5061070f600480360381019061070a9190613a1f565b612462565b60405161071c91906138b0565b60405180910390f35b348015610730575f80fd5b5061074b600480360381019061074691906138f7565b612482565b005b348015610758575f80fd5b50610773600480360381019061076e91906138f7565b612561565b005b348015610780575f80fd5b5061079b60048036038101906107969190613a5d565b612a8d565b005b3480156107a8575f80fd5b506107b1612b87565b6040516107be9190613a06565b60405180910390f35b60035481565b6107d5612bab565b5f805f8381526020019081526020015f2090505f60025f8481526020019081526020015f205f3373ffffffffffffffffffffffffffffffffffffffff1673ffffffffffffffffffffffffffffffffffffffff1681526020019081526020015f2054670de0b6b3a7640000836004015460015f8781526020019081526020015f205f3373ffffffffffffffffffffffffffffffffffffffff1673ffffffffffffffffffffffffffffffffffffffff1681526020019081526020015f205461089b9190613b19565b6108a59190613b87565b6108af9190613bb7565b90505f8111156109055761090433827f000000000000000000000000000000000000000000000000000000000000000073ffffffffffffffffffffffffffffffffffffffff16612bcd9092919063ffffffff16565b5b670de0b6b3a7640000826004015460015f8681526020019081526020015f205f3373ffffffffffffffffffffffffffffffffffffffff1673ffffffffffffffffffffffffffffffffffffffff1681526020019081526020015f205461096a9190613b19565b6109749190613b87565b60025f8581526020019081526020015f205f3373ffffffffffffffffffffffffffffffffffffffff1673ffffffffffffffffffffffffffffffffffffffff1681526020019081526020015f20819055506109cd33612c20565b670de0b6b3a7640000600754600a5f3373ffffffffffffffffffffffffffffffffffffffff1673ffffffffffffffffffffffffffffffffffffffff1681526020019081526020015f2054610a219190613b19565b610a2b9190613b87565b60095f3373ffffffffffffffffffffffffffffffffffffffff1673ffffffffffffffffffffffffffffffffffffffff1681526020019081526020015f20819055503373ffffffffffffffffffffffffffffffffffffffff167ffc30cddea38e2bf4d6ea7d3f9ed3b6ad7f176419f4963bd81318067a4aee73fe82604051610ab291906138b0565b60405180910390a25050610ac4612dc5565b50565b6005602052805f5260405f205f915090505481565b7f000000000000000000000000000000000000000000000000000000000000000073ffffffffffffffffffffffffffffffffffffffff163373ffffffffffffffffffffffffffffffffffffffff1614610b6a576040517f08c379a0000000000000000000000000000000000000000000000000000000008152600401610b6190613c44565b60405180910390fd5b5f805f8581526020019081526020015f205f015f9054906101000a900473ffffffffffffffffffffffffffffffffffffffff1690505f73ffffffffffffffffffffffffffffffffffffffff168173ffffffffffffffffffffffffffffffffffffffff1603610c0d576040517f08c379a0000000000000000000000000000000000000000000000000000000008152600401610c0490613cac565b60405180910390fd5b610c3a3330848473ffffffffffffffffffffffffffffffffffffffff16612ddf909392919063ffffffff16565b610c45848484612e34565b50505050565b6006602052805f5260405f205f915090505481565b5f805f8381526020019081526020015f206002015f9054906101000a900473ffffffffffffffffffffffffffffffffffffffff169050919050565b5f60015f8481526020019081526020015f205f8373ffffffffffffffffffffffffffffffffffffffff1673ffffffffffffffffffffffffffffffffffffffff1681526020019081526020015f2054905092915050565b610cf9612bab565b5f60065f3373ffffffffffffffffffffffffffffffffffffffff1673ffffffffffffffffffffffffffffffffffffffff1681526020019081526020015f2054670de0b6b3a764000060045460055f3373ffffffffffffffffffffffffffffffffffffffff1673ffffffffffffffffffffffffffffffffffffffff1681526020019081526020015f2054610d8c9190613b19565b610d969190613b87565b610da09190613bb7565b90505f811115610df657610df533827f000000000000000000000000000000000000000000000000000000000000000073ffffffffffffffffffffffffffffffffffffffff16612bcd9092919063ffffffff16565b5b670de0b6b3a764000060045460055f3373ffffffffffffffffffffffffffffffffffffffff1673ffffffffffffffffffffffffffffffffffffffff1681526020019081526020015f2054610e4a9190613b19565b610e549190613b87565b60065f3373ffffffffffffffffffffffffffffffffffffffff1673ffffffffffffffffffffffffffffffffffffffff1681526020019081526020015f2081905550610e9e33612c20565b670de0b6b3a7640000600754600a5f3373ffffffffffffffffffffffffffffffffffffffff1673ffffffffffffffffffffffffffffffffffffffff1681526020019081526020015f2054610ef29190613b19565b610efc9190613b87565b60095f3373ffffffffffffffffffffffffffffffffffffffff1673ffffffffffffffffffffffffffffffffffffffff1681526020019081526020015f20819055503373ffffffffffffffffffffffffffffffffffffffff167ffc30cddea38e2bf4d6ea7d3f9ed3b6ad7f176419f4963bd81318067a4aee73fe82604051610f8391906138b0565b60405180910390a250610f94612dc5565b565b60045481565b7f000000000000000000000000000000000000000000000000000000000000000081565b7f000000000000000000000000000000000000000000000000000000000000000081565b6002602052815f5260405f20602052805f5260405f205f91509150505481565b5f80600a5f8473ffffffffffffffffffffffffffffffffffffffff1673ffffffffffffffffffffffffffffffffffffffff1681526020019081526020015f205403611051575f90506110fa565b60095f8373ffffffffffffffffffffffffffffffffffffffff1673ffffffffffffffffffffffffffffffffffffffff1681526020019081526020015f2054670de0b6b3a7640000600754600a5f8673ffffffffffffffffffffffffffffffffffffffff1673ffffffffffffffffffffffffffffffffffffffff1681526020019081526020015f20546110e39190613b19565b6110ed9190613b87565b6110f79190613bb7565b90505b919050565b60075481565b7f000000000000000000000000000000000000000000000000000000000000000073ffffffffffffffffffffffffffffffffffffffff163373ffffffffffffffffffffffffffffffffffffffff1614611193576040517f08c379a000000000000000000000000000000000000000000000000000000000815260040161118a90613c44565b60405180910390fd5b5f73ffffffffffffffffffffffffffffffffffffffff165f808481526020019081526020015f205f015f9054906101000a900473ffffffffffffffffffffffffffffffffffffffff1673ffffffffffffffffffffffffffffffffffffffff1614611232576040517f08c379a000000000000000000000000000000000000000000000000000000000815260040161122990613d14565b60405180910390fd5b805f808481526020019081526020015f205f015f6101000a81548173ffffffffffffffffffffffffffffffffffffffff021916908373ffffffffffffffffffffffffffffffffffffffff1602179055505050565b61128e612bab565b60018110156112d2576040517f08c379a00000000000000000000000000000000000000000000000000000000081526004016112c990613d7c565b60405180910390fd5b5f6112dc836134ac565b905061130b3330848473ffffffffffffffffffffffffffffffffffffffff16612ddf909392919063ffffffff16565b611316833384612e34565b5061131f612dc5565b5050565b60085481565b7f000000000000000000000000000000000000000000000000000000000000000081565b611355612bab565b5f8111611397576040517f08c379a000000000000000000000000000000000000000000000000000000000815260040161138e90613de4565b60405180910390fd5b6113e43330837f000000000000000000000000000000000000000000000000000000000000000073ffffffffffffffffffffffffffffffffffffffff16612ddf909392919063ffffffff16565b5f60055f3373ffffffffffffffffffffffffffffffffffffffff1673ffffffffffffffffffffffffffffffffffffffff1681526020019081526020015f20541115611528575f60065f3373ffffffffffffffffffffffffffffffffffffffff1673ffffffffffffffffffffffffffffffffffffffff1681526020019081526020015f2054670de0b6b3a764000060045460055f3373ffffffffffffffffffffffffffffffffffffffff1673ffffffffffffffffffffffffffffffffffffffff1681526020019081526020015f20546114bc9190613b19565b6114c69190613b87565b6114d09190613bb7565b90505f8111156115265761152533827f000000000000000000000000000000000000000000000000000000000000000073ffffffffffffffffffffffffffffffffffffffff16612bcd9092919063ffffffff16565b5b505b61153133612c20565b8060055f3373ffffffffffffffffffffffffffffffffffffffff1673ffffffffffffffffffffffffffffffffffffffff1681526020019081526020015f205f82825461157d9190613e02565b925050819055508060035f8282546115959190613e02565b925050819055505f600a600f836115ac9190613b19565b6115b69190613b87565b905080600a5f3373ffffffffffffffffffffffffffffffffffffffff1673ffffffffffffffffffffffffffffffffffffffff1681526020019081526020015f205f8282546116049190613e02565b925050819055508060085f82825461161c9190613e02565b925050819055507f000000000000000000000000000000000000000000000000000000000000000073ffffffffffffffffffffffffffffffffffffffff1663ee81eb19836040518263ffffffff1660e01b815260040161167c91906138b0565b5f604051808303815f87803b158015611693575f80fd5b505af11580156116a5573d5f803e3d5ffd5b50505050670de0b6b3a764000060045460055f3373ffffffffffffffffffffffffffffffffffffffff1673ffffffffffffffffffffffffffffffffffffffff1681526020019081526020015f20546116fd9190613b19565b6117079190613b87565b60065f3373ffffffffffffffffffffffffffffffffffffffff1673ffffffffffffffffffffffffffffffffffffffff1681526020019081526020015f2081905550670de0b6b3a7640000600754600a5f3373ffffffffffffffffffffffffffffffffffffffff1673ffffffffffffffffffffffffffffffffffffffff1681526020019081526020015f205461179c9190613b19565b6117a69190613b87565b60095f3373ffffffffffffffffffffffffffffffffffffffff1673ffffffffffffffffffffffffffffffffffffffff1681526020019081526020015f20819055503373ffffffffffffffffffffffffffffffffffffffff167fa8dbb4e02225f3329640a712a2f4f3ae58c4b82a4a79da218708abc78fc1cf5f8360405161182d91906138b0565b60405180910390a25061183e612dc5565b50565b611849612bab565b5f811161188b576040517f08c379a000000000000000000000000000000000000000000000000000000000815260040161188290613e7f565b60405180910390fd5b8060015f8481526020019081526020015f205f3373ffffffffffffffffffffffffffffffffffffffff1673ffffffffffffffffffffffffffffffffffffffff1681526020019081526020015f2054101561191a576040517f08c379a000000000000000000000000000000000000000000000000000000000815260040161191190613ee7565b60405180910390fd5b5f805f8481526020019081526020015f2090505f60025f8581526020019081526020015f205f3373ffffffffffffffffffffffffffffffffffffffff1673ffffffffffffffffffffffffffffffffffffffff1681526020019081526020015f2054670de0b6b3a7640000836004015460015f8881526020019081526020015f205f3373ffffffffffffffffffffffffffffffffffffffff1673ffffffffffffffffffffffffffffffffffffffff1681526020019081526020015f20546119e09190613b19565b6119ea9190613b87565b6119f49190613bb7565b90505f811115611a4a57611a4933827f000000000000000000000000000000000000000000000000000000000000000073ffffffffffffffffffffffffffffffffffffffff16612bcd9092919063ffffffff16565b5b611a5333612c20565b5f807f000000000000000000000000000000000000000000000000000000000000000073ffffffffffffffffffffffffffffffffffffffff16638ea7495c876040518263ffffffff1660e01b8152600401611aae91906138b0565b6040805180830381865afa158015611ac8573d5f803e3d5ffd5b505050506040513d601f19601f82011682018060405250810190611aec9190613f19565b915091505f84600101548287611b029190613b19565b611b0c9190613b87565b90505f8111611b50576040517f08c379a0000000000000000000000000000000000000000000000000000000008152600401611b4790613de4565b60405180910390fd5b8560015f8981526020019081526020015f205f3373ffffffffffffffffffffffffffffffffffffffff1673ffffffffffffffffffffffffffffffffffffffff1681526020019081526020015f205f828254611bab9190613bb7565b9250508190555085856001015f828254611bc59190613bb7565b9250508190555085600a5f3373ffffffffffffffffffffffffffffffffffffffff1673ffffffffffffffffffffffffffffffffffffffff1681526020019081526020015f205f828254611c189190613bb7565b925050819055508560085f828254611c309190613bb7565b92505081905550670de0b6b3a7640000856004015460015f8a81526020019081526020015f205f3373ffffffffffffffffffffffffffffffffffffffff1673ffffffffffffffffffffffffffffffffffffffff1681526020019081526020015f2054611c9c9190613b19565b611ca69190613b87565b60025f8981526020019081526020015f205f3373ffffffffffffffffffffffffffffffffffffffff1673ffffffffffffffffffffffffffffffffffffffff1681526020019081526020015f2081905550670de0b6b3a7640000600754600a5f3373ffffffffffffffffffffffffffffffffffffffff1673ffffffffffffffffffffffffffffffffffffffff1681526020019081526020015f2054611d4a9190613b19565b611d549190613b87565b60095f3373ffffffffffffffffffffffffffffffffffffffff1673ffffffffffffffffffffffffffffffffffffffff1681526020019081526020015f20819055507f000000000000000000000000000000000000000000000000000000000000000073ffffffffffffffffffffffffffffffffffffffff1663f661e61088836040518363ffffffff1660e01b8152600401611df0929190613f57565b5f604051808303815f87803b158015611e07575f80fd5b505af1158015611e19573d5f803e3d5ffd5b505050505f611e27886134ac565b9050611e5433838373ffffffffffffffffffffffffffffffffffffffff16612bcd9092919063ffffffff16565b5f866002015f9054906101000a900473ffffffffffffffffffffffffffffffffffffffff1690508073ffffffffffffffffffffffffffffffffffffffff163373ffffffffffffffffffffffffffffffffffffffff1603612004575f60015f8b81526020019081526020015f205f3373ffffffffffffffffffffffffffffffffffffffff1673ffffffffffffffffffffffffffffffffffffffff1681526020019081526020015f20541115611f5c5760015f8a81526020019081526020015f205f3373ffffffffffffffffffffffffffffffffffffffff1673ffffffffffffffffffffffffffffffffffffffff1681526020019081526020015f20548760030181905550612003565b5f876002015f6101000a81548173ffffffffffffffffffffffffffffffffffffffff021916908373ffffffffffffffffffffffffffffffffffffffff1602179055505f87600301819055505f73ffffffffffffffffffffffffffffffffffffffff168173ffffffffffffffffffffffffffffffffffffffff168a7f079a159bc2c4ed6aaee92c293d83b6527a380c127aca07f41d3ab4c590957f5660405160405180910390a45b5b3373ffffffffffffffffffffffffffffffffffffffff16897f37375b03d8924bd8f076f11f8411b9962aa5c02fb489021507bc6bb6f850e3658a60405161204b91906138b0565b60405180910390a350505050505050612062612dc5565b5050565b5f602052805f5260405f205f91509050805f015f9054906101000a900473ffffffffffffffffffffffffffffffffffffffff1690806001015490806002015f9054906101000a900473ffffffffffffffffffffffffffffffffffffffff16908060030154908060040154905085565b600f81565b6009602052805f5260405f205f915090505481565b5f8060015f8581526020019081526020015f205f8473ffffffffffffffffffffffffffffffffffffffff1673ffffffffffffffffffffffffffffffffffffffff1681526020019081526020015f205490505f8103612150575f915050612234565b5f805f8681526020019081526020015f2090505f816001015403612178575f92505050612234565b5f7f000000000000000000000000000000000000000000000000000000000000000073ffffffffffffffffffffffffffffffffffffffff16638ea7495c876040518263ffffffff1660e01b81526004016121d291906138b0565b6040805180830381865afa1580156121ec573d5f803e3d5ffd5b505050506040513d601f19601f820116820180604052508101906122109190613f19565b915050816001015481846122249190613b19565b61222e9190613b87565b93505050505b92915050565b600a602052805f5260405f205f915090505481565b7f000000000000000000000000000000000000000000000000000000000000000073ffffffffffffffffffffffffffffffffffffffff163373ffffffffffffffffffffffffffffffffffffffff16146122dd576040517f08c379a00000000000000000000000000000000000000000000000000000000081526004016122d490613c44565b60405180910390fd5b5f600854111561232057600854670de0b6b3a7640000346122fe9190613b19565b6123089190613b87565b60075f8282546123189190613e02565b925050819055505b565b5f805f808581526020019081526020015f2090505f60015f8681526020019081526020015f205f8573ffffffffffffffffffffffffffffffffffffffff1673ffffffffffffffffffffffffffffffffffffffff1681526020019081526020015f205403612392575f91505061245c565b60025f8581526020019081526020015f205f8473ffffffffffffffffffffffffffffffffffffffff1673ffffffffffffffffffffffffffffffffffffffff1681526020019081526020015f2054670de0b6b3a7640000826004015460015f8881526020019081526020015f205f8773ffffffffffffffffffffffffffffffffffffffff1673ffffffffffffffffffffffffffffffffffffffff1681526020019081526020015f20546124449190613b19565b61244e9190613b87565b6124589190613bb7565b9150505b92915050565b6001602052815f5260405f20602052805f5260405f205f91509150505481565b7f000000000000000000000000000000000000000000000000000000000000000073ffffffffffffffffffffffffffffffffffffffff163373ffffffffffffffffffffffffffffffffffffffff1614612510576040517f08c379a000000000000000000000000000000000000000000000000000000000815260040161250790613fc8565b60405180910390fd5b5f60035411801561252057505f81115b1561255e57600354670de0b6b3a76400008261253c9190613b19565b6125469190613b87565b60045f8282546125569190613e02565b925050819055505b50565b612569612bab565b5f81116125ab576040517f08c379a00000000000000000000000000000000000000000000000000000000081526004016125a290613de4565b60405180910390fd5b8060055f3373ffffffffffffffffffffffffffffffffffffffff1673ffffffffffffffffffffffffffffffffffffffff1681526020019081526020015f2054101561262b576040517f08c379a000000000000000000000000000000000000000000000000000000000815260040161262290614030565b60405180910390fd5b5f60065f3373ffffffffffffffffffffffffffffffffffffffff1673ffffffffffffffffffffffffffffffffffffffff1681526020019081526020015f2054670de0b6b3a764000060045460055f3373ffffffffffffffffffffffffffffffffffffffff1673ffffffffffffffffffffffffffffffffffffffff1681526020019081526020015f20546126be9190613b19565b6126c89190613b87565b6126d29190613bb7565b90505f8111156127285761272733827f000000000000000000000000000000000000000000000000000000000000000073ffffffffffffffffffffffffffffffffffffffff16612bcd9092919063ffffffff16565b5b61273133612c20565b8160055f3373ffffffffffffffffffffffffffffffffffffffff1673ffffffffffffffffffffffffffffffffffffffff1681526020019081526020015f205f82825461277d9190613bb7565b925050819055508160035f8282546127959190613bb7565b925050819055505f600a600f846127ac9190613b19565b6127b69190613b87565b905080600a5f3373ffffffffffffffffffffffffffffffffffffffff1673ffffffffffffffffffffffffffffffffffffffff1681526020019081526020015f205f8282546128049190613bb7565b925050819055508060085f82825461281c9190613bb7565b925050819055507f000000000000000000000000000000000000000000000000000000000000000073ffffffffffffffffffffffffffffffffffffffff1663a17231d5846040518263ffffffff1660e01b815260040161287c91906138b0565b5f604051808303815f87803b158015612893575f80fd5b505af11580156128a5573d5f803e3d5ffd5b50505050670de0b6b3a764000060045460055f3373ffffffffffffffffffffffffffffffffffffffff1673ffffffffffffffffffffffffffffffffffffffff1681526020019081526020015f20546128fd9190613b19565b6129079190613b87565b60065f3373ffffffffffffffffffffffffffffffffffffffff1673ffffffffffffffffffffffffffffffffffffffff1681526020019081526020015f2081905550670de0b6b3a7640000600754600a5f3373ffffffffffffffffffffffffffffffffffffffff1673ffffffffffffffffffffffffffffffffffffffff1681526020019081526020015f205461299c9190613b19565b6129a69190613b87565b60095f3373ffffffffffffffffffffffffffffffffffffffff1673ffffffffffffffffffffffffffffffffffffffff1681526020019081526020015f2081905550612a3233847f000000000000000000000000000000000000000000000000000000000000000073ffffffffffffffffffffffffffffffffffffffff16612bcd9092919063ffffffff16565b3373ffffffffffffffffffffffffffffffffffffffff167f4c64e20317bdcab575a0c470a1ce708d481e8ce6c67d6bd1cdecb85b6cfea19184604051612a7891906138b0565b60405180910390a25050612a8a612dc5565b50565b7f000000000000000000000000000000000000000000000000000000000000000073ffffffffffffffffffffffffffffffffffffffff163373ffffffffffffffffffffffffffffffffffffffff1614612b1b576040517f08c379a0000000000000000000000000000000000000000000000000000000008152600401612b1290613fc8565b60405180910390fd5b5f805f8481526020019081526020015f2090505f8160010154118015612b4057505f82115b15612b82578060010154670de0b6b3a764000083612b5e9190613b19565b612b689190613b87565b816004015f828254612b7a9190613e02565b925050819055505b505050565b7f000000000000000000000000000000000000000000000000000000000000000081565b612bb3613559565b6002612bc5612bc061359a565b6135c3565b5f0181905550565b612bda83838360016135cc565b612c1b57826040517f5274afe7000000000000000000000000000000000000000000000000000000008152600401612c129190613a06565b60405180910390fd5b505050565b5f600a5f8373ffffffffffffffffffffffffffffffffffffffff1673ffffffffffffffffffffffffffffffffffffffff1681526020019081526020015f20541115612dc2575f60095f8373ffffffffffffffffffffffffffffffffffffffff1673ffffffffffffffffffffffffffffffffffffffff1681526020019081526020015f2054670de0b6b3a7640000600754600a5f8673ffffffffffffffffffffffffffffffffffffffff1673ffffffffffffffffffffffffffffffffffffffff1681526020019081526020015f2054612cf89190613b19565b612d029190613b87565b612d0c9190613bb7565b90505f811115612dc0575f8273ffffffffffffffffffffffffffffffffffffffff1682604051612d3b9061407b565b5f6040518083038185875af1925050503d805f8114612d75576040519150601f19603f3d011682016040523d82523d5f602084013e612d7a565b606091505b5050905080612dbe576040517f08c379a0000000000000000000000000000000000000000000000000000000008152600401612db5906140d9565b60405180910390fd5b505b505b50565b6001612dd7612dd261359a565b6135c3565b5f0181905550565b612ded84848484600161362e565b612e2e57836040517f5274afe7000000000000000000000000000000000000000000000000000000008152600401612e259190613a06565b60405180910390fd5b50505050565b5f805f8581526020019081526020015f2090505f60015f8681526020019081526020015f205f8573ffffffffffffffffffffffffffffffffffffffff1673ffffffffffffffffffffffffffffffffffffffff1681526020019081526020015f20541115612fba575f60025f8681526020019081526020015f205f8573ffffffffffffffffffffffffffffffffffffffff1673ffffffffffffffffffffffffffffffffffffffff1681526020019081526020015f2054670de0b6b3a7640000836004015460015f8981526020019081526020015f205f8873ffffffffffffffffffffffffffffffffffffffff1673ffffffffffffffffffffffffffffffffffffffff1681526020019081526020015f2054612f4e9190613b19565b612f589190613b87565b612f629190613bb7565b90505f811115612fb857612fb784827f000000000000000000000000000000000000000000000000000000000000000073ffffffffffffffffffffffffffffffffffffffff16612bcd9092919063ffffffff16565b5b505b612fc383612c20565b5f807f000000000000000000000000000000000000000000000000000000000000000073ffffffffffffffffffffffffffffffffffffffff16638ea7495c876040518263ffffffff1660e01b815260040161301e91906138b0565b6040805180830381865afa158015613038573d5f803e3d5ffd5b505050506040513d601f19601f8201168201806040525081019061305c9190613f19565b915091505f8084600101540361307457849050613092565b818460010154866130859190613b19565b61308f9190613b87565b90505b5f81116130d4576040517f08c379a00000000000000000000000000000000000000000000000000000000081526004016130cb90613e7f565b60405180910390fd5b5f6130de886134ac565b90508073ffffffffffffffffffffffffffffffffffffffff1663095ea7b37f0000000000000000000000000000000000000000000000000000000000000000886040518363ffffffff1660e01b815260040161313b9291906140f7565b6020604051808303815f875af1158015613157573d5f803e3d5ffd5b505050506040513d601f19601f8201168201806040525081019061317b9190614153565b507f000000000000000000000000000000000000000000000000000000000000000073ffffffffffffffffffffffffffffffffffffffff166348d007c189886040518363ffffffff1660e01b81526004016131d7929190613f57565b5f604051808303815f87803b1580156131ee575f80fd5b505af1158015613200573d5f803e3d5ffd5b505050508160015f8a81526020019081526020015f205f8973ffffffffffffffffffffffffffffffffffffffff1673ffffffffffffffffffffffffffffffffffffffff1681526020019081526020015f205f82825461325f9190613e02565b9250508190555081856001015f8282546132799190613e02565b9250508190555081600a5f8973ffffffffffffffffffffffffffffffffffffffff1673ffffffffffffffffffffffffffffffffffffffff1681526020019081526020015f205f8282546132cc9190613e02565b925050819055508160085f8282546132e49190613e02565b92505081905550670de0b6b3a7640000856004015460015f8b81526020019081526020015f205f8a73ffffffffffffffffffffffffffffffffffffffff1673ffffffffffffffffffffffffffffffffffffffff1681526020019081526020015f20546133509190613b19565b61335a9190613b87565b60025f8a81526020019081526020015f205f8973ffffffffffffffffffffffffffffffffffffffff1673ffffffffffffffffffffffffffffffffffffffff1681526020019081526020015f2081905550670de0b6b3a7640000600754600a5f8a73ffffffffffffffffffffffffffffffffffffffff1673ffffffffffffffffffffffffffffffffffffffff1681526020019081526020015f20546133fe9190613b19565b6134089190613b87565b60095f8973ffffffffffffffffffffffffffffffffffffffff1673ffffffffffffffffffffffffffffffffffffffff1681526020019081526020015f2081905550613453888861369f565b8673ffffffffffffffffffffffffffffffffffffffff16887f18dcd430020e4d4899772fd94a8b40451dc5044dfb70bc46b532eeae431c864f8860405161349a91906138b0565b60405180910390a35050505050505050565b5f805f808481526020019081526020015f205f015f9054906101000a900473ffffffffffffffffffffffffffffffffffffffff1690505f73ffffffffffffffffffffffffffffffffffffffff168173ffffffffffffffffffffffffffffffffffffffff1603613550576040517f08c379a0000000000000000000000000000000000000000000000000000000008152600401613547906141c8565b60405180910390fd5b80915050919050565b61356161387c565b15613598576040517f3ee5aeb500000000000000000000000000000000000000000000000000000000815260040160405180910390fd5b565b5f7f9b779b17422d0df92223018b32b4d1fa46e071723d6817e2486d003becc55f005f1b905090565b5f819050919050565b5f8063a9059cbb60e01b9050604051815f525f1960601c86166004528460245260205f60445f808b5af1925060015f51148316613620578383151615613614573d5f823e3d81fd5b5f873b113d1516831692505b806040525050949350505050565b5f806323b872dd60e01b9050604051815f525f1960601c87166004525f1960601c86166024528460445260205f60645f808c5af1925060015f5114831661368c578383151615613680573d5f823e3d81fd5b5f883b113d1516831692505b806040525f606052505095945050505050565b5f805f8481526020019081526020015f2090505f60015f8581526020019081526020015f205f8473ffffffffffffffffffffffffffffffffffffffff1673ffffffffffffffffffffffffffffffffffffffff1681526020019081526020015f205490508160030154811115613815575f826002015f9054906101000a900473ffffffffffffffffffffffffffffffffffffffff16905083836002015f6101000a81548173ffffffffffffffffffffffffffffffffffffffff021916908373ffffffffffffffffffffffffffffffffffffffff1602179055508183600301819055508373ffffffffffffffffffffffffffffffffffffffff168173ffffffffffffffffffffffffffffffffffffffff161461380f578373ffffffffffffffffffffffffffffffffffffffff168173ffffffffffffffffffffffffffffffffffffffff16867f079a159bc2c4ed6aaee92c293d83b6527a380c127aca07f41d3ab4c590957f5660405160405180910390a45b50613876565b816002015f9054906101000a900473ffffffffffffffffffffffffffffffffffffffff1673ffffffffffffffffffffffffffffffffffffffff168373ffffffffffffffffffffffffffffffffffffffff1603613875578082600301819055505b5b50505050565b5f600261388f61388a61359a565b6135c3565b5f015414905090565b5f819050919050565b6138aa81613898565b82525050565b5f6020820190506138c35f8301846138a1565b92915050565b5f80fd5b6138d681613898565b81146138e0575f80fd5b50565b5f813590506138f1816138cd565b92915050565b5f6020828403121561390c5761390b6138c9565b5b5f613919848285016138e3565b91505092915050565b5f73ffffffffffffffffffffffffffffffffffffffff82169050919050565b5f61394b82613922565b9050919050565b61395b81613941565b8114613965575f80fd5b50565b5f8135905061397681613952565b92915050565b5f60208284031215613991576139906138c9565b5b5f61399e84828501613968565b91505092915050565b5f805f606084860312156139be576139bd6138c9565b5b5f6139cb868287016138e3565b93505060206139dc86828701613968565b92505060406139ed868287016138e3565b9150509250925092565b613a0081613941565b82525050565b5f602082019050613a195f8301846139f7565b92915050565b5f8060408385031215613a3557613a346138c9565b5b5f613a42858286016138e3565b9250506020613a5385828601613968565b9150509250929050565b5f8060408385031215613a7357613a726138c9565b5b5f613a80858286016138e3565b9250506020613a91858286016138e3565b9150509250929050565b5f60a082019050613aae5f8301886139f7565b613abb60208301876138a1565b613ac860408301866139f7565b613ad560608301856138a1565b613ae260808301846138a1565b9695505050505050565b7f4e487b71000000000000000000000000000000000000000000000000000000005f52601160045260245ffd5b5f613b2382613898565b9150613b2e83613898565b9250828202613b3c81613898565b91508282048414831517613b5357613b52613aec565b5b5092915050565b7f4e487b71000000000000000000000000000000000000000000000000000000005f52601260045260245ffd5b5f613b9182613898565b9150613b9c83613898565b925082613bac57613bab613b5a565b5b828204905092915050565b5f613bc182613898565b9150613bcc83613898565b9250828203905081811115613be457613be3613aec565b5b92915050565b5f82825260208201905092915050565b7f4f6e6c7920726f757465720000000000000000000000000000000000000000005f82015250565b5f613c2e600b83613bea565b9150613c3982613bfa565b602082019050919050565b5f6020820190508181035f830152613c5b81613c22565b9050919050565b7f43617264206e6f742072656769737465726564000000000000000000000000005f82015250565b5f613c96601383613bea565b9150613ca182613c62565b602082019050919050565b5f6020820190508181035f830152613cc381613c8a565b9050919050565b7f43617264206578697374730000000000000000000000000000000000000000005f82015250565b5f613cfe600b83613bea565b9150613d0982613cca565b602082019050919050565b5f6020820190508181035f830152613d2b81613cf2565b9050919050565b7f42656c6f77206d696e696d756d000000000000000000000000000000000000005f82015250565b5f613d66600d83613bea565b9150613d7182613d32565b602082019050919050565b5f6020820190508181035f830152613d9381613d5a565b9050919050565b7f5a65726f20616d6f756e740000000000000000000000000000000000000000005f82015250565b5f613dce600b83613bea565b9150613dd982613d9a565b602082019050919050565b5f6020820190508181035f830152613dfb81613dc2565b9050919050565b5f613e0c82613898565b9150613e1783613898565b9250828201905080821115613e2f57613e2e613aec565b5b92915050565b7f5a65726f207368617265730000000000000000000000000000000000000000005f82015250565b5f613e69600b83613bea565b9150613e7482613e35565b602082019050919050565b5f6020820190508181035f830152613e9681613e5d565b9050919050565b7f496e73756666696369656e7420736861726573000000000000000000000000005f82015250565b5f613ed1601383613bea565b9150613edc82613e9d565b602082019050919050565b5f6020820190508181035f830152613efe81613ec5565b9050919050565b5f81519050613f13816138cd565b92915050565b5f8060408385031215613f2f57613f2e6138c9565b5b5f613f3c85828601613f05565b9250506020613f4d85828601613f05565b9150509250929050565b5f604082019050613f6a5f8301856138a1565b613f7760208301846138a1565b9392505050565b7f4f6e6c79205375726653776170000000000000000000000000000000000000005f82015250565b5f613fb2600d83613bea565b9150613fbd82613f7e565b602082019050919050565b5f6020820190508181035f830152613fdf81613fa6565b9050919050565b7f496e73756666696369656e74207374616b6500000000000000000000000000005f82015250565b5f61401a601283613bea565b915061402582613fe6565b602082019050919050565b5f6020820190508181035f8301526140478161400e565b9050919050565b5f81905092915050565b50565b5f6140665f8361404e565b915061407182614058565b5f82019050919050565b5f6140858261405b565b9150819050919050565b7f455448207472616e73666572206661696c6564000000000000000000000000005f82015250565b5f6140c3601383613bea565b91506140ce8261408f565b602082019050919050565b5f6020820190508181035f8301526140f0816140b7565b9050919050565b5f60408201905061410a5f8301856139f7565b61411760208301846138a1565b9392505050565b5f8115159050919050565b6141328161411e565b811461413c575f80fd5b50565b5f8151905061414d81614129565b92915050565b5f60208284031215614168576141676138c9565b5b5f6141758482850161413f565b91505092915050565b7f4361726420646f6573206e6f74206578697374000000000000000000000000005f82015250565b5f6141b2601383613bea565b91506141bd8261417e565b602082019050919050565b5f6020820190508181035f8301526141df816141a6565b905091905056fea26469706673582212207793b05d96f72ca74bda267d0f46505a908fdab20e17c0d0966f858ff5aebbd264736f6c63430008180033","linkReferences":{}},"methodIdentifiers":{"WETH_BOOST()":"b10c90bb","accEthPerWeight()":"7983c193","accWavesPerWethShare()":"3c68bb46","autoStake(uint256,address,uint256)":"168f803f","cardStakes(uint256)":"a52467a2","claimRewards(uint256)":"0962ef79","claimWETHRewards()":"38430832","distributeMintFee()":"ce034680","distributeSwapFees(uint256,uint256)":"f7ee7e49","distributeWethSwapFees(uint256)":"dc2666f2","effectiveBalance(uint256,address)":"cabd2691","ownerOfCard(uint256)":"1f7ae6bc","pendingGlobalRewards(address)":"60dec710","pendingRewards(uint256,address)":"d18df53c","registerCard(uint256,address)":"7ac064ea","router()":"f887ea40","stake(uint256,uint256)":"7b0472f0","stakeOf(uint256,address)":"31c85986","stakeWETH(uint256)":"928c4ee6","surfSwap()":"46aa2777","totalGlobalWeight()":"85d37b92","totalWethStaked()":"07a23f73","unstake(uint256,uint256)":"9e2c8a5b","unstakeWETH(uint256)":"df09044e","userCardDebt(uint256,address)":"52bc6ffe","userCardShares(uint256,address)":"d4d1e99a","userGlobalDebt(address)":"b3432cd2","userGlobalWeight(address)":"ccfb97bb","userWethDebt(address)":"16bc6e94","userWethStake(address)":"157b0a42","waves()":"875d5012","weth()":"3fc8cef3"},"id":51}