{"abi":[{"type":"constructor","inputs":[],"stateMutability":"nonpayable"},{"type":"function","name":"approve","inputs":[{"name":"","type":"address","internalType":"address"},{"name":"","type":"uint256","internalType":"uint256"}],"outputs":[],"stateMutability":"pure"},{"type":"function","name":"balanceOf","inputs":[{"name":"owner","type":"address","internalType":"address"}],"outputs":[{"name":"","type":"uint256","internalType":"uint256"}],"stateMutability":"view"},{"type":"function","name":"getApproved","inputs":[{"name":"","type":"uint256","internalType":"uint256"}],"outputs":[{"name":"","type":"address","internalType":"address"}],"stateMutability":"pure"},{"type":"function","name":"isApprovedForAll","inputs":[{"name":"","type":"address","internalType":"address"},{"name":"","type":"address","internalType":"address"}],"outputs":[{"name":"","type":"bool","internalType":"bool"}],"stateMutability":"pure"},{"type":"function","name":"mint","inputs":[{"name":"to","type":"address","internalType":"address"},{"name":"cardId","type":"uint256","internalType":"uint256"},{"name":"tokenURI_","type":"string","internalType":"string"}],"outputs":[],"stateMutability":"nonpayable"},{"type":"function","name":"name","inputs":[],"outputs":[{"name":"","type":"string","internalType":"string"}],"stateMutability":"view"},{"type":"function","name":"ownerOf","inputs":[{"name":"tokenId","type":"uint256","internalType":"uint256"}],"outputs":[{"name":"","type":"address","internalType":"address"}],"stateMutability":"view"},{"type":"function","name":"safeTransferFrom","inputs":[{"name":"from","type":"address","internalType":"address"},{"name":"to","type":"address","internalType":"address"},{"name":"tokenId","type":"uint256","internalType":"uint256"}],"outputs":[],"stateMutability":"nonpayable"},{"type":"function","name":"safeTransferFrom","inputs":[{"name":"","type":"address","internalType":"address"},{"name":"","type":"address","internalType":"address"},{"name":"","type":"uint256","internalType":"uint256"},{"name":"","type":"bytes","internalType":"bytes"}],"outputs":[],"stateMutability":"pure"},{"type":"function","name":"setApprovalForAll","inputs":[{"name":"","type":"address","internalType":"address"},{"name":"","type":"bool","internalType":"bool"}],"outputs":[],"stateMutability":"pure"},{"type":"function","name":"setWhirlpool","inputs":[{"name":"whirlpool_","type":"address","internalType":"address"}],"outputs":[],"stateMutability":"nonpayable"},{"type":"function","name":"supportsInterface","inputs":[{"name":"interfaceId","type":"bytes4","internalType":"bytes4"}],"outputs":[{"name":"","type":"bool","internalType":"bool"}],"stateMutability":"view"},{"type":"function","name":"symbol","inputs":[],"outputs":[{"name":"","type":"string","internalType":"string"}],"stateMutability":"view"},{"type":"function","name":"tokenURI","inputs":[{"name":"tokenId","type":"uint256","internalType":"uint256"}],"outputs":[{"name":"","type":"string","internalType":"string"}],"stateMutability":"view"},{"type":"function","name":"totalMinted","inputs":[],"outputs":[{"name":"","type":"uint256","internalType":"uint256"}],"stateMutability":"view"},{"type":"function","name":"transferFrom","inputs":[{"name":"","type":"address","internalType":"address"},{"name":"","type":"address","internalType":"address"},{"name":"","type":"uint256","internalType":"uint256"}],"outputs":[],"stateMutability":"pure"},{"type":"function","name":"whirlpool","inputs":[],"outputs":[{"name":"","type":"address","internalType":"address"}],"stateMutability":"view"},{"type":"event","name":"Approval","inputs":[{"name":"owner","type":"address","indexed":true,"internalType":"address"},{"name":"approved","type":"address","indexed":true,"internalType":"address"},{"name":"tokenId","type":"uint256","indexed":true,"internalType":"uint256"}],"anonymous":false},{"type":"event","name":"ApprovalForAll","inputs":[{"name":"owner","type":"address","indexed":true,"internalType":"address"},{"name":"operator","type":"address","indexed":true,"internalType":"address"},{"name":"approved","type":"bool","indexed":false,"internalType":"bool"}],"anonymous":false},{"type":"event","name":"Transfer","inputs":[{"name":"from","type":"address","indexed":true,"internalType":"address"},{"name":"to","type":"address","indexed":true,"internalType":"address"},{"name":"tokenId","type":"uint256","indexed":true,"internalType":"uint256"}],"anonymous":false},{"type":"error","name":"ERC721IncorrectOwner","inputs":[{"name":"sender","type":"address","internalType":"address"},{"name":"tokenId","type":"uint256","internalType":"uint256"},{"name":"owner","type":"address","internalType":"address"}]},{"type":"error","name":"ERC721InsufficientApproval","inputs":[{"name":"operator","type":"address","internalType":"address"},{"name":"tokenId","type":"uint256","internalType":"uint256"}]},{"type":"error","name":"ERC721InvalidApprover","inputs":[{"name":"approver","type":"address","internalType":"address"}]},{"type":"error","name":"ERC721InvalidOperator","inputs":[{"name":"operator","type":"address","internalType":"address"}]},{"type":"error","name":"ERC721InvalidOwner","inputs":[{"name":"owner","type":"address","internalType":"address"}]},{"type":"error","name":"ERC721InvalidReceiver","inputs":[{"name":"receiver","type":"address","internalType":"address"}]},{"type":"error","name":"ERC721InvalidSender","inputs":[{"name":"sender","type":"address","internalType":"address"}]},{"type":"error","name":"ERC721NonexistentToken","inputs":[{"name":"tokenId","type":"uint256","internalType":"uint256"}]}],"bytecode":{"object":"0x608060405234801562000010575f80fd5b506040518060400160405280600881526020017f57617665735443470000000000000000000000000000000000000000000000008152506040518060400160405280600581526020017f5741564553000000000000000000000000000000000000000000000000000000815250815f90816200008d91906200030c565b5080600190816200009f91906200030c565b505050620003f0565b5f81519050919050565b7f4e487b71000000000000000000000000000000000000000000000000000000005f52604160045260245ffd5b7f4e487b71000000000000000000000000000000000000000000000000000000005f52602260045260245ffd5b5f60028204905060018216806200012457607f821691505b6020821081036200013a5762000139620000df565b5b50919050565b5f819050815f5260205f209050919050565b5f6020601f8301049050919050565b5f82821b905092915050565b5f600883026200019e7fffffffffffffffffffffffffffffffffffffffffffffffffffffffffffffffff8262000161565b620001aa868362000161565b95508019841693508086168417925050509392505050565b5f819050919050565b5f819050919050565b5f620001f4620001ee620001e884620001c2565b620001cb565b620001c2565b9050919050565b5f819050919050565b6200020f83620001d4565b620002276200021e82620001fb565b8484546200016d565b825550505050565b5f90565b6200023d6200022f565b6200024a81848462000204565b505050565b5b818110156200027157620002655f8262000233565b60018101905062000250565b5050565b601f821115620002c0576200028a8162000140565b620002958462000152565b81016020851015620002a5578190505b620002bd620002b48562000152565b8301826200024f565b50505b505050565b5f82821c905092915050565b5f620002e25f1984600802620002c5565b1980831691505092915050565b5f620002fc8383620002d1565b9150826002028217905092915050565b6200031782620000a8565b67ffffffffffffffff811115620003335762000332620000b2565b5b6200033f82546200010c565b6200034c82828562000275565b5f60209050601f83116001811462000382575f84156200036d578287015190505b620003798582620002ef565b865550620003e8565b601f198416620003928662000140565b5f5b82811015620003bb5784890151825560018201915060208501945060208101905062000394565b86831015620003db5784890151620003d7601f891682620002d1565b8355505b6001600288020188555050505b505050505050565b6117d680620003fe5f395ff3fe608060405234801561000f575f80fd5b5060043610610109575f3560e01c806395d89b41116100a0578063b88d4fde1161006f578063b88d4fde146102b3578063c87b56dd146102cf578063cbe9e7b6146102ff578063d3fc98641461031d578063e985e9c51461033957610109565b806395d89b411461023f578063a22cb4651461025d578063a2309ff814610279578063b1d2d49e1461029757610109565b806323b872dd116100dc57806323b872dd146101a757806342842e0e146101c35780636352211e146101df57806370a082311461020f57610109565b806301ffc9a71461010d57806306fdde031461013d578063081812fc1461015b578063095ea7b31461018b575b5f80fd5b61012760048036038101906101229190610c2b565b610369565b6040516101349190610c70565b60405180910390f35b61014561044a565b6040516101529190610d13565b60405180910390f35b61017560048036038101906101709190610d66565b6104d9565b6040516101829190610dd0565b60405180910390f35b6101a560048036038101906101a09190610e13565b6104df565b005b6101c160048036038101906101bc9190610e51565b61051a565b005b6101dd60048036038101906101d89190610e51565b610555565b005b6101f960048036038101906101f49190610d66565b610574565b6040516102069190610dd0565b60405180910390f35b61022960048036038101906102249190610ea1565b610674565b6040516102369190610edb565b60405180910390f35b61024761072a565b6040516102549190610d13565b60405180910390f35b61027760048036038101906102729190610f1e565b6107ba565b005b6102816107f5565b60405161028e9190610edb565b60405180910390f35b6102b160048036038101906102ac9190610ea1565b6107fb565b005b6102cd60048036038101906102c89190611088565b6108cd565b005b6102e960048036038101906102e49190610d66565b610908565b6040516102f69190610d13565b60405180910390f35b610307610a08565b6040516103149190610dd0565b60405180910390f35b61033760048036038101906103329190611165565b610a2d565b005b610353600480360381019061034e91906111d6565b610b55565b6040516103609190610c70565b60405180910390f35b5f7f80ac58cd000000000000000000000000000000000000000000000000000000007bffffffffffffffffffffffffffffffffffffffffffffffffffffffff1916827bffffffffffffffffffffffffffffffffffffffffffffffffffffffff1916148061043357507f5b5e139f000000000000000000000000000000000000000000000000000000007bffffffffffffffffffffffffffffffffffffffffffffffffffffffff1916827bffffffffffffffffffffffffffffffffffffffffffffffffffffffff1916145b80610443575061044282610b5c565b5b9050919050565b60605f805461045890611241565b80601f016020809104026020016040519081016040528092919081815260200182805461048490611241565b80156104cf5780601f106104a6576101008083540402835291602001916104cf565b820191905f5260205f20905b8154815290600101906020018083116104b257829003601f168201915b5050505050905090565b5f919050565b6040517f08c379a0000000000000000000000000000000000000000000000000000000008152600401610511906112bb565b60405180910390fd5b6040517f08c379a000000000000000000000000000000000000000000000000000000000815260040161054c90611323565b60405180910390fd5b61056f83838360405180602001604052805f8152506108cd565b505050565b5f8060075f8481526020019081526020015f20805461059290611241565b9050116105d4576040517f08c379a00000000000000000000000000000000000000000000000000000000081526004016105cb9061138b565b60405180910390fd5b60065f9054906101000a900473ffffffffffffffffffffffffffffffffffffffff1673ffffffffffffffffffffffffffffffffffffffff16636352211e836040518263ffffffff1660e01b815260040161062e9190610edb565b602060405180830381865afa158015610649573d5f803e3d5ffd5b505050506040513d601f19601f8201168201806040525081019061066d91906113bd565b9050919050565b5f8073ffffffffffffffffffffffffffffffffffffffff168273ffffffffffffffffffffffffffffffffffffffff16036106e5575f6040517f89c62b640000000000000000000000000000000000000000000000000000000081526004016106dc9190610dd0565b60405180910390fd5b60035f8373ffffffffffffffffffffffffffffffffffffffff1673ffffffffffffffffffffffffffffffffffffffff1681526020019081526020015f20549050919050565b60606001805461073990611241565b80601f016020809104026020016040519081016040528092919081815260200182805461076590611241565b80156107b05780601f10610787576101008083540402835291602001916107b0565b820191905f5260205f20905b81548152906001019060200180831161079357829003601f168201915b5050505050905090565b6040517f08c379a00000000000000000000000000000000000000000000000000000000081526004016107ec906112bb565b60405180910390fd5b60085481565b5f73ffffffffffffffffffffffffffffffffffffffff1660065f9054906101000a900473ffffffffffffffffffffffffffffffffffffffff1673ffffffffffffffffffffffffffffffffffffffff161461088a576040517f08c379a000000000000000000000000000000000000000000000000000000000815260040161088190611432565b60405180910390fd5b8060065f6101000a81548173ffffffffffffffffffffffffffffffffffffffff021916908373ffffffffffffffffffffffffffffffffffffffff16021790555050565b6040517f08c379a00000000000000000000000000000000000000000000000000000000081526004016108ff90611323565b60405180910390fd5b60605f60075f8481526020019081526020015f20805461092790611241565b905011610969576040517f08c379a00000000000000000000000000000000000000000000000000000000081526004016109609061138b565b60405180910390fd5b60075f8381526020019081526020015f20805461098590611241565b80601f01602080910402602001604051908101604052809291908181526020018280546109b190611241565b80156109fc5780601f106109d3576101008083540402835291602001916109fc565b820191905f5260205f20905b8154815290600101906020018083116109df57829003601f168201915b50505050509050919050565b60065f9054906101000a900473ffffffffffffffffffffffffffffffffffffffff1681565b60065f9054906101000a900473ffffffffffffffffffffffffffffffffffffffff1673ffffffffffffffffffffffffffffffffffffffff163373ffffffffffffffffffffffffffffffffffffffff1614610abc576040517f08c379a0000000000000000000000000000000000000000000000000000000008152600401610ab39061149a565b60405180910390fd5b818160075f8681526020019081526020015f209182610adc92919061165f565b5060085f815480929190610aef90611759565b9190505550828473ffffffffffffffffffffffffffffffffffffffff165f73ffffffffffffffffffffffffffffffffffffffff167fddf252ad1be2c89b69c2b068fc378daa952ba7f163c4a11628f55a4df523b3ef60405160405180910390a450505050565b5f92915050565b5f7f01ffc9a7000000000000000000000000000000000000000000000000000000007bffffffffffffffffffffffffffffffffffffffffffffffffffffffff1916827bffffffffffffffffffffffffffffffffffffffffffffffffffffffff1916149050919050565b5f604051905090565b5f80fd5b5f80fd5b5f7fffffffff0000000000000000000000000000000000000000000000000000000082169050919050565b610c0a81610bd6565b8114610c14575f80fd5b50565b5f81359050610c2581610c01565b92915050565b5f60208284031215610c4057610c3f610bce565b5b5f610c4d84828501610c17565b91505092915050565b5f8115159050919050565b610c6a81610c56565b82525050565b5f602082019050610c835f830184610c61565b92915050565b5f81519050919050565b5f82825260208201905092915050565b5f5b83811015610cc0578082015181840152602081019050610ca5565b5f8484015250505050565b5f601f19601f8301169050919050565b5f610ce582610c89565b610cef8185610c93565b9350610cff818560208601610ca3565b610d0881610ccb565b840191505092915050565b5f6020820190508181035f830152610d2b8184610cdb565b905092915050565b5f819050919050565b610d4581610d33565b8114610d4f575f80fd5b50565b5f81359050610d6081610d3c565b92915050565b5f60208284031215610d7b57610d7a610bce565b5b5f610d8884828501610d52565b91505092915050565b5f73ffffffffffffffffffffffffffffffffffffffff82169050919050565b5f610dba82610d91565b9050919050565b610dca81610db0565b82525050565b5f602082019050610de35f830184610dc1565b92915050565b610df281610db0565b8114610dfc575f80fd5b50565b5f81359050610e0d81610de9565b92915050565b5f8060408385031215610e2957610e28610bce565b5b5f610e3685828601610dff565b9250506020610e4785828601610d52565b9150509250929050565b5f805f60608486031215610e6857610e67610bce565b5b5f610e7586828701610dff565b9350506020610e8686828701610dff565b9250506040610e9786828701610d52565b9150509250925092565b5f60208284031215610eb657610eb5610bce565b5b5f610ec384828501610dff565b91505092915050565b610ed581610d33565b82525050565b5f602082019050610eee5f830184610ecc565b92915050565b610efd81610c56565b8114610f07575f80fd5b50565b5f81359050610f1881610ef4565b92915050565b5f8060408385031215610f3457610f33610bce565b5b5f610f4185828601610dff565b9250506020610f5285828601610f0a565b9150509250929050565b5f80fd5b5f80fd5b7f4e487b71000000000000000000000000000000000000000000000000000000005f52604160045260245ffd5b610f9a82610ccb565b810181811067ffffffffffffffff82111715610fb957610fb8610f64565b5b80604052505050565b5f610fcb610bc5565b9050610fd78282610f91565b919050565b5f67ffffffffffffffff821115610ff657610ff5610f64565b5b610fff82610ccb565b9050602081019050919050565b828183375f83830152505050565b5f61102c61102784610fdc565b610fc2565b90508281526020810184848401111561104857611047610f60565b5b61105384828561100c565b509392505050565b5f82601f83011261106f5761106e610f5c565b5b813561107f84826020860161101a565b91505092915050565b5f805f80608085870312156110a05761109f610bce565b5b5f6110ad87828801610dff565b94505060206110be87828801610dff565b93505060406110cf87828801610d52565b925050606085013567ffffffffffffffff8111156110f0576110ef610bd2565b5b6110fc8782880161105b565b91505092959194509250565b5f80fd5b5f80fd5b5f8083601f84011261112557611124610f5c565b5b8235905067ffffffffffffffff81111561114257611141611108565b5b60208301915083600182028301111561115e5761115d61110c565b5b9250929050565b5f805f806060858703121561117d5761117c610bce565b5b5f61118a87828801610dff565b945050602061119b87828801610d52565b935050604085013567ffffffffffffffff8111156111bc576111bb610bd2565b5b6111c887828801611110565b925092505092959194509250565b5f80604083850312156111ec576111eb610bce565b5b5f6111f985828601610dff565b925050602061120a85828601610dff565b9150509250929050565b7f4e487b71000000000000000000000000000000000000000000000000000000005f52602260045260245ffd5b5f600282049050600182168061125857607f821691505b60208210810361126b5761126a611214565b5b50919050565b7f417070726f76616c732064697361626c656400000000000000000000000000005f82015250565b5f6112a5601283610c93565b91506112b082611271565b602082019050919050565b5f6020820190508181035f8301526112d281611299565b9050919050565b7f5472616e73666572732064697361626c656400000000000000000000000000005f82015250565b5f61130d601283610c93565b9150611318826112d9565b602082019050919050565b5f6020820190508181035f83015261133a81611301565b9050919050565b7f546f6b656e20646f65736e2774206578697374000000000000000000000000005f82015250565b5f611375601383610c93565b915061138082611341565b602082019050919050565b5f6020820190508181035f8301526113a281611369565b9050919050565b5f815190506113b781610de9565b92915050565b5f602082840312156113d2576113d1610bce565b5b5f6113df848285016113a9565b91505092915050565b7f416c7265616479207365740000000000000000000000000000000000000000005f82015250565b5f61141c600b83610c93565b9150611427826113e8565b602082019050919050565b5f6020820190508181035f83015261144981611410565b9050919050565b7f4f6e6c7920776869726c706f6f6c0000000000000000000000000000000000005f82015250565b5f611484600e83610c93565b915061148f82611450565b602082019050919050565b5f6020820190508181035f8301526114b181611478565b9050919050565b5f82905092915050565b5f819050815f5260205f209050919050565b5f6020601f8301049050919050565b5f82821b905092915050565b5f6008830261151e7fffffffffffffffffffffffffffffffffffffffffffffffffffffffffffffffff826114e3565b61152886836114e3565b95508019841693508086168417925050509392505050565b5f819050919050565b5f61156361155e61155984610d33565b611540565b610d33565b9050919050565b5f819050919050565b61157c83611549565b6115906115888261156a565b8484546114ef565b825550505050565b5f90565b6115a4611598565b6115af818484611573565b505050565b5b818110156115d2576115c75f8261159c565b6001810190506115b5565b5050565b601f821115611617576115e8816114c2565b6115f1846114d4565b81016020851015611600578190505b61161461160c856114d4565b8301826115b4565b50505b505050565b5f82821c905092915050565b5f6116375f198460080261161c565b1980831691505092915050565b5f61164f8383611628565b9150826002028217905092915050565b61166983836114b8565b67ffffffffffffffff81111561168257611681610f64565b5b61168c8254611241565b6116978282856115d6565b5f601f8311600181146116c4575f84156116b2578287013590505b6116bc8582611644565b865550611723565b601f1984166116d2866114c2565b5f5b828110156116f9578489013582556001820191506020850194506020810190506116d4565b868310156117165784890135611712601f891682611628565b8355505b6001600288020188555050505b50505050505050565b7f4e487b71000000000000000000000000000000000000000000000000000000005f52601160045260245ffd5b5f61176382610d33565b91507fffffffffffffffffffffffffffffffffffffffffffffffffffffffffffffffff82036117955761179461172c565b5b60018201905091905056fea26469706673582212206ad9de8df90cc11d80b95a12c6f00cd0ab926feffdcf7df68e5c8095f78aa5ba64736f6c63430008180033","linkReferences":{}},"methodIdentifiers":{"approve(address,uint256)":"095ea7b3","balanceOf(address)":"70a08231","getApproved(uint256)":"081812fc","isApprovedForAll(address,address)":"e985e9c5","mint(address,uint256,string)":"d3fc9864","name()":"06fdde03","ownerOf(uint256)":"6352211e","safeTransferFrom(address,address,uint256)":"42842e0e","safeTransferFrom(address,address,uint256,bytes)":"b88d4fde","setApprovalForAll(address,bool)":"a22cb465","setWhirlpool(address)":"b1d2d49e","supportsInterface(bytes4)":"01ffc9a7","symbol()":"95d89b41","tokenURI(uint256)":"c87b56dd","totalMinted()":"a2309ff8","transferFrom(address,address,uint256)":"23b872dd","whirlpool()":"cbe9e7b6"},"id":28}