{"abi":[{"type":"constructor","inputs":[{"name":"bidNFTAddr_","type":"address","internalType":"address"},{"name":"wavesToken_","type":"address","internalType":"address"},{"name":"uniswapFactory_","type":"address","internalType":"address"},{"name":"positionManager_","type":"address","internalType":"address"}],"stateMutability":"nonpayable"},{"type":"receive","stateMutability":"payable"},{"type":"function","name":"BURN_ADDRESS","inputs":[],"outputs":[{"name":"","type":"address","internalType":"address"}],"stateMutability":"view"},{"type":"function","name":"FEE_TIER","inputs":[],"outputs":[{"name":"","type":"uint24","internalType":"uint24"}],"stateMutability":"view"},{"type":"function","name":"MAX_TICK","inputs":[],"outputs":[{"name":"","type":"int24","internalType":"int24"}],"stateMutability":"view"},{"type":"function","name":"MIN_TICK","inputs":[],"outputs":[{"name":"","type":"int24","internalType":"int24"}],"stateMutability":"view"},{"type":"function","name":"bidNFT","inputs":[],"outputs":[{"name":"","type":"address","internalType":"address"}],"stateMutability":"view"},{"type":"function","name":"bidNFT_","inputs":[],"outputs":[{"name":"","type":"address","internalType":"contract BidNFT"}],"stateMutability":"view"},{"type":"function","name":"bidTokens","inputs":[{"name":"","type":"uint256","internalType":"uint256"}],"outputs":[{"name":"","type":"address","internalType":"address"}],"stateMutability":"view"},{"type":"function","name":"createCard","inputs":[{"name":"name","type":"string","internalType":"string"},{"name":"symbol","type":"string","internalType":"string"},{"name":"totalSupply","type":"uint256","internalType":"uint256"},{"name":"tokenURI","type":"string","internalType":"string"}],"outputs":[{"name":"tokenId","type":"uint256","internalType":"uint256"},{"name":"bidTokenAddr","type":"address","internalType":"address"},{"name":"pool","type":"address","internalType":"address"}],"stateMutability":"payable"},{"type":"function","name":"getBidToken","inputs":[{"name":"tokenId","type":"uint256","internalType":"uint256"}],"outputs":[{"name":"","type":"address","internalType":"address"}],"stateMutability":"view"},{"type":"function","name":"getPool","inputs":[{"name":"tokenId","type":"uint256","internalType":"uint256"}],"outputs":[{"name":"","type":"address","internalType":"address"}],"stateMutability":"view"},{"type":"function","name":"pools","inputs":[{"name":"","type":"uint256","internalType":"uint256"}],"outputs":[{"name":"","type":"address","internalType":"address"}],"stateMutability":"view"},{"type":"function","name":"positionManager","inputs":[],"outputs":[{"name":"","type":"address","internalType":"address"}],"stateMutability":"view"},{"type":"function","name":"uniswapFactory","inputs":[],"outputs":[{"name":"","type":"address","internalType":"address"}],"stateMutability":"view"},{"type":"function","name":"wavesToken","inputs":[],"outputs":[{"name":"","type":"address","internalType":"address"}],"stateMutability":"view"},{"type":"event","name":"CardCreated","inputs":[{"name":"tokenId","type":"uint256","indexed":true,"internalType":"uint256"},{"name":"bidToken","type":"address","indexed":true,"internalType":"address"},{"name":"pool","type":"address","indexed":true,"internalType":"address"},{"name":"creator","type":"address","indexed":false,"internalType":"address"}],"anonymous":false}],"bytecode":{"object":"0x61010060405234801562000011575f80fd5b50604051620038ef380380620038ef833981810160405281019062000037919062000176565b8373ffffffffffffffffffffffffffffffffffffffff1660808173ffffffffffffffffffffffffffffffffffffffff16815250508273ffffffffffffffffffffffffffffffffffffffff1660a08173ffffffffffffffffffffffffffffffffffffffff16815250508173ffffffffffffffffffffffffffffffffffffffff1660c08173ffffffffffffffffffffffffffffffffffffffff16815250508073ffffffffffffffffffffffffffffffffffffffff1660e08173ffffffffffffffffffffffffffffffffffffffff168152505050505050620001e5565b5f80fd5b5f73ffffffffffffffffffffffffffffffffffffffff82169050919050565b5f620001408262000115565b9050919050565b620001528162000134565b81146200015d575f80fd5b50565b5f81519050620001708162000147565b92915050565b5f805f806080858703121562000191576200019062000111565b5b5f620001a08782880162000160565b9450506020620001b38782880162000160565b9350506040620001c68782880162000160565b9250506060620001d98782880162000160565b91505092959194509250565b60805160a05160c05160e0516136746200027b5f395f818161049101528181610b0e01528181610baf01528181610c350152610db101525f81816104b501526109b201525f8181610460015281816108d40152818161091201528181610939015281816109610152610ad201525f818161052c015281816105c80152818161065f01528181610715015261088e01526136745ff3fe608060405260043610620000f6575f3560e01c8063a1634b14116200008a578063e6f7fbd41162000060578063e6f7fbd41462000314578063f40e93ca1462000357578063f83764d7146200038f578063fccc281314620003be57620000fe565b8063a1634b141462000273578063ac4afa3814620002a2578063c7091d8514620002e557620000fe565b80634c69a6c911620000cc5780634c69a6c914620001b75780636882a88814620001e6578063791b98bc14620002155780638bdb2afa146200024457620000fe565b8063068bcd8d14620001025780631f4c3bec146200014557806323f8ec3b146200018857620000fe565b36620000fe57005b5f80fd5b3480156200010e575f80fd5b506200012d600480360381019062000127919062000fba565b620003ed565b6040516200013c91906200102d565b60405180910390f35b34801562000151575f80fd5b506200017060048036038101906200016a919062000fba565b62000425565b6040516200017f91906200102d565b60405180910390f35b34801562000194575f80fd5b506200019f6200045e565b604051620001ae91906200102d565b60405180910390f35b348015620001c3575f80fd5b50620001ce62000482565b604051620001dd919062001067565b60405180910390f35b348015620001f2575f80fd5b50620001fd62000488565b6040516200020c91906200109f565b60405180910390f35b34801562000221575f80fd5b506200022c6200048f565b6040516200023b91906200102d565b60405180910390f35b34801562000250575f80fd5b506200025b620004b3565b6040516200026a91906200102d565b60405180910390f35b3480156200027f575f80fd5b506200028a620004d7565b6040516200029991906200109f565b60405180910390f35b348015620002ae575f80fd5b50620002cd6004803603810190620002c7919062000fba565b620004fb565b604051620002dc91906200102d565b60405180910390f35b348015620002f1575f80fd5b50620002fc6200052a565b6040516200030b919062001121565b60405180910390f35b34801562000320575f80fd5b506200033f600480360381019062000339919062000fba565b6200054e565b6040516200034e91906200102d565b60405180910390f35b6200037560048036038101906200036f9190620011a6565b6200057e565b60405162000386939291906200128f565b60405180910390f35b3480156200039b575f80fd5b50620003a66200088b565b604051620003b591906200102d565b60405180910390f35b348015620003ca575f80fd5b50620003d5620008b2565b604051620003e491906200102d565b60405180910390f35b5f805f8381526020019081526020015f205f9054906101000a900473ffffffffffffffffffffffffffffffffffffffff169050919050565b5f60015f8381526020019081526020015f205f9054906101000a900473ffffffffffffffffffffffffffffffffffffffff169050919050565b7f000000000000000000000000000000000000000000000000000000000000000081565b610bb881565b620d89b481565b7f000000000000000000000000000000000000000000000000000000000000000081565b7f000000000000000000000000000000000000000000000000000000000000000081565b7ffffffffffffffffffffffffffffffffffffffffffffffffffffffffffff2764c81565b5f602052805f5260405f205f915054906101000a900473ffffffffffffffffffffffffffffffffffffffff1681565b7f000000000000000000000000000000000000000000000000000000000000000081565b6001602052805f5260405f205f915054906101000a900473ffffffffffffffffffffffffffffffffffffffff1681565b5f805f803411620005c6576040517f08c379a0000000000000000000000000000000000000000000000000000000008152600401620005bd9062001328565b60405180910390fd5b7f000000000000000000000000000000000000000000000000000000000000000073ffffffffffffffffffffffffffffffffffffffff166375794a3c6040518163ffffffff1660e01b8152600401602060405180830381865afa15801562000630573d5f803e3d5ffd5b505050506040513d601f19601f820116820180604052508101906200065691906200135e565b92505f8a8a8a8a7f0000000000000000000000000000000000000000000000000000000000000000888c3033604051620006909062000f6c565b620006a499989796959493929190620013de565b604051809103905ff080158015620006be573d5f803e3d5ffd5b5090508092508260015f8681526020019081526020015f205f6101000a81548173ffffffffffffffffffffffffffffffffffffffff021916908373ffffffffffffffffffffffffffffffffffffffff1602179055507f000000000000000000000000000000000000000000000000000000000000000073ffffffffffffffffffffffffffffffffffffffff1663221375a6338589896040518563ffffffff1660e01b81526004016200077494939291906200146b565b6020604051808303815f875af115801562000791573d5f803e3d5ffd5b505050506040513d601f19601f82011682018060405250810190620007b791906200135e565b50620007c5838834620008b8565b9150815f808681526020019081526020015f205f6101000a81548173ffffffffffffffffffffffffffffffffffffffff021916908373ffffffffffffffffffffffffffffffffffffffff1602179055508173ffffffffffffffffffffffffffffffffffffffff168373ffffffffffffffffffffffffffffffffffffffff16857f5d44b74aa851baf454908baec34f525b9bdc15209c7e7c6cc5327d1d4f71368c336040516200087591906200102d565b60405180910390a4509750975097945050505050565b5f7f0000000000000000000000000000000000000000000000000000000000000000905090565b61dead81565b5f805f8573ffffffffffffffffffffffffffffffffffffffff167f000000000000000000000000000000000000000000000000000000000000000073ffffffffffffffffffffffffffffffffffffffff16106200093757857f00000000000000000000000000000000000000000000000000000000000000006200095a565b7f0000000000000000000000000000000000000000000000000000000000000000865b915091505f7f000000000000000000000000000000000000000000000000000000000000000073ffffffffffffffffffffffffffffffffffffffff168373ffffffffffffffffffffffffffffffffffffffff161490507f000000000000000000000000000000000000000000000000000000000000000073ffffffffffffffffffffffffffffffffffffffff1663a16712958484610bb86040518463ffffffff1660e01b815260040162000a1193929190620014af565b6020604051808303815f875af115801562000a2e573d5f803e3d5ffd5b505050506040513d601f19601f8201168201806040525081019062000a54919062001519565b93505f62000a6486888462000e4b565b90508473ffffffffffffffffffffffffffffffffffffffff1663f637731d826040518263ffffffff1660e01b815260040162000aa191906200155a565b5f604051808303815f87803b15801562000ab9575f80fd5b505af115801562000acc573d5f803e3d5ffd5b505050507f000000000000000000000000000000000000000000000000000000000000000073ffffffffffffffffffffffffffffffffffffffff1663095ea7b37f0000000000000000000000000000000000000000000000000000000000000000886040518363ffffffff1660e01b815260040162000b4d92919062001575565b6020604051808303815f875af115801562000b6a573d5f803e3d5ffd5b505050506040513d601f19601f8201168201806040525081019062000b909190620015da565b508773ffffffffffffffffffffffffffffffffffffffff1663095ea7b37f0000000000000000000000000000000000000000000000000000000000000000896040518363ffffffff1660e01b815260040162000bee92919062001575565b6020604051808303815f875af115801562000c0b573d5f803e3d5ffd5b505050506040513d601f19601f8201168201806040525081019062000c319190620015da565b505f7f000000000000000000000000000000000000000000000000000000000000000073ffffffffffffffffffffffffffffffffffffffff1663883164566040518061016001604052808873ffffffffffffffffffffffffffffffffffffffff1681526020018773ffffffffffffffffffffffffffffffffffffffff168152602001610bb862ffffff1681526020017ffffffffffffffffffffffffffffffffffffffffffffffffffffffffffff2764c60020b8152602001620d89b460020b81526020018662000d02578b62000d04565b8a5b81526020018662000d16578a62000d18565b8b5b81526020015f81526020015f81526020013073ffffffffffffffffffffffffffffffffffffffff168152602001428152506040518263ffffffff1660e01b815260040162000d67919062001743565b6080604051808303815f875af115801562000d84573d5f803e3d5ffd5b505050506040513d601f19601f8201168201806040525081019062000daa9190620017a9565b50505090507f000000000000000000000000000000000000000000000000000000000000000073ffffffffffffffffffffffffffffffffffffffff166323b872dd3061dead846040518463ffffffff1660e01b815260040162000e109392919062001818565b5f604051808303815f87803b15801562000e28575f80fd5b505af115801562000e3b573d5f803e3d5ffd5b5050505050505050509392505050565b5f80821562000e7f5784670de0b6b3a76400008562000e6b919062001880565b62000e779190620018f7565b905062000ea5565b83670de0b6b3a76400008662000e96919062001880565b62000ea29190620018f7565b90505b5f62000ec6670de0b6b3a76400008362000ec0919062001880565b62000eed565b9050670de0b6b3a7640000606082901b62000ee29190620018f7565b925050509392505050565b5f80820362000eff575f905062000f67565b5f600260018462000f1191906200192e565b62000f1d9190620018f7565b90505f8390505b8082101562000f6157819050600282838662000f419190620018f7565b62000f4d91906200192e565b62000f599190620018f7565b915062000f24565b80925050505b919050565b611cd6806200196983390190565b5f80fd5b5f80fd5b5f819050919050565b62000f968162000f82565b811462000fa1575f80fd5b50565b5f8135905062000fb48162000f8b565b92915050565b5f6020828403121562000fd25762000fd162000f7a565b5b5f62000fe18482850162000fa4565b91505092915050565b5f73ffffffffffffffffffffffffffffffffffffffff82169050919050565b5f620010158262000fea565b9050919050565b620010278162001009565b82525050565b5f602082019050620010425f8301846200101c565b92915050565b5f62ffffff82169050919050565b620010618162001048565b82525050565b5f6020820190506200107c5f83018462001056565b92915050565b5f8160020b9050919050565b620010998162001082565b82525050565b5f602082019050620010b45f8301846200108e565b92915050565b5f819050919050565b5f620010e3620010dd620010d78462000fea565b620010ba565b62000fea565b9050919050565b5f620010f682620010c3565b9050919050565b5f6200110982620010ea565b9050919050565b6200111b81620010fd565b82525050565b5f602082019050620011365f83018462001110565b92915050565b5f80fd5b5f80fd5b5f80fd5b5f8083601f84011262001160576200115f6200113c565b5b8235905067ffffffffffffffff81111562001180576200117f62001140565b5b6020830191508360018202830111156200119f576200119e62001144565b5b9250929050565b5f805f805f805f6080888a031215620011c457620011c362000f7a565b5b5f88013567ffffffffffffffff811115620011e457620011e362000f7e565b5b620011f28a828b0162001148565b9750975050602088013567ffffffffffffffff81111562001218576200121762000f7e565b5b620012268a828b0162001148565b955095505060406200123b8a828b0162000fa4565b935050606088013567ffffffffffffffff8111156200125f576200125e62000f7e565b5b6200126d8a828b0162001148565b925092505092959891949750929550565b620012898162000f82565b82525050565b5f606082019050620012a45f8301866200127e565b620012b360208301856200101c565b620012c260408301846200101c565b949350505050565b5f82825260208201905092915050565b7f4d7573742073656e642045544820666f72206c697175696469747900000000005f82015250565b5f62001310601b83620012ca565b91506200131d82620012da565b602082019050919050565b5f6020820190508181035f830152620013418162001302565b9050919050565b5f81519050620013588162000f8b565b92915050565b5f6020828403121562001376576200137562000f7a565b5b5f620013858482850162001348565b91505092915050565b828183375f83830152505050565b5f601f19601f8301169050919050565b5f620013b98385620012ca565b9350620013c88385846200138e565b620013d3836200139c565b840190509392505050565b5f60e0820190508181035f830152620013f9818b8d620013ac565b905081810360208301526200141081898b620013ac565b90506200142160408301886200101c565b6200143060608301876200127e565b6200143f60808301866200127e565b6200144e60a08301856200101c565b6200145d60c08301846200101c565b9a9950505050505050505050565b5f606082019050620014805f8301876200101c565b6200148f60208301866200101c565b8181036040830152620014a4818486620013ac565b905095945050505050565b5f606082019050620014c45f8301866200101c565b620014d360208301856200101c565b620014e2604083018462001056565b949350505050565b620014f58162001009565b811462001500575f80fd5b50565b5f815190506200151381620014ea565b92915050565b5f6020828403121562001531576200153062000f7a565b5b5f620015408482850162001503565b91505092915050565b620015548162000fea565b82525050565b5f6020820190506200156f5f83018462001549565b92915050565b5f6040820190506200158a5f8301856200101c565b6200159960208301846200127e565b9392505050565b5f8115159050919050565b620015b681620015a0565b8114620015c1575f80fd5b50565b5f81519050620015d481620015ab565b92915050565b5f60208284031215620015f257620015f162000f7a565b5b5f6200160184828501620015c4565b91505092915050565b620016158162001009565b82525050565b620016268162001048565b82525050565b620016378162001082565b82525050565b620016488162000f82565b82525050565b61016082015f820151620016655f8501826200160a565b5060208201516200167a60208501826200160a565b5060408201516200168f60408501826200161b565b506060820151620016a460608501826200162c565b506080820151620016b960808501826200162c565b5060a0820151620016ce60a08501826200163d565b5060c0820151620016e360c08501826200163d565b5060e0820151620016f860e08501826200163d565b506101008201516200170f6101008501826200163d565b50610120820151620017266101208501826200160a565b506101408201516200173d6101408501826200163d565b50505050565b5f61016082019050620017595f8301846200164e565b92915050565b5f6fffffffffffffffffffffffffffffffff82169050919050565b62001785816200175f565b811462001790575f80fd5b50565b5f81519050620017a3816200177a565b92915050565b5f805f8060808587031215620017c457620017c362000f7a565b5b5f620017d38782880162001348565b9450506020620017e68782880162001793565b9350506040620017f98782880162001348565b92505060606200180c8782880162001348565b91505092959194509250565b5f6060820190506200182d5f8301866200101c565b6200183c60208301856200101c565b6200184b60408301846200127e565b949350505050565b7f4e487b71000000000000000000000000000000000000000000000000000000005f52601160045260245ffd5b5f6200188c8262000f82565b9150620018998362000f82565b9250828202620018a98162000f82565b91508282048414831517620018c357620018c262001853565b5b5092915050565b7f4e487b71000000000000000000000000000000000000000000000000000000005f52601260045260245ffd5b5f620019038262000f82565b9150620019108362000f82565b925082620019235762001922620018ca565b5b828204905092915050565b5f6200193a8262000f82565b9150620019478362000f82565b925082820190508082111562001962576200196162001853565b5b9291505056fe60c060405234801562000010575f80fd5b5060405162001cd638038062001cd6833981810160405281019062000036919062000783565b8686816003908162000049919062000a9d565b5080600490816200005b919062000a9d565b5050508473ffffffffffffffffffffffffffffffffffffffff1660808173ffffffffffffffffffffffffffffffffffffffff16815250508360a081815250508060055f6101000a81548173ffffffffffffffffffffffffffffffffffffffff021916908373ffffffffffffffffffffffffffffffffffffffff160217905550620000ec8284620000f960201b60201c565b5050505050505062000c7b565b5f73ffffffffffffffffffffffffffffffffffffffff168273ffffffffffffffffffffffffffffffffffffffff16036200016c575f6040517fec442f0500000000000000000000000000000000000000000000000000000000815260040162000163919062000b92565b60405180910390fd5b6200017f5f83836200018360201b60201c565b5050565b62000196838383620002fc60201b60201c565b5f73ffffffffffffffffffffffffffffffffffffffff168273ffffffffffffffffffffffffffffffffffffffff16141580156200021357506200020060055f9054906101000a900473ffffffffffffffffffffffffffffffffffffffff166200052060201b60201c565b62000211836200052060201b60201c565b115b15620002f7575f60055f9054906101000a900473ffffffffffffffffffffffffffffffffffffffff1690508260055f6101000a81548173ffffffffffffffffffffffffffffffffffffffff021916908373ffffffffffffffffffffffffffffffffffffffff1602179055508273ffffffffffffffffffffffffffffffffffffffff168173ffffffffffffffffffffffffffffffffffffffff167f46af573caa777b5b7bf92f1bbcc083c6e5372a09255e48fde9ae0b52a1521d72620002de866200052060201b60201c565b604051620002ed919062000bbe565b60405180910390a3505b505050565b5f73ffffffffffffffffffffffffffffffffffffffff168373ffffffffffffffffffffffffffffffffffffffff160362000350578060025f82825462000343919062000c06565b9250508190555062000421565b5f805f8573ffffffffffffffffffffffffffffffffffffffff1673ffffffffffffffffffffffffffffffffffffffff1681526020019081526020015f2054905081811015620003dc578381836040517fe450d38c000000000000000000000000000000000000000000000000000000008152600401620003d39392919062000c40565b60405180910390fd5b8181035f808673ffffffffffffffffffffffffffffffffffffffff1673ffffffffffffffffffffffffffffffffffffffff1681526020019081526020015f2081905550505b5f73ffffffffffffffffffffffffffffffffffffffff168273ffffffffffffffffffffffffffffffffffffffff16036200046a578060025f8282540392505081905550620004b4565b805f808473ffffffffffffffffffffffffffffffffffffffff1673ffffffffffffffffffffffffffffffffffffffff1681526020019081526020015f205f82825401925050819055505b8173ffffffffffffffffffffffffffffffffffffffff168373ffffffffffffffffffffffffffffffffffffffff167fddf252ad1be2c89b69c2b068fc378daa952ba7f163c4a11628f55a4df523b3ef8360405162000513919062000bbe565b60405180910390a3505050565b5f805f8373ffffffffffffffffffffffffffffffffffffffff1673ffffffffffffffffffffffffffffffffffffffff1681526020019081526020015f20549050919050565b5f604051905090565b5f80fd5b5f80fd5b5f80fd5b5f80fd5b5f601f19601f8301169050919050565b7f4e487b71000000000000000000000000000000000000000000000000000000005f52604160045260245ffd5b620005c6826200057e565b810181811067ffffffffffffffff82111715620005e857620005e76200058e565b5b80604052505050565b5f620005fc62000565565b90506200060a8282620005bb565b919050565b5f67ffffffffffffffff8211156200062c576200062b6200058e565b5b62000637826200057e565b9050602081019050919050565b5f5b838110156200066357808201518184015260208101905062000646565b5f8484015250505050565b5f620006846200067e846200060f565b620005f1565b905082815260208101848484011115620006a357620006a26200057a565b5b620006b084828562000644565b509392505050565b5f82601f830112620006cf57620006ce62000576565b5b8151620006e18482602086016200066e565b91505092915050565b5f73ffffffffffffffffffffffffffffffffffffffff82169050919050565b5f6200071582620006ea565b9050919050565b620007278162000709565b811462000732575f80fd5b50565b5f8151905062000745816200071c565b92915050565b5f819050919050565b6200075f816200074b565b81146200076a575f80fd5b50565b5f815190506200077d8162000754565b92915050565b5f805f805f805f60e0888a031215620007a157620007a06200056e565b5b5f88015167ffffffffffffffff811115620007c157620007c062000572565b5b620007cf8a828b01620006b8565b975050602088015167ffffffffffffffff811115620007f357620007f262000572565b5b620008018a828b01620006b8565b9650506040620008148a828b0162000735565b9550506060620008278a828b016200076d565b94505060806200083a8a828b016200076d565b93505060a06200084d8a828b0162000735565b92505060c0620008608a828b0162000735565b91505092959891949750929550565b5f81519050919050565b7f4e487b71000000000000000000000000000000000000000000000000000000005f52602260045260245ffd5b5f6002820490506001821680620008be57607f821691505b602082108103620008d457620008d362000879565b5b50919050565b5f819050815f5260205f209050919050565b5f6020601f8301049050919050565b5f82821b905092915050565b5f60088302620009387fffffffffffffffffffffffffffffffffffffffffffffffffffffffffffffffff82620008fb565b620009448683620008fb565b95508019841693508086168417925050509392505050565b5f819050919050565b5f620009856200097f62000979846200074b565b6200095c565b6200074b565b9050919050565b5f819050919050565b620009a08362000965565b620009b8620009af826200098c565b84845462000907565b825550505050565b5f90565b620009ce620009c0565b620009db81848462000995565b505050565b5b8181101562000a0257620009f65f82620009c4565b600181019050620009e1565b5050565b601f82111562000a515762000a1b81620008da565b62000a2684620008ec565b8101602085101562000a36578190505b62000a4e62000a4585620008ec565b830182620009e0565b50505b505050565b5f82821c905092915050565b5f62000a735f198460080262000a56565b1980831691505092915050565b5f62000a8d838362000a62565b9150826002028217905092915050565b62000aa8826200086f565b67ffffffffffffffff81111562000ac45762000ac36200058e565b5b62000ad08254620008a6565b62000add82828562000a06565b5f60209050601f83116001811462000b13575f841562000afe578287015190505b62000b0a858262000a80565b86555062000b79565b601f19841662000b2386620008da565b5f5b8281101562000b4c5784890151825560018201915060208501945060208101905062000b25565b8683101562000b6c578489015162000b68601f89168262000a62565b8355505b6001600288020188555050505b505050505050565b62000b8c8162000709565b82525050565b5f60208201905062000ba75f83018462000b81565b92915050565b62000bb8816200074b565b82525050565b5f60208201905062000bd35f83018462000bad565b92915050565b7f4e487b71000000000000000000000000000000000000000000000000000000005f52601160045260245ffd5b5f62000c12826200074b565b915062000c1f836200074b565b925082820190508082111562000c3a5762000c3962000bd9565b5b92915050565b5f60608201905062000c555f83018662000b81565b62000c64602083018562000bad565b62000c73604083018462000bad565b949350505050565b60805160a05161103962000c9d5f395f6103b001525f61052d01526110395ff3fe608060405234801561000f575f80fd5b50600436106100b2575f3560e01c80637e8305741161006f5780637e830574146101a05780638001dd76146101be57806395d89b41146101dc578063a9059cbb146101fa578063dd62ed3e1461022a578063f83764d71461025a576100b2565b806306fdde03146100b6578063095ea7b3146100d457806318160ddd1461010457806323b872dd14610122578063313ce5671461015257806370a0823114610170575b5f80fd5b6100be610278565b6040516100cb9190610cb2565b60405180910390f35b6100ee60048036038101906100e99190610d63565b610308565b6040516100fb9190610dbb565b60405180910390f35b61010c61032a565b6040516101199190610de3565b60405180910390f35b61013c60048036038101906101379190610dfc565b610333565b6040516101499190610dbb565b60405180910390f35b61015a610361565b6040516101679190610e67565b60405180910390f35b61018a60048036038101906101859190610e80565b610369565b6040516101979190610de3565b60405180910390f35b6101a86103ae565b6040516101b59190610de3565b60405180910390f35b6101c66103d2565b6040516101d39190610eba565b60405180910390f35b6101e46103f7565b6040516101f19190610cb2565b60405180910390f35b610214600480360381019061020f9190610d63565b610487565b6040516102219190610dbb565b60405180910390f35b610244600480360381019061023f9190610ed3565b6104a9565b6040516102519190610de3565b60405180910390f35b61026261052b565b60405161026f9190610eba565b60405180910390f35b60606003805461028790610f3e565b80601f01602080910402602001604051908101604052809291908181526020018280546102b390610f3e565b80156102fe5780601f106102d5576101008083540402835291602001916102fe565b820191905f5260205f20905b8154815290600101906020018083116102e157829003601f168201915b5050505050905090565b5f8061031261054f565b905061031f818585610556565b600191505092915050565b5f600254905090565b5f8061033d61054f565b905061034a858285610568565b6103558585856105fb565b60019150509392505050565b5f6012905090565b5f805f8373ffffffffffffffffffffffffffffffffffffffff1673ffffffffffffffffffffffffffffffffffffffff1681526020019081526020015f20549050919050565b7f000000000000000000000000000000000000000000000000000000000000000081565b60055f9054906101000a900473ffffffffffffffffffffffffffffffffffffffff1681565b60606004805461040690610f3e565b80601f016020809104026020016040519081016040528092919081815260200182805461043290610f3e565b801561047d5780601f106104545761010080835404028352916020019161047d565b820191905f5260205f20905b81548152906001019060200180831161046057829003601f168201915b5050505050905090565b5f8061049161054f565b905061049e8185856105fb565b600191505092915050565b5f60015f8473ffffffffffffffffffffffffffffffffffffffff1673ffffffffffffffffffffffffffffffffffffffff1681526020019081526020015f205f8373ffffffffffffffffffffffffffffffffffffffff1673ffffffffffffffffffffffffffffffffffffffff1681526020019081526020015f2054905092915050565b7f000000000000000000000000000000000000000000000000000000000000000081565b5f33905090565b61056383838360016106eb565b505050565b5f61057384846104a9565b90507fffffffffffffffffffffffffffffffffffffffffffffffffffffffffffffffff8110156105f557818110156105e6578281836040517ffb8f41b20000000000000000000000000000000000000000000000000000000081526004016105dd93929190610f6e565b60405180910390fd5b6105f484848484035f6106eb565b5b50505050565b5f73ffffffffffffffffffffffffffffffffffffffff168373ffffffffffffffffffffffffffffffffffffffff160361066b575f6040517f96c6fd1e0000000000000000000000000000000000000000000000000000000081526004016106629190610eba565b60405180910390fd5b5f73ffffffffffffffffffffffffffffffffffffffff168273ffffffffffffffffffffffffffffffffffffffff16036106db575f6040517fec442f050000000000000000000000000000000000000000000000000000000081526004016106d29190610eba565b60405180910390fd5b6106e68383836108ba565b505050565b5f73ffffffffffffffffffffffffffffffffffffffff168473ffffffffffffffffffffffffffffffffffffffff160361075b575f6040517fe602df050000000000000000000000000000000000000000000000000000000081526004016107529190610eba565b60405180910390fd5b5f73ffffffffffffffffffffffffffffffffffffffff168373ffffffffffffffffffffffffffffffffffffffff16036107cb575f6040517f94280d620000000000000000000000000000000000000000000000000000000081526004016107c29190610eba565b60405180910390fd5b8160015f8673ffffffffffffffffffffffffffffffffffffffff1673ffffffffffffffffffffffffffffffffffffffff1681526020019081526020015f205f8573ffffffffffffffffffffffffffffffffffffffff1673ffffffffffffffffffffffffffffffffffffffff1681526020019081526020015f208190555080156108b4578273ffffffffffffffffffffffffffffffffffffffff168473ffffffffffffffffffffffffffffffffffffffff167f8c5be1e5ebec7d5bd14f71427d1e84f3dd0314c0f7b2291e5b200ac8c7c3b925846040516108ab9190610de3565b60405180910390a35b50505050565b6108c5838383610a0f565b5f73ffffffffffffffffffffffffffffffffffffffff168273ffffffffffffffffffffffffffffffffffffffff1614158015610931575061092660055f9054906101000a900473ffffffffffffffffffffffffffffffffffffffff16610369565b61092f83610369565b115b15610a0a575f60055f9054906101000a900473ffffffffffffffffffffffffffffffffffffffff1690508260055f6101000a81548173ffffffffffffffffffffffffffffffffffffffff021916908373ffffffffffffffffffffffffffffffffffffffff1602179055508273ffffffffffffffffffffffffffffffffffffffff168173ffffffffffffffffffffffffffffffffffffffff167f46af573caa777b5b7bf92f1bbcc083c6e5372a09255e48fde9ae0b52a1521d726109f386610369565b604051610a009190610de3565b60405180910390a3505b505050565b5f73ffffffffffffffffffffffffffffffffffffffff168373ffffffffffffffffffffffffffffffffffffffff1603610a5f578060025f828254610a539190610fd0565b92505081905550610b2d565b5f805f8573ffffffffffffffffffffffffffffffffffffffff1673ffffffffffffffffffffffffffffffffffffffff1681526020019081526020015f2054905081811015610ae8578381836040517fe450d38c000000000000000000000000000000000000000000000000000000008152600401610adf93929190610f6e565b60405180910390fd5b8181035f808673ffffffffffffffffffffffffffffffffffffffff1673ffffffffffffffffffffffffffffffffffffffff1681526020019081526020015f2081905550505b5f73ffffffffffffffffffffffffffffffffffffffff168273ffffffffffffffffffffffffffffffffffffffff1603610b74578060025f8282540392505081905550610bbe565b805f808473ffffffffffffffffffffffffffffffffffffffff1673ffffffffffffffffffffffffffffffffffffffff1681526020019081526020015f205f82825401925050819055505b8173ffffffffffffffffffffffffffffffffffffffff168373ffffffffffffffffffffffffffffffffffffffff167fddf252ad1be2c89b69c2b068fc378daa952ba7f163c4a11628f55a4df523b3ef83604051610c1b9190610de3565b60405180910390a3505050565b5f81519050919050565b5f82825260208201905092915050565b5f5b83811015610c5f578082015181840152602081019050610c44565b5f8484015250505050565b5f601f19601f8301169050919050565b5f610c8482610c28565b610c8e8185610c32565b9350610c9e818560208601610c42565b610ca781610c6a565b840191505092915050565b5f6020820190508181035f830152610cca8184610c7a565b905092915050565b5f80fd5b5f73ffffffffffffffffffffffffffffffffffffffff82169050919050565b5f610cff82610cd6565b9050919050565b610d0f81610cf5565b8114610d19575f80fd5b50565b5f81359050610d2a81610d06565b92915050565b5f819050919050565b610d4281610d30565b8114610d4c575f80fd5b50565b5f81359050610d5d81610d39565b92915050565b5f8060408385031215610d7957610d78610cd2565b5b5f610d8685828601610d1c565b9250506020610d9785828601610d4f565b9150509250929050565b5f8115159050919050565b610db581610da1565b82525050565b5f602082019050610dce5f830184610dac565b92915050565b610ddd81610d30565b82525050565b5f602082019050610df65f830184610dd4565b92915050565b5f805f60608486031215610e1357610e12610cd2565b5b5f610e2086828701610d1c565b9350506020610e3186828701610d1c565b9250506040610e4286828701610d4f565b9150509250925092565b5f60ff82169050919050565b610e6181610e4c565b82525050565b5f602082019050610e7a5f830184610e58565b92915050565b5f60208284031215610e9557610e94610cd2565b5b5f610ea284828501610d1c565b91505092915050565b610eb481610cf5565b82525050565b5f602082019050610ecd5f830184610eab565b92915050565b5f8060408385031215610ee957610ee8610cd2565b5b5f610ef685828601610d1c565b9250506020610f0785828601610d1c565b9150509250929050565b7f4e487b71000000000000000000000000000000000000000000000000000000005f52602260045260245ffd5b5f6002820490506001821680610f5557607f821691505b602082108103610f6857610f67610f11565b5b50919050565b5f606082019050610f815f830186610eab565b610f8e6020830185610dd4565b610f9b6040830184610dd4565b949350505050565b7f4e487b71000000000000000000000000000000000000000000000000000000005f52601160045260245ffd5b5f610fda82610d30565b9150610fe583610d30565b9250828201905080821115610ffd57610ffc610fa3565b5b9291505056fea2646970667358221220ad82ff4b8c4bce8a1f37e6526b79c3a2f8fed429b1814fd27768b3f26672d37264736f6c63430008180033a26469706673582212202d7d56bb44a93889aa1346ab74d56677bc2da54b062d590a8e31be40099b018964736f6c63430008180033","linkReferences":{}},"methodIdentifiers":{"BURN_ADDRESS()":"fccc2813","FEE_TIER()":"4c69a6c9","MAX_TICK()":"6882a888","MIN_TICK()":"a1634b14","bidNFT()":"f83764d7","bidNFT_()":"c7091d85","bidTokens(uint256)":"e6f7fbd4","createCard(string,string,uint256,string)":"f40e93ca","getBidToken(uint256)":"1f4c3bec","getPool(uint256)":"068bcd8d","pools(uint256)":"ac4afa38","positionManager()":"791b98bc","uniswapFactory()":"8bdb2afa","wavesToken()":"23f8ec3b"},"id":37}